{
  "_format": "hh-sol-artifact-1",
  "contractName": "ETHDubaiTicket",
  "sourceName": "contracts/ETHDubaiTicket.sol",
  "abi": [
    {
      "inputs": [],
      "stateMutability": "nonpayable",
      "type": "constructor"
    },
    {
      "anonymous": false,
      "inputs": [
        {
          "indexed": true,
          "internalType": "address",
          "name": "owner",
          "type": "address"
        },
        {
          "indexed": true,
          "internalType": "address",
          "name": "approved",
          "type": "address"
        },
        {
          "indexed": true,
          "internalType": "uint256",
          "name": "tokenId",
          "type": "uint256"
        }
      ],
      "name": "Approval",
      "type": "event"
    },
    {
      "anonymous": false,
      "inputs": [
        {
          "indexed": true,
          "internalType": "address",
          "name": "owner",
          "type": "address"
        },
        {
          "indexed": true,
          "internalType": "address",
          "name": "operator",
          "type": "address"
        },
        {
          "indexed": false,
          "internalType": "bool",
          "name": "approved",
          "type": "bool"
        }
      ],
      "name": "ApprovalForAll",
      "type": "event"
    },
    {
      "anonymous": false,
      "inputs": [
        {
          "indexed": true,
          "internalType": "address",
          "name": "sender",
          "type": "address"
        },
        {
          "indexed": false,
          "internalType": "string",
          "name": "message",
          "type": "string"
        }
      ],
      "name": "Log",
      "type": "event"
    },
    {
      "anonymous": false,
      "inputs": [
        {
          "indexed": true,
          "internalType": "uint256",
          "name": "id",
          "type": "uint256"
        },
        {
          "components": [
            {
              "internalType": "string",
              "name": "email",
              "type": "string"
            },
            {
              "internalType": "string",
              "name": "fname",
              "type": "string"
            },
            {
              "internalType": "string",
              "name": "lname",
              "type": "string"
            },
            {
              "internalType": "string",
              "name": "twitter",
              "type": "string"
            },
            {
              "internalType": "string",
              "name": "bio",
              "type": "string"
            },
            {
              "internalType": "string",
              "name": "job",
              "type": "string"
            },
            {
              "internalType": "string",
              "name": "company",
              "type": "string"
            },
            {
              "internalType": "string",
              "name": "diet",
              "type": "string"
            },
            {
              "internalType": "string",
              "name": "tshirt",
              "type": "string"
            },
            {
              "internalType": "string",
              "name": "telegram",
              "type": "string"
            }
          ],
          "indexed": false,
          "internalType": "struct ETHDubaiTicket.AttendeeInfo",
          "name": "attendeeInfo",
          "type": "tuple"
        },
        {
          "indexed": false,
          "internalType": "string",
          "name": "message",
          "type": "string"
        }
      ],
      "name": "LogAttendeeInfo",
      "type": "event"
    },
    {
      "anonymous": false,
      "inputs": [
        {
          "indexed": true,
          "internalType": "address",
          "name": "sender",
          "type": "address"
        },
        {
          "components": [
            {
              "internalType": "string[]",
              "name": "ticketOptions",
              "type": "string[]"
            },
            {
              "internalType": "uint256",
              "name": "amount",
              "type": "uint256"
            }
          ],
          "indexed": false,
          "internalType": "struct ETHDubaiTicket.Discount",
          "name": "discount",
          "type": "tuple"
        },
        {
          "indexed": false,
          "internalType": "string",
          "name": "message",
          "type": "string"
        }
      ],
      "name": "LogDiscount",
      "type": "event"
    },
    {
      "anonymous": false,
      "inputs": [
        {
          "components": [
            {
              "components": [
                {
                  "internalType": "string[]",
                  "name": "ticketOptions",
                  "type": "string[]"
                },
                {
                  "internalType": "uint256",
                  "name": "amount",
                  "type": "uint256"
                }
              ],
              "internalType": "struct ETHDubaiTicket.Discount",
              "name": "discount",
              "type": "tuple"
            },
            {
              "components": [
                {
                  "internalType": "string",
                  "name": "name",
                  "type": "string"
                },
                {
                  "internalType": "uint256",
                  "name": "priceOneDay",
                  "type": "uint256"
                },
                {
                  "internalType": "uint256",
                  "name": "priceTwoDays",
                  "type": "uint256"
                },
                {
                  "internalType": "uint256",
                  "name": "priceThreeDays",
                  "type": "uint256"
                },
                {
                  "internalType": "uint256",
                  "name": "priceHotel",
                  "type": "uint256"
                }
              ],
              "internalType": "struct ETHDubaiTicket.TicketSettings",
              "name": "ticketSettings",
              "type": "tuple"
            },
            {
              "internalType": "address",
              "name": "buyer",
              "type": "address"
            },
            {
              "internalType": "uint256",
              "name": "amount",
              "type": "uint256"
            },
            {
              "internalType": "uint256",
              "name": "tokenId",
              "type": "uint256"
            },
            {
              "internalType": "string",
              "name": "ticketOption",
              "type": "string"
            }
          ],
          "indexed": true,
          "internalType": "struct ETHDubaiTicket.MintLog",
          "name": "mintLog",
          "type": "tuple"
        },
        {
          "indexed": false,
          "internalType": "string",
          "name": "message",
          "type": "string"
        }
      ],
      "name": "LogMint",
      "type": "event"
    },
    {
      "anonymous": false,
      "inputs": [
        {
          "indexed": true,
          "internalType": "address",
          "name": "sender",
          "type": "address"
        },
        {
          "indexed": false,
          "internalType": "uint256",
          "name": "id",
          "type": "uint256"
        },
        {
          "indexed": false,
          "internalType": "string",
          "name": "message",
          "type": "string"
        }
      ],
      "name": "LogMintId",
      "type": "event"
    },
    {
      "anonymous": false,
      "inputs": [
        {
          "components": [
            {
              "internalType": "address",
              "name": "from",
              "type": "address"
            },
            {
              "internalType": "address",
              "name": "to",
              "type": "address"
            },
            {
              "internalType": "uint256",
              "name": "tokenId",
              "type": "uint256"
            },
            {
              "internalType": "uint256",
              "name": "amount",
              "type": "uint256"
            }
          ],
          "indexed": true,
          "internalType": "struct ETHDubaiTicket.ResellLog",
          "name": "resellLog",
          "type": "tuple"
        },
        {
          "indexed": false,
          "internalType": "string",
          "name": "message",
          "type": "string"
        }
      ],
      "name": "LogResell",
      "type": "event"
    },
    {
      "anonymous": false,
      "inputs": [
        {
          "indexed": true,
          "internalType": "uint256",
          "name": "id",
          "type": "uint256"
        },
        {
          "components": [
            {
              "internalType": "bool",
              "name": "isResellable",
              "type": "bool"
            },
            {
              "internalType": "uint256",
              "name": "price",
              "type": "uint256"
            }
          ],
          "indexed": false,
          "internalType": "struct ETHDubaiTicket.Resellable",
          "name": "resellable",
          "type": "tuple"
        },
        {
          "indexed": false,
          "internalType": "string",
          "name": "message",
          "type": "string"
        }
      ],
      "name": "LogResellable",
      "type": "event"
    },
    {
      "anonymous": false,
      "inputs": [
        {
          "indexed": true,
          "internalType": "uint256",
          "name": "id",
          "type": "uint256"
        },
        {
          "indexed": false,
          "internalType": "bool",
          "name": "value",
          "type": "bool"
        },
        {
          "indexed": false,
          "internalType": "string",
          "name": "message",
          "type": "string"
        }
      ],
      "name": "LogTicketAction",
      "type": "event"
    },
    {
      "anonymous": false,
      "inputs": [
        {
          "components": [
            {
              "internalType": "string",
              "name": "name",
              "type": "string"
            },
            {
              "internalType": "uint256",
              "name": "priceOneDay",
              "type": "uint256"
            },
            {
              "internalType": "uint256",
              "name": "priceTwoDays",
              "type": "uint256"
            },
            {
              "internalType": "uint256",
              "name": "priceThreeDays",
              "type": "uint256"
            },
            {
              "internalType": "uint256",
              "name": "priceHotel",
              "type": "uint256"
            }
          ],
          "indexed": true,
          "internalType": "struct ETHDubaiTicket.TicketSettings",
          "name": "ticketSettings",
          "type": "tuple"
        },
        {
          "indexed": false,
          "internalType": "string",
          "name": "message",
          "type": "string"
        }
      ],
      "name": "LogTicketSettings",
      "type": "event"
    },
    {
      "anonymous": false,
      "inputs": [
        {
          "indexed": true,
          "internalType": "uint256",
          "name": "tokenId",
          "type": "uint256"
        },
        {
          "indexed": false,
          "internalType": "string",
          "name": "message",
          "type": "string"
        }
      ],
      "name": "LogUint",
      "type": "event"
    },
    {
      "anonymous": false,
      "inputs": [
        {
          "indexed": true,
          "internalType": "address",
          "name": "from",
          "type": "address"
        },
        {
          "indexed": true,
          "internalType": "address",
          "name": "to",
          "type": "address"
        },
        {
          "indexed": true,
          "internalType": "uint256",
          "name": "tokenId",
          "type": "uint256"
        }
      ],
      "name": "Transfer",
      "type": "event"
    },
    {
      "inputs": [
        {
          "internalType": "uint256",
          "name": "",
          "type": "uint256"
        }
      ],
      "name": "_idToAttendeeInfo",
      "outputs": [
        {
          "internalType": "string",
          "name": "email",
          "type": "string"
        },
        {
          "internalType": "string",
          "name": "fname",
          "type": "string"
        },
        {
          "internalType": "string",
          "name": "lname",
          "type": "string"
        },
        {
          "internalType": "string",
          "name": "twitter",
          "type": "string"
        },
        {
          "internalType": "string",
          "name": "bio",
          "type": "string"
        },
        {
          "internalType": "string",
          "name": "job",
          "type": "string"
        },
        {
          "internalType": "string",
          "name": "company",
          "type": "string"
        },
        {
          "internalType": "string",
          "name": "diet",
          "type": "string"
        },
        {
          "internalType": "string",
          "name": "tshirt",
          "type": "string"
        },
        {
          "internalType": "string",
          "name": "telegram",
          "type": "string"
        }
      ],
      "stateMutability": "view",
      "type": "function"
    },
    {
      "inputs": [
        {
          "internalType": "uint256",
          "name": "",
          "type": "uint256"
        }
      ],
      "name": "_idToCanceled",
      "outputs": [
        {
          "internalType": "bool",
          "name": "",
          "type": "bool"
        }
      ],
      "stateMutability": "view",
      "type": "function"
    },
    {
      "inputs": [
        {
          "internalType": "uint256",
          "name": "",
          "type": "uint256"
        }
      ],
      "name": "_idToColors",
      "outputs": [
        {
          "internalType": "bytes3",
          "name": "color1",
          "type": "bytes3"
        },
        {
          "internalType": "bytes3",
          "name": "color2",
          "type": "bytes3"
        },
        {
          "internalType": "bytes3",
          "name": "color3",
          "type": "bytes3"
        },
        {
          "internalType": "bytes3",
          "name": "color4",
          "type": "bytes3"
        },
        {
          "internalType": "bytes3",
          "name": "color5",
          "type": "bytes3"
        }
      ],
      "stateMutability": "view",
      "type": "function"
    },
    {
      "inputs": [
        {
          "internalType": "uint256",
          "name": "",
          "type": "uint256"
        }
      ],
      "name": "_idToScanned",
      "outputs": [
        {
          "internalType": "bool",
          "name": "",
          "type": "bool"
        }
      ],
      "stateMutability": "view",
      "type": "function"
    },
    {
      "inputs": [
        {
          "internalType": "uint256",
          "name": "",
          "type": "uint256"
        }
      ],
      "name": "_idToTicketCode",
      "outputs": [
        {
          "internalType": "string",
          "name": "",
          "type": "string"
        }
      ],
      "stateMutability": "view",
      "type": "function"
    },
    {
      "inputs": [
        {
          "internalType": "uint256",
          "name": "",
          "type": "uint256"
        }
      ],
      "name": "_idToTicketOption",
      "outputs": [
        {
          "internalType": "string",
          "name": "",
          "type": "string"
        }
      ],
      "stateMutability": "view",
      "type": "function"
    },
    {
      "inputs": [
        {
          "internalType": "uint256",
          "name": "",
          "type": "uint256"
        }
      ],
      "name": "_idToTicketResellable",
      "outputs": [
        {
          "internalType": "bool",
          "name": "isResellable",
          "type": "bool"
        },
        {
          "internalType": "uint256",
          "name": "price",
          "type": "uint256"
        }
      ],
      "stateMutability": "view",
      "type": "function"
    },
    {
      "inputs": [
        {
          "internalType": "address",
          "name": "to",
          "type": "address"
        },
        {
          "internalType": "uint256",
          "name": "tokenId",
          "type": "uint256"
        }
      ],
      "name": "approve",
      "outputs": [],
      "stateMutability": "nonpayable",
      "type": "function"
    },
    {
      "inputs": [
        {
          "internalType": "address",
          "name": "owner",
          "type": "address"
        }
      ],
      "name": "balanceOf",
      "outputs": [
        {
          "internalType": "uint256",
          "name": "",
          "type": "uint256"
        }
      ],
      "stateMutability": "view",
      "type": "function"
    },
    {
      "inputs": [
        {
          "internalType": "uint256",
          "name": "id",
          "type": "uint256"
        },
        {
          "internalType": "bool",
          "name": "canceled",
          "type": "bool"
        }
      ],
      "name": "cancelTicket",
      "outputs": [
        {
          "internalType": "bool",
          "name": "",
          "type": "bool"
        }
      ],
      "stateMutability": "nonpayable",
      "type": "function"
    },
    {
      "inputs": [
        {
          "internalType": "bytes32",
          "name": "",
          "type": "bytes32"
        }
      ],
      "name": "forSale",
      "outputs": [
        {
          "internalType": "bool",
          "name": "",
          "type": "bool"
        }
      ],
      "stateMutability": "view",
      "type": "function"
    },
    {
      "inputs": [
        {
          "internalType": "uint256",
          "name": "tokenId",
          "type": "uint256"
        }
      ],
      "name": "getApproved",
      "outputs": [
        {
          "internalType": "address",
          "name": "",
          "type": "address"
        }
      ],
      "stateMutability": "view",
      "type": "function"
    },
    {
      "inputs": [
        {
          "internalType": "address",
          "name": "sender",
          "type": "address"
        },
        {
          "internalType": "string",
          "name": "ticketOption",
          "type": "string"
        }
      ],
      "name": "getPrice",
      "outputs": [
        {
          "internalType": "uint256",
          "name": "",
          "type": "uint256"
        }
      ],
      "stateMutability": "view",
      "type": "function"
    },
    {
      "inputs": [
        {
          "internalType": "address",
          "name": "owner",
          "type": "address"
        },
        {
          "internalType": "address",
          "name": "operator",
          "type": "address"
        }
      ],
      "name": "isApprovedForAll",
      "outputs": [
        {
          "internalType": "bool",
          "name": "",
          "type": "bool"
        }
      ],
      "stateMutability": "view",
      "type": "function"
    },
    {
      "inputs": [
        {
          "internalType": "uint256",
          "name": "id",
          "type": "uint256"
        },
        {
          "internalType": "bool",
          "name": "scanned",
          "type": "bool"
        }
      ],
      "name": "markAsScanned",
      "outputs": [
        {
          "internalType": "bool",
          "name": "",
          "type": "bool"
        }
      ],
      "stateMutability": "nonpayable",
      "type": "function"
    },
    {
      "inputs": [
        {
          "components": [
            {
              "components": [
                {
                  "internalType": "string",
                  "name": "email",
                  "type": "string"
                },
                {
                  "internalType": "string",
                  "name": "fname",
                  "type": "string"
                },
                {
                  "internalType": "string",
                  "name": "lname",
                  "type": "string"
                },
                {
                  "internalType": "string",
                  "name": "twitter",
                  "type": "string"
                },
                {
                  "internalType": "string",
                  "name": "bio",
                  "type": "string"
                },
                {
                  "internalType": "string",
                  "name": "job",
                  "type": "string"
                },
                {
                  "internalType": "string",
                  "name": "company",
                  "type": "string"
                },
                {
                  "internalType": "string",
                  "name": "diet",
                  "type": "string"
                },
                {
                  "internalType": "string",
                  "name": "tshirt",
                  "type": "string"
                },
                {
                  "internalType": "string",
                  "name": "telegram",
                  "type": "string"
                }
              ],
              "internalType": "struct ETHDubaiTicket.AttendeeInfo",
              "name": "attendeeInfo",
              "type": "tuple"
            },
            {
              "internalType": "string",
              "name": "ticketCode",
              "type": "string"
            },
            {
              "internalType": "string",
              "name": "ticketOption",
              "type": "string"
            },
            {
              "components": [
                {
                  "internalType": "bool",
                  "name": "isResellable",
                  "type": "bool"
                },
                {
                  "internalType": "uint256",
                  "name": "price",
                  "type": "uint256"
                }
              ],
              "internalType": "struct ETHDubaiTicket.Resellable",
              "name": "resellable",
              "type": "tuple"
            }
          ],
          "internalType": "struct ETHDubaiTicket.MintInfo[]",
          "name": "mintInfos",
          "type": "tuple[]"
        }
      ],
      "name": "mintItem",
      "outputs": [
        {
          "internalType": "string",
          "name": "",
          "type": "string"
        }
      ],
      "stateMutability": "payable",
      "type": "function"
    },
    {
      "inputs": [],
      "name": "name",
      "outputs": [
        {
          "internalType": "string",
          "name": "",
          "type": "string"
        }
      ],
      "stateMutability": "view",
      "type": "function"
    },
    {
      "inputs": [],
      "name": "owner",
      "outputs": [
        {
          "internalType": "address payable",
          "name": "",
          "type": "address"
        }
      ],
      "stateMutability": "view",
      "type": "function"
    },
    {
      "inputs": [
        {
          "internalType": "uint256",
          "name": "tokenId",
          "type": "uint256"
        }
      ],
      "name": "ownerOf",
      "outputs": [
        {
          "internalType": "address",
          "name": "",
          "type": "address"
        }
      ],
      "stateMutability": "view",
      "type": "function"
    },
    {
      "inputs": [
        {
          "internalType": "uint256",
          "name": "id",
          "type": "uint256"
        }
      ],
      "name": "renderTokenById",
      "outputs": [
        {
          "internalType": "string",
          "name": "",
          "type": "string"
        }
      ],
      "stateMutability": "view",
      "type": "function"
    },
    {
      "inputs": [
        {
          "internalType": "address payable",
          "name": "from",
          "type": "address"
        },
        {
          "internalType": "address",
          "name": "to",
          "type": "address"
        },
        {
          "internalType": "uint256",
          "name": "tokenId",
          "type": "uint256"
        }
      ],
      "name": "resell",
      "outputs": [],
      "stateMutability": "payable",
      "type": "function"
    },
    {
      "inputs": [
        {
          "internalType": "address",
          "name": "from",
          "type": "address"
        },
        {
          "internalType": "address",
          "name": "to",
          "type": "address"
        },
        {
          "internalType": "uint256",
          "name": "tokenId",
          "type": "uint256"
        }
      ],
      "name": "safeTransferFrom",
      "outputs": [],
      "stateMutability": "nonpayable",
      "type": "function"
    },
    {
      "inputs": [
        {
          "internalType": "address",
          "name": "from",
          "type": "address"
        },
        {
          "internalType": "address",
          "name": "to",
          "type": "address"
        },
        {
          "internalType": "uint256",
          "name": "tokenId",
          "type": "uint256"
        },
        {
          "internalType": "bytes",
          "name": "_data",
          "type": "bytes"
        }
      ],
      "name": "safeTransferFrom",
      "outputs": [],
      "stateMutability": "nonpayable",
      "type": "function"
    },
    {
      "inputs": [
        {
          "internalType": "address",
          "name": "operator",
          "type": "address"
        },
        {
          "internalType": "bool",
          "name": "approved",
          "type": "bool"
        }
      ],
      "name": "setApprovalForAll",
      "outputs": [],
      "stateMutability": "nonpayable",
      "type": "function"
    },
    {
      "inputs": [
        {
          "internalType": "address",
          "name": "buyer",
          "type": "address"
        },
        {
          "internalType": "string[]",
          "name": "ticketDiscounts",
          "type": "string[]"
        },
        {
          "internalType": "uint256",
          "name": "amount",
          "type": "uint256"
        }
      ],
      "name": "setDiscount",
      "outputs": [
        {
          "internalType": "bool",
          "name": "",
          "type": "bool"
        }
      ],
      "stateMutability": "nonpayable",
      "type": "function"
    },
    {
      "inputs": [
        {
          "internalType": "uint256",
          "name": "newMaxMint",
          "type": "uint256"
        }
      ],
      "name": "setMaxMint",
      "outputs": [
        {
          "internalType": "uint256",
          "name": "",
          "type": "uint256"
        }
      ],
      "stateMutability": "nonpayable",
      "type": "function"
    },
    {
      "inputs": [
        {
          "internalType": "uint256",
          "name": "id",
          "type": "uint256"
        },
        {
          "internalType": "bool",
          "name": "isResellable",
          "type": "bool"
        },
        {
          "internalType": "uint256",
          "name": "price",
          "type": "uint256"
        }
      ],
      "name": "setResellable",
      "outputs": [
        {
          "internalType": "bool",
          "name": "",
          "type": "bool"
        }
      ],
      "stateMutability": "nonpayable",
      "type": "function"
    },
    {
      "inputs": [
        {
          "internalType": "string",
          "name": "name",
          "type": "string"
        },
        {
          "internalType": "uint256",
          "name": "amount",
          "type": "uint256"
        }
      ],
      "name": "setTicketOption",
      "outputs": [
        {
          "internalType": "bool",
          "name": "",
          "type": "bool"
        }
      ],
      "stateMutability": "nonpayable",
      "type": "function"
    },
    {
      "inputs": [
        {
          "internalType": "string",
          "name": "name",
          "type": "string"
        },
        {
          "internalType": "uint256",
          "name": "pOneDay",
          "type": "uint256"
        },
        {
          "internalType": "uint256",
          "name": "pTwoDays",
          "type": "uint256"
        },
        {
          "internalType": "uint256",
          "name": "pThreeDays",
          "type": "uint256"
        },
        {
          "internalType": "uint256",
          "name": "pHotel",
          "type": "uint256"
        }
      ],
      "name": "setTicketSettings",
      "outputs": [
        {
          "internalType": "bool",
          "name": "",
          "type": "bool"
        }
      ],
      "stateMutability": "nonpayable",
      "type": "function"
    },
    {
      "inputs": [],
      "name": "settings",
      "outputs": [
        {
          "components": [
            {
              "internalType": "string",
              "name": "name",
              "type": "string"
            },
            {
              "internalType": "uint256",
              "name": "priceOneDay",
              "type": "uint256"
            },
            {
              "internalType": "uint256",
              "name": "priceTwoDays",
              "type": "uint256"
            },
            {
              "internalType": "uint256",
              "name": "priceThreeDays",
              "type": "uint256"
            },
            {
              "internalType": "uint256",
              "name": "priceHotel",
              "type": "uint256"
            }
          ],
          "internalType": "struct ETHDubaiTicket.TicketSettings",
          "name": "ticketSettings",
          "type": "tuple"
        },
        {
          "internalType": "uint256",
          "name": "maxMint",
          "type": "uint256"
        }
      ],
      "stateMutability": "view",
      "type": "function"
    },
    {
      "inputs": [
        {
          "internalType": "bytes4",
          "name": "interfaceId",
          "type": "bytes4"
        }
      ],
      "name": "supportsInterface",
      "outputs": [
        {
          "internalType": "bool",
          "name": "",
          "type": "bool"
        }
      ],
      "stateMutability": "view",
      "type": "function"
    },
    {
      "inputs": [],
      "name": "symbol",
      "outputs": [
        {
          "internalType": "string",
          "name": "",
          "type": "string"
        }
      ],
      "stateMutability": "view",
      "type": "function"
    },
    {
      "inputs": [
        {
          "internalType": "uint256",
          "name": "id",
          "type": "uint256"
        }
      ],
      "name": "tokenURI",
      "outputs": [
        {
          "internalType": "string",
          "name": "",
          "type": "string"
        }
      ],
      "stateMutability": "view",
      "type": "function"
    },
    {
      "inputs": [
        {
          "internalType": "address",
          "name": "from",
          "type": "address"
        },
        {
          "internalType": "address",
          "name": "to",
          "type": "address"
        },
        {
          "internalType": "uint256",
          "name": "tokenId",
          "type": "uint256"
        }
      ],
      "name": "transferFrom",
      "outputs": [],
      "stateMutability": "nonpayable",
      "type": "function"
    },
    {
      "inputs": [
        {
          "internalType": "uint256",
          "name": "id",
          "type": "uint256"
        },
        {
          "components": [
            {
              "internalType": "string",
              "name": "email",
              "type": "string"
            },
            {
              "internalType": "string",
              "name": "fname",
              "type": "string"
            },
            {
              "internalType": "string",
              "name": "lname",
              "type": "string"
            },
            {
              "internalType": "string",
              "name": "twitter",
              "type": "string"
            },
            {
              "internalType": "string",
              "name": "bio",
              "type": "string"
            },
            {
              "internalType": "string",
              "name": "job",
              "type": "string"
            },
            {
              "internalType": "string",
              "name": "company",
              "type": "string"
            },
            {
              "internalType": "string",
              "name": "diet",
              "type": "string"
            },
            {
              "internalType": "string",
              "name": "tshirt",
              "type": "string"
            },
            {
              "internalType": "string",
              "name": "telegram",
              "type": "string"
            }
          ],
          "internalType": "struct ETHDubaiTicket.AttendeeInfo",
          "name": "attendeeInfo",
          "type": "tuple"
        }
      ],
      "name": "updateAttendeeInfo",
      "outputs": [
        {
          "internalType": "bool",
          "name": "",
          "type": "bool"
        }
      ],
      "stateMutability": "nonpayable",
      "type": "function"
    },
    {
      "inputs": [
        {
          "internalType": "bytes32",
          "name": "",
          "type": "bytes32"
        }
      ],
      "name": "uriToTokenId",
      "outputs": [
        {
          "internalType": "uint256",
          "name": "",
          "type": "uint256"
        }
      ],
      "stateMutability": "view",
      "type": "function"
    },
    {
      "inputs": [],
      "name": "withdraw",
      "outputs": [],
      "stateMutability": "nonpayable",
      "type": "function"
    }
  ],
  "bytecode": "0x60806040523480156200001157600080fd5b50604080518082018252600e81526d115512111d58985a551a58dad95d60921b602080830191825283518085019094526008845267455448445542414960c01b9084015281519192916200006891600091620003c2565b5080516200007e906001906020840190620003c2565b505050336001600160a01b03167f0738f4da267a110d810e6e89fc59e46be6de0c37b1d5cd559b267dc3688e74e0604051620000de9060208082526010908201526f10dbdb9d1c9858dd0818dc99585d195960821b604082015260600190565b60405180910390a2600880546001600160a01b031916331790556001600e556040805160e081018252600a60a082018181526919585c9b1e48189a5c9960b21b60c0840190815290835267016345785d8a000060208401819052671bc16d674ec80000948401949094526702c68af0bb14000060608401526080830193909352909160099162000170918391620003c2565b5060208201516001820155604080830151600283015560608301516003830155608090920151600490910155805169636f6e666572656e636560b01b81526010600a8201819052915190819003602a01812067016345785d8a00009055670776f726b73686f760c41b8152671bc16d674ec800009190600801908152604051908190036020018120919091556702c68af0bb1400009060109062000237907f776f726b73686f70416e64507265506172747900000000000000000000000000815260130190565b9081526040519081900360200181209190915566b1a2bc2ec50000906010906200026c90641a1bdd195b60da1b815260050190565b9081526040519081900360200181209190915567011c37937e08000090601090620002a3906573616661726960d01b815260060190565b908152604051908190036020018120919091556702c68af0bb14000090601090620002e3906e686f74656c436f6e666572656e636560881b8152600f0190565b90815260405190819003602001812091909155671dd6559bdb1700009060109062000322906d686f74656c576f726b73686f707360901b8152600e0190565b9081526040519081900360200181209190915567058d15e1762800009060109062000370907f686f74656c576f726b73686f7073416e64507265506172747900000000000000815260190190565b9081526040519081900360200181209190915567063eb89da4ed000090601090620003ac906a686f74656c53616661726960a81b8152600b0190565b90815260405190819003602001902055620004a5565b828054620003d09062000468565b90600052602060002090601f016020900481019282620003f457600085556200043f565b82601f106200040f57805160ff19168380011785556200043f565b828001600101855582156200043f579182015b828111156200043f57825182559160200191906001019062000422565b506200044d92915062000451565b5090565b5b808211156200044d576000815560010162000452565b600181811c908216806200047d57607f821691505b602082108114156200049f57634e487b7160e01b600052602260045260246000fd5b50919050565b615f5c80620004b56000396000f3fe60806040526004361061021a5760003560e01c80638da5cb5b11610123578063b88d4fde116100ab578063e06174e41161006f578063e06174e4146106f7578063e0d116041461071a578063e136d28c1461073a578063e985e9c51461075a578063fc471789146107a357600080fd5b8063b88d4fde14610641578063b9a34d9214610661578063c87b56dd14610681578063ca6b7cec146106a1578063d18d48ae146106c157600080fd5b8063a011bc15116100f2578063a011bc151461050e578063a22cb465146105a4578063a2d6c6da146105c4578063ae374b99146105e4578063b7416f2a1461061457600080fd5b80638da5cb5b146104a657806393348137146104c657806395d89b41146104e65780639c0b3432146104fb57600080fd5b806342842e0e116101a657806368064d1e1161017557806368064d1e1461040657806370a082311461042657806376977a3a146104465780637d935b76146104665780637f7819a71461048657600080fd5b806342842e0e14610368578063547520fe146103885780635bb67fb0146103b65780636352211e146103e657600080fd5b80630defcdff116101ed5780630defcdff146102d057806323b872dd146102f057806324207e021461031057806335090d3a146103235780633ccfd60b1461035357600080fd5b806301ffc9a71461021f57806306fdde0314610254578063081812fc14610276578063095ea7b3146102ae575b600080fd5b34801561022b57600080fd5b5061023f61023a36600461471a565b6107f4565b60405190151581526020015b60405180910390f35b34801561026057600080fd5b50610269610846565b60405161024b9190615777565b34801561028257600080fd5b50610296610291366004614702565b6108d8565b6040516001600160a01b03909116815260200161024b565b3480156102ba57600080fd5b506102ce6102c936600461459c565b610972565b005b3480156102dc57600080fd5b506102696102eb366004614702565b610a88565b3480156102fc57600080fd5b506102ce61030b3660046143b9565b610b22565b6102ce61031e366004614341565b610b53565b34801561032f57600080fd5b5061023f61033e366004614702565b60176020526000908152604090205460ff1681565b34801561035f57600080fd5b506102ce610d92565b34801561037457600080fd5b506102ce6103833660046143b9565b610e87565b34801561039457600080fd5b506103a86103a3366004614702565b610ea2565b60405190815260200161024b565b3480156103c257600080fd5b5061023f6103d1366004614702565b60166020526000908152604090205460ff1681565b3480156103f257600080fd5b50610296610401366004614702565b610f5f565b34801561041257600080fd5b5061023f610421366004614810565b610fd6565b34801561043257600080fd5b506103a8610441366004614309565b611138565b34801561045257600080fd5b506103a861046136600461454f565b6111bf565b34801561047257600080fd5b5061023f610481366004614794565b611468565b34801561049257600080fd5b5061023f6104a1366004614449565b611576565b3480156104b257600080fd5b50600854610296906001600160a01b031681565b3480156104d257600080fd5b506102696104e1366004614702565b61166e565b3480156104f257600080fd5b50610269611687565b6102696105093660046145c7565b611696565b34801561051a57600080fd5b50610569610529366004614702565b60186020526000908152604090205460e881811b9163010000008104821b91600160301b8204811b91600160481b8104821b91600160601b909104901b85565b604080516001600160e81b0319968716815294861660208601529285169284019290925283166060830152909116608082015260a00161024b565b3480156105b057600080fd5b506102ce6105bf36600461451b565b611875565b3480156105d057600080fd5b506102696105df366004614702565b61193a565b3480156105f057600080fd5b5061023f6105ff366004614702565b60116020526000908152604090205460ff1681565b34801561062057600080fd5b506103a861062f366004614702565b60126020526000908152604090205481565b34801561064d57600080fd5b506102ce61065c3660046143cd565b611a6b565b34801561066d57600080fd5b5061023f61067c366004614752565b611aa3565b34801561068d57600080fd5b5061026961069c366004614702565b611b37565b3480156106ad57600080fd5b5061023f6106bc3660046147ee565b611cdc565b3480156106cd57600080fd5b506106e16106dc366004614702565b611dbe565b60405161024b9a999897969594939291906157b8565b34801561070357600080fd5b5061070c61235a565b60405161024b929190615bb0565b34801561072657600080fd5b5061023f6107353660046147ee565b61242f565b34801561074657600080fd5b5061023f610755366004614844565b612501565b34801561076657600080fd5b5061023f610775366004614381565b6001600160a01b03918216600090815260056020908152604080832093909416825291909152205460ff1690565b3480156107af57600080fd5b506107dd6107be366004614702565b6015602052600090815260409020805460019091015460ff9091169082565b60408051921515835260208301919091520161024b565b60006001600160e01b031982166380ac58cd60e01b148061082557506001600160e01b03198216635b5e139f60e01b145b8061084057506301ffc9a760e01b6001600160e01b03198316145b92915050565b60606000805461085590615d6f565b80601f016020809104026020016040519081016040528092919081815260200182805461088190615d6f565b80156108ce5780601f106108a3576101008083540402835291602001916108ce565b820191906000526020600020905b8154815290600101906020018083116108b157829003601f168201915b5050505050905090565b6000818152600260205260408120546001600160a01b03166109565760405162461bcd60e51b815260206004820152602c60248201527f4552433732313a20617070726f76656420717565727920666f72206e6f6e657860448201526b34b9ba32b73a103a37b5b2b760a11b60648201526084015b60405180910390fd5b506000908152600460205260409020546001600160a01b031690565b600061097d82610f5f565b9050806001600160a01b0316836001600160a01b031614156109eb5760405162461bcd60e51b815260206004820152602160248201527f4552433732313a20617070726f76616c20746f2063757272656e74206f776e656044820152603960f91b606482015260840161094d565b336001600160a01b0382161480610a075750610a078133610775565b610a795760405162461bcd60e51b815260206004820152603860248201527f4552433732313a20617070726f76652063616c6c6572206973206e6f74206f7760448201527f6e6572206e6f7220617070726f76656420666f7220616c6c0000000000000000606482015260840161094d565b610a83838361271d565b505050565b60146020526000908152604090208054610aa190615d6f565b80601f0160208091040260200160405190810160405280929190818152602001828054610acd90615d6f565b8015610b1a5780601f10610aef57610100808354040283529160200191610b1a565b820191906000526020600020905b815481529060010190602001808311610afd57829003601f168201915b505050505081565b610b2c338261278b565b610b485760405162461bcd60e51b815260040161094d90615964565b610a83838383612882565b6000818152601560209081526040918290208251808401909352805460ff16151580845260019091015491830191909152610bd05760405162461bcd60e51b815260206004820152601960248201527f5469636b6574206973206e6f7420726573656c6c61626c652100000000000000604482015260640161094d565b8060200151341015610c245760405162461bcd60e51b815260206004820152601960248201527f50726963652062656c6f772073656c6c696e6720707269636500000000000000604482015260640161094d565b346000610c32600a83615ce2565b90506000662386f26fc10000610c488385615d15565b610c529190615d15565b60405190915073579e8e014f5b2c6d7a3373fb840f8dafeacbfae190819084156108fc029085906000818181858888f19350505050158015610c98573d6000803e3d6000fd5b506040516001600160a01b0389169083156108fc029084906000818181858888f19350505050158015610ccf573d6000803e3d6000fd5b50610cdb888888612882565b60408051608080820183526001600160a01b038b81168084528b821660208086019182528587018d815260608088018d81528951958652935190951691840191909152519582019590955293519084015290910160405180910390207f86277c11bca9857bea70f1ed444239dfca5d17b35383bef78cea646d3523e34a604051610d7f906020808252600690820152651c995cd95b1b60d21b604082015260600190565b60405180910390a2505050505050505050565b60085460405147916000916001600160a01b039091169083908381818185875af1925050503d8060008114610de3576040519150601f19603f3d011682016040523d82523d6000602084013e610de8565b606091505b5050905080610e305760405162461bcd60e51b81526020600482015260146024820152732330b4b632b2103a379039b2b7321022ba3432b960611b604482015260640161094d565b817f200ff80aa1f2bb5d6dcaab25a746593781f2eb0f6ae73f2752b0c9e134e34a2e604051610e7b90602080825260089082015267776974686472617760c01b604082015260600190565b60405180910390a25050565b610a8383838360405180602001604052806000815250611a6b565b6008546000906001600160a01b03163314610eff5760405162461bcd60e51b815260206004820152601e60248201527f6f6e6c79206f776e65722063616e206d61726b206173207363616e6e65640000604482015260640161094d565b600e82905560405182907f200ff80aa1f2bb5d6dcaab25a746593781f2eb0f6ae73f2752b0c9e134e34a2e90610f53906020808252600a90820152691cd95d13585e135a5b9d60b21b604082015260600190565b60405180910390a25090565b6000818152600260205260408120546001600160a01b0316806108405760405162461bcd60e51b815260206004820152602960248201527f4552433732313a206f776e657220717565727920666f72206e6f6e657869737460448201526832b73a103a37b5b2b760b91b606482015260840161094d565b6008546000906001600160a01b031633148061107157506040516331a9108f60e11b8152600481018590523090636352211e9060240160206040518083038186803b15801561102457600080fd5b505afa158015611038573d6000803e3d6000fd5b505050506040513d601f19601f8201168201806040525081019061105c9190614325565b6001600160a01b0316336001600160a01b0316145b61108d5760405162461bcd60e51b815260040161094d90615907565b604080518082018252841515815260208082018581526000888152601583528490208351815490151560ff1990911681178255825160019092019190915584519081529051918101919091526060818401819052600d908201526c736574526573656c6c61626c6560981b60808201529151909186917f71dbbc22bbc8f26956cffbb603d100db996492814920d571e41c6e0510d063b59181900360a00190a2506001949350505050565b60006001600160a01b0382166111a35760405162461bcd60e51b815260206004820152602a60248201527f4552433732313a2062616c616e636520717565727920666f7220746865207a65604482015269726f206164647265737360b01b606482015260840161094d565b506001600160a01b031660009081526003602052604090205490565b6001600160a01b0382166000908152600f60209081526040808320815181546060948102820185018452928101838152859491938492849190879085015b828210156112a957838290600052602060002001805461121c90615d6f565b80601f016020809104026020016040519081016040528092919081815260200182805461124890615d6f565b80156112955780601f1061126a57610100808354040283529160200191611295565b820191906000526020600020905b81548152906001019060200180831161127857829003601f168201915b5050505050815260200190600101906111fd565b505050908252506001918201546020918201526001600160a01b0387166000908152600f9091526040808220909201549151929350909181906010906112f09088906149f8565b9081526020016040518091039020548261130a9190615ca5565b915082156113c45760005b8451518110156113c25760008560000151828151811061134557634e487b7160e01b600052603260045260246000fd5b6020026020010151905060008890508060405160200161136591906149f8565b604051602081830303815290604052805190602001208260405160200161138c91906149f8565b6040516020818303038152906040528051906020012014156113ad57600193505b505080806113ba90615daa565b915050611315565b505b6000821161140a5760405162461bcd60e51b8152602060048201526013602482015272546f74616c2063616e2774206265207a65726f60681b604482015260640161094d565b801561143357606461141c8484615cf6565b6114269190615ce2565b6114309083615d15565b91505b61145e604051806040016040528060098152602001681d1bdd185b0b9cdbdb60ba1b81525083612a22565b5095945050505050565b6008546000906001600160a01b031633146114d05760405162461bcd60e51b815260206004820152602260248201527f6f6e6c79206f776e65722063616e20736574207469636b65742073657474696e604482015261677360f01b606482015260840161094d565b85516114e3906009906020890190613f3f565b50600a859055600b849055600c839055600d829055604051611507906009906156a9565b60405180910390207ffbbdd1f5038f9382220f50f0df9cb5a908532a6bd5489fdea61acbdb42545181604051611562906020808252601190820152707365745469636b657453657474696e677360781b604082015260600190565b60405180910390a250600195945050505050565b6008546000906001600160a01b031633146115d35760405162461bcd60e51b815260206004820181905260248201527f6f6e6c79206f776e65722063616e20616464206e657720646973636f756e7473604482015260640161094d565b6040805180820182528481526020810184905290516001600160a01b038616907f8b1723fbe6ec4f44f948afaa8abe7d5b1abe219f931beadf499a09b477dc256490611620908490615b14565b60405180910390a26001600160a01b0385166000908152600f60209081526040909120825180518493611657928492910190613fc3565b506020919091015160019182015595945050505050565b60196020526000908152604090208054610aa190615d6f565b60606001805461085590615d6f565b600e546060906116a560075490565b106116eb5760405162461bcd60e51b8152602060048201526016602482015275736f7272792c20776527726520736f6c64206f75742160501b604482015260640161094d565b6000805b835181101561174b5761172d3385838151811061171c57634e487b7160e01b600052603260045260246000fd5b6020026020010151604001516111bf565b6117379083615ca5565b91508061174381615daa565b9150506116ef565b50803410156117a65760405162461bcd60e51b815260206004820152602160248201527f4e6f7420656e6f756768204554482073656e743b20636865636b2070726963656044820152602160f81b606482015260840161094d565b604080516020810190915260008082525b845181101561186d5760006117f48683815181106117e557634e487b7160e01b600052603260045260246000fd5b60200260200101513334612a6b565b9050336001600160a01b03167f0c07f6ebe205f35ff5fbe0cc50cc753f4bfeb30876232fe4d67168eb3349600b8260405161185291815260406020820181905260099082015268135a5b9d195908125960ba1b606082015260800190565b60405180910390a2508061186581615daa565b9150506117b7565b509392505050565b6001600160a01b0382163314156118ce5760405162461bcd60e51b815260206004820152601960248201527f4552433732313a20617070726f766520746f2063616c6c657200000000000000604482015260640161094d565b3360008181526005602090815260408083206001600160a01b03871680855290835292819020805460ff191686151590811790915590519081529192917f17307eab39ab6107e8899845ad3d59bd9653f200f220920489ca2b5937696c31910160405180910390a35050565b600081815260186020526040812054606091906119639060e81b6001600160e81b031916613242565b60008481526018602052604090205461198f906301000000900460e81b6001600160e81b031916613242565b6000858152601860205260409020546119bb90600160301b900460e81b6001600160e81b031916613242565b6000868152601860205260409020546119e7906301000000900460e81b6001600160e81b031916613242565b600087815260186020526040902054611a1390600160481b900460e81b6001600160e81b031916613242565b600088815260186020526040902054611a3f90600160601b900460e81b6001600160e81b031916613242565b604051602001611a5496959493929190614a14565b60408051601f198184030181529190529392505050565b611a75338361278b565b611a915760405162461bcd60e51b815260040161094d90615964565b611a9d848484846133e4565b50505050565b6008546000906001600160a01b03163314611b0a5760405162461bcd60e51b815260206004820152602160248201527f6f6e6c79206f776e65722063616e20736574207469636b6574206f7074696f6e6044820152607360f81b606482015260840161094d565b81600960070184604051611b1e91906149f8565b9081526040519081900360200190205550600192915050565b6000818152600260205260409020546060906001600160a01b0316611b8a5760405162461bcd60e51b81526020600482015260096024820152681b9bdd08195e1a5cdd60ba1b604482015260640161094d565b6000611b9583613417565b604051602001611ba59190615589565b60405160208183030381529060405290506000604051602001611c01907f546869732069732061207469636b657420746f20455448447562616920636f6e81526c3332b932b731b290191819189760991b6020820152602d0190565b60408051601f19818403018152828201909152600682526573766720257360d01b60208301529150611c3b90611c3686613530565b6137f9565b6000611c4e611c4986613530565b61383e565b9050611cb38383611c5e88613417565b6000898152601960205260409020611c896014611c7a8c610f5f565b6001600160a01b0316906139b1565b86604051602001611c9f96959493929190614cea565b60405160208183030381529060405261383e565b604051602001611cc391906155c2565b6040516020818303038152906040529350505050919050565b6008546000906001600160a01b03163314611d395760405162461bcd60e51b815260206004820152601c60248201527f6f6e6c79206f776e65722063616e2063616e63656c207469636b657400000000604482015260640161094d565b60008381526017602052604090819020805484151560ff199091161790555183907f62aeea8f4c88e40d6743a3f7a2ce29a971e84a7481542772564c8fbb85caf92990611db0908515158152604060208201819052600d908201526c18d85b98d95b081d1a58dad95d609a1b606082015260800190565b60405180910390a250919050565b601360205260009081526040902080548190611dd990615d6f565b80601f0160208091040260200160405190810160405280929190818152602001828054611e0590615d6f565b8015611e525780601f10611e2757610100808354040283529160200191611e52565b820191906000526020600020905b815481529060010190602001808311611e3557829003601f168201915b505050505090806001018054611e6790615d6f565b80601f0160208091040260200160405190810160405280929190818152602001828054611e9390615d6f565b8015611ee05780601f10611eb557610100808354040283529160200191611ee0565b820191906000526020600020905b815481529060010190602001808311611ec357829003601f168201915b505050505090806002018054611ef590615d6f565b80601f0160208091040260200160405190810160405280929190818152602001828054611f2190615d6f565b8015611f6e5780601f10611f4357610100808354040283529160200191611f6e565b820191906000526020600020905b815481529060010190602001808311611f5157829003601f168201915b505050505090806003018054611f8390615d6f565b80601f0160208091040260200160405190810160405280929190818152602001828054611faf90615d6f565b8015611ffc5780601f10611fd157610100808354040283529160200191611ffc565b820191906000526020600020905b815481529060010190602001808311611fdf57829003601f168201915b50505050509080600401805461201190615d6f565b80601f016020809104026020016040519081016040528092919081815260200182805461203d90615d6f565b801561208a5780601f1061205f5761010080835404028352916020019161208a565b820191906000526020600020905b81548152906001019060200180831161206d57829003601f168201915b50505050509080600501805461209f90615d6f565b80601f01602080910402602001604051908101604052809291908181526020018280546120cb90615d6f565b80156121185780601f106120ed57610100808354040283529160200191612118565b820191906000526020600020905b8154815290600101906020018083116120fb57829003601f168201915b50505050509080600601805461212d90615d6f565b80601f016020809104026020016040519081016040528092919081815260200182805461215990615d6f565b80156121a65780601f1061217b576101008083540402835291602001916121a6565b820191906000526020600020905b81548152906001019060200180831161218957829003601f168201915b5050505050908060070180546121bb90615d6f565b80601f01602080910402602001604051908101604052809291908181526020018280546121e790615d6f565b80156122345780601f1061220957610100808354040283529160200191612234565b820191906000526020600020905b81548152906001019060200180831161221757829003601f168201915b50505050509080600801805461224990615d6f565b80601f016020809104026020016040519081016040528092919081815260200182805461227590615d6f565b80156122c25780601f10612297576101008083540402835291602001916122c2565b820191906000526020600020905b8154815290600101906020018083116122a557829003601f168201915b5050505050908060090180546122d790615d6f565b80601f016020809104026020016040519081016040528092919081815260200182805461230390615d6f565b80156123505780601f1061232557610100808354040283529160200191612350565b820191906000526020600020905b81548152906001019060200180831161233357829003601f168201915b505050505090508a565b6009806000016040518060a001604052908160008201805461237b90615d6f565b80601f01602080910402602001604051908101604052809291908181526020018280546123a790615d6f565b80156123f45780601f106123c9576101008083540402835291602001916123f4565b820191906000526020600020905b8154815290600101906020018083116123d757829003601f168201915b505050918352505060018201546020820152600282015460408201526003820154606082015260049091015460809091015260059091015482565b6008546000906001600160a01b0316331461248c5760405162461bcd60e51b815260206004820152601e60248201527f6f6e6c79206f776e65722063616e206d61726b206173207363616e6e65640000604482015260640161094d565b60008381526016602052604090819020805484151560ff199091161790555183907f62aeea8f4c88e40d6743a3f7a2ce29a971e84a7481542772564c8fbb85caf92990611db0908515158152604060208201819052600b908201526a1cd8d85b881d1a58dad95d60aa1b606082015260800190565b6008546000906001600160a01b031633148061259c57506040516331a9108f60e11b8152600481018490523090636352211e9060240160206040518083038186803b15801561254f57600080fd5b505afa158015612563573d6000803e3d6000fd5b505050506040513d601f19601f820116820180604052508101906125879190614325565b6001600160a01b0316336001600160a01b0316145b6125b85760405162461bcd60e51b815260040161094d90615907565b60008381526013602090815260409091208351805185936125dd928492910190613f3f565b5060208281015180516125f69260018501920190613f3f565b5060408201518051612612916002840191602090910190613f3f565b506060820151805161262e916003840191602090910190613f3f565b506080820151805161264a916004840191602090910190613f3f565b5060a08201518051612666916005840191602090910190613f3f565b5060c08201518051612682916006840191602090910190613f3f565b5060e0820151805161269e916007840191602090910190613f3f565b5061010082015180516126bb916008840191602090910190613f3f565b5061012082015180516126d8916009840191602090910190613f3f565b50905050827f3dea8f5fa840171ea41735496c373b9fa8ec854b7b46fa2943119b14422fbe1d8360405161270c91906159b5565b60405180910390a250600192915050565b600081815260046020526040902080546001600160a01b0319166001600160a01b038416908117909155819061275282610f5f565b6001600160a01b03167f8c5be1e5ebec7d5bd14f71427d1e84f3dd0314c0f7b2291e5b200ac8c7c3b92560405160405180910390a45050565b6000818152600260205260408120546001600160a01b03166128045760405162461bcd60e51b815260206004820152602c60248201527f4552433732313a206f70657261746f7220717565727920666f72206e6f6e657860448201526b34b9ba32b73a103a37b5b2b760a11b606482015260840161094d565b600061280f83610f5f565b9050806001600160a01b0316846001600160a01b0316148061284a5750836001600160a01b031661283f846108d8565b6001600160a01b0316145b8061287a57506001600160a01b0380821660009081526005602090815260408083209388168352929052205460ff165b949350505050565b826001600160a01b031661289582610f5f565b6001600160a01b0316146128fd5760405162461bcd60e51b815260206004820152602960248201527f4552433732313a207472616e73666572206f6620746f6b656e2074686174206960448201526839903737ba1037bbb760b91b606482015260840161094d565b6001600160a01b03821661295f5760405162461bcd60e51b8152602060048201526024808201527f4552433732313a207472616e7366657220746f20746865207a65726f206164646044820152637265737360e01b606482015260840161094d565b61296a60008261271d565b6001600160a01b0383166000908152600360205260408120805460019290612993908490615d15565b90915550506001600160a01b03821660009081526003602052604081208054600192906129c1908490615ca5565b909155505060008181526002602052604080822080546001600160a01b0319166001600160a01b0386811691821790925591518493918716917fddf252ad1be2c89b69c2b068fc378daa952ba7f163c4a11628f55a4df523b3ef91a4505050565b612a678282604051602401612a38929190615893565b60408051601f198184030181529190526020810180516001600160e01b03166309710a9d60e41b179052613b43565b5050565b6000612a786156ce613b64565b612a9f604051806040016040528060058152602001646d6d20257360d81b81525083612a22565b604080518082019091526008815267656d61696c20257360c01b6020820152845151612acb91906137f9565b612ad6618235613b64565b6001600160a01b0383166000908152600f60209081526040808320815181546060948102820185018452928101838152859491938492849190879085015b82821015612bc0578382906000526020600020018054612b3390615d6f565b80601f0160208091040260200160405190810160405280929190818152602001828054612b5f90615d6f565b8015612bac5780601f10612b8157610100808354040283529160200191612bac565b820191906000526020600020905b815481529060010190602001808311612b8f57829003601f168201915b505050505081526020019060010190612b14565b5050505081526020016001820154815250509050612be2600780546001019055565b6000612bed60075490565b9050612bf98682613bac565b6000612c06436001615ca5565b885151604051612c1f9240918a913091906020016149ab565b60408051601f19818403018152918152815160209283012060008581526018909352908220805462ffffff1916600283811a60e890811b60ff60e81b16600186901a60f01b60ff60f01b166001600160f81b031987891a60f81b161717901c91909117909155909250612c93904390615ca5565b89516101200151604051612cb09240918b913091906020016149ab565b60408051601f19818403018152918152815160209283012060008681526018909352908220805465ffffff00000019166301000000600284901a60e890811b60ff60e81b16600186901a60f01b60ff60f01b166001600160f81b031987891a60f81b161717901c021790559150612d28436003615ca5565b4089308c6000015160200151604051602001612d4794939291906149ab565b60408051601f19818403018152918152815160209283012060008781526018909352908220805468ffffff0000000000001916600160301b600284901a60e890811b60ff60e81b16600186901a60f01b60ff60f01b166001600160f81b031987891a60f81b161717901c021790559150612dc2436004615ca5565b408a308d6000015160400151604051602001612de194939291906149ab565b60408051601f1981840301815291815281516020928301206000888152601890935290822080546bffffff0000000000000000001916600160481b600284901a60e890811b60ff60e81b16600186901a60f01b60ff60f01b166001600160f81b031987891a60f81b161717901c021790559150612e5f436032615ca5565b60408051914060208301526bffffffffffffffffffffffff1960608e811b8216928401929092523090911b16605482015263666f6f3560e01b6068820152606c0160408051808303601f190181529181528151602092830120600089815260188452828120805462ffffff60601b1916600160601b84841a60f81b6001600160f81b03191660ff60f01b600187901a60f01b161760ff60e81b600287901a60e890811b9190911691909117901c021790558f51601385529290208251805192955092939092612f349284929190910190613f3f565b506020828101518051612f4d9260018501920190613f3f565b5060408201518051612f69916002840191602090910190613f3f565b5060608201518051612f85916003840191602090910190613f3f565b5060808201518051612fa1916004840191602090910190613f3f565b5060a08201518051612fbd916005840191602090910190613f3f565b5060c08201518051612fd9916006840191602090910190613f3f565b5060e08201518051612ff5916007840191602090910190613f3f565b506101008201518051613012916008840191602090910190613f3f565b50610120820151805161302f916009840191602090910190613f3f565b5050506020808d015160008881526014835260409020815161305693919290910190613f3f565b5060608c015160008781526015602090815260408083208451815490151560ff199182161782559483015160019091015560168252808320805485169055601782528083208054909416909355828f0151601982529290912082516130c19391929190910190613f3f565b5060006040518060c0016040528089815260200160096000016040518060a00160405290816000820180546130f590615d6f565b80601f016020809104026020016040519081016040528092919081815260200182805461312190615d6f565b801561316e5780601f106131435761010080835404028352916020019161316e565b820191906000526020600020905b81548152906001019060200180831161315157829003601f168201915b5050505050815260200160018201548152602001600282015481526020016003820154815260200160048201548152505081526020018d6001600160a01b031681526020018a81526020018881526020018e604001518152509050806040516131d79190615607565b60405180910390207f87263f48075643d59fa5fc40fd9c2395af29b1e07714fb682a02e304a3549236604051613229906020808252600890820152676d696e744974656d60c01b604082015260600190565b60405180910390a250949b9a5050505050505050505050565b6040805160068082528183019092526060916000919060208201818036833701905050905060005b60038110156133dd576f181899199a1a9b1b9c1cb0b131b232b360811b8482600381106132a757634e487b7160e01b600052603260045260246000fd5b1a600f16601081106132c957634e487b7160e01b600052603260045260246000fd5b1a60f81b826132d9836002615cf6565b6132e4906001615ca5565b8151811061330257634e487b7160e01b600052603260045260246000fd5b60200101906001600160f81b031916908160001a9053506f181899199a1a9b1b9c1cb0b131b232b360811b600485836003811061334f57634e487b7160e01b600052603260045260246000fd5b1a60f81b6001600160f81b031916901c60f81c600f1660ff166010811061338657634e487b7160e01b600052603260045260246000fd5b1a60f81b82613396836002615cf6565b815181106133b457634e487b7160e01b600052603260045260246000fd5b60200101906001600160f81b031916908160001a905350806133d581615daa565b91505061326a565b5092915050565b6133ef848484612882565b6133fb84848484613cee565b611a9d5760405162461bcd60e51b815260040161094d906158b5565b60608161343b5750506040805180820190915260018152600360fc1b602082015290565b8160005b8115613465578061344f81615daa565b915061345e9050600a83615ce2565b915061343f565b6000816001600160401b0381111561348d57634e487b7160e01b600052604160045260246000fd5b6040519080825280601f01601f1916602001820160405280156134b7576020820181803683370190505b5090505b841561287a576134cc600183615d15565b91506134d9600a86615dc5565b6134e4906030615ca5565b60f81b81838151811061350757634e487b7160e01b600052603260045260246000fd5b60200101906001600160f81b031916908160001a905350613529600a86615ce2565b94506134bb565b60608060606040516020016135549068776f726b73686f707360b81b815260090190565b60408051601f198184030181528282528051602091820120600088815260198352929092209192613586929101614cde565b6040516020818303038152906040528051906020012014156135cb5760405180604001604052806009815260200168576f726b73686f707360b81b815250915061379e565b6040516d686f74656c576f726b73686f707360901b6020820152602e0160408051601f19818403018152828252805160209182012060008881526019835292909220919261361a929101614cde565b6040516020818303038152906040528051906020012014156136585750604080518082019091526005815264121bdd195b60da1b602082015261379e565b60405173776f726b73686f7073416e64507265506172747960601b602082015260340160408051601f1981840301815282825280516020918201206000888152601983529290922091926136ad929101614cde565b604051602081830303815290604052805190602001201415613706576040518060400160405280601781526020017f576f726b73686f70732026262070726570617274696573000000000000000000815250915061379e565b6040517f686f74656c576f726b73686f7073416e64507265506172747900000000000000602082015260390160408051601f198184030181528282528051602091820120600088815260198352929092209192613764929101614cde565b60405160208183030381529060405280519060200120141561379e5750604080518082019091526005815264121bdd195b60da1b60208201525b60006137a985613dfb565b905060006137b68661193a565b60008781526013602090815260409182902091516137df93928892889288926009019101614e72565b60408051601f198184030181529190529695505050505050565b612a67828260405160240161380f92919061578a565b60408051601f198184030181529190526020810180516001600160e01b0316634b5c427760e01b179052613b43565b606081516000141561385e57505060408051602081019091526000815290565b6000604051806060016040528060408152602001615e67604091399050600060038451600261388d9190615ca5565b6138979190615ce2565b6138a2906004615cf6565b905060006138b1826020615ca5565b6001600160401b038111156138d657634e487b7160e01b600052604160045260246000fd5b6040519080825280601f01601f191660200182016040528015613900576020820181803683370190505b509050818152600183018586518101602084015b8183101561396c576003830192508251603f8160121c168501518253600182019150603f81600c1c168501518253600182019150603f8160061c168501518253600182019150603f8116850151825350600101613914565b6003895106600181146139865760028114613997576139a3565b613d3d60f01b6001198301526139a3565b603d60f81b6000198301525b509398975050505050505050565b606060006139c0836002615cf6565b6139cb906002615ca5565b6001600160401b038111156139f057634e487b7160e01b600052604160045260246000fd5b6040519080825280601f01601f191660200182016040528015613a1a576020820181803683370190505b509050600360fc1b81600081518110613a4357634e487b7160e01b600052603260045260246000fd5b60200101906001600160f81b031916908160001a905350600f60fb1b81600181518110613a8057634e487b7160e01b600052603260045260246000fd5b60200101906001600160f81b031916908160001a9053506000613aa4846002615cf6565b613aaf906001615ca5565b90505b600181111561186d576f181899199a1a9b1b9c1cb0b131b232b360811b85600f1660108110613af157634e487b7160e01b600052603260045260246000fd5b1a60f81b828281518110613b1557634e487b7160e01b600052603260045260246000fd5b60200101906001600160f81b031916908160001a90535060049490941c93613b3c81615d58565b9050613ab2565b80516a636f6e736f6c652e6c6f67602083016000808483855afa5050505050565b613ba981604051602401613b7a91815260200190565b60408051601f198184030181529190526020810180516001600160e01b031663f5b1bba960e01b179052613b43565b50565b6001600160a01b038216613c025760405162461bcd60e51b815260206004820181905260248201527f4552433732313a206d696e7420746f20746865207a65726f2061646472657373604482015260640161094d565b6000818152600260205260409020546001600160a01b031615613c675760405162461bcd60e51b815260206004820152601c60248201527f4552433732313a20746f6b656e20616c7265616479206d696e74656400000000604482015260640161094d565b6001600160a01b0382166000908152600360205260408120805460019290613c90908490615ca5565b909155505060008181526002602052604080822080546001600160a01b0319166001600160a01b03861690811790915590518392907fddf252ad1be2c89b69c2b068fc378daa952ba7f163c4a11628f55a4df523b3ef908290a45050565b60006001600160a01b0384163b15613df057604051630a85bd0160e11b81526001600160a01b0385169063150b7a0290613d3290339089908890889060040161573a565b602060405180830381600087803b158015613d4c57600080fd5b505af1925050508015613d7c575060408051601f3d908101601f19168201909252613d7991810190614736565b60015b613dd6573d808015613daa576040519150601f19603f3d011682016040523d82523d6000602084013e613daf565b606091505b508051613dce5760405162461bcd60e51b815260040161094d906158b5565b805181602001fd5b6001600160e01b031916630a85bd0160e11b14905061287a565b506001949350505050565b606081613e1f5750506040805180820190915260018152600360fc1b602082015290565b8160005b8115613e495780613e3381615daa565b9150613e429050600a83615ce2565b9150613e23565b6000816001600160401b03811115613e7157634e487b7160e01b600052604160045260246000fd5b6040519080825280601f01601f191660200182016040528015613e9b576020820181803683370190505b509050815b8515613f3657613eb1600182615d15565b90506000613ec0600a88615ce2565b613ecb90600a615cf6565b613ed59088615d15565b613ee0906030615cbd565b905060008160f81b905080848481518110613f0b57634e487b7160e01b600052603260045260246000fd5b60200101906001600160f81b031916908160001a905350613f2d600a89615ce2565b97505050613ea0565b50949350505050565b828054613f4b90615d6f565b90600052602060002090601f016020900481019282613f6d5760008555613fb3565b82601f10613f8657805160ff1916838001178555613fb3565b82800160010185558215613fb3579182015b82811115613fb3578251825591602001919060010190613f98565b50613fbf92915061401c565b5090565b828054828255906000526020600020908101928215614010579160200282015b828111156140105782518051614000918491602090910190613f3f565b5091602001919060010190613fe3565b50613fbf929150614031565b5b80821115613fbf576000815560010161401d565b80821115613fbf576000614045828261404e565b50600101614031565b50805461405a90615d6f565b6000825580601f1061406a575050565b601f016020900490600052602060002090810190613ba9919061401c565b60006001600160401b038311156140a1576140a1615e05565b6140b4601f8401601f1916602001615c52565b90508281528383830111156140c857600080fd5b828260208301376000602084830101529392505050565b803580151581146140ef57600080fd5b919050565b600082601f830112614104578081fd5b61411383833560208501614088565b9392505050565b6000610140828403121561412c578081fd5b614134615c07565b905081356001600160401b038082111561414d57600080fd5b614159858386016140f4565b8352602084013591508082111561416f57600080fd5b61417b858386016140f4565b6020840152604084013591508082111561419457600080fd5b6141a0858386016140f4565b604084015260608401359150808211156141b957600080fd5b6141c5858386016140f4565b606084015260808401359150808211156141de57600080fd5b6141ea858386016140f4565b608084015260a084013591508082111561420357600080fd5b61420f858386016140f4565b60a084015260c084013591508082111561422857600080fd5b614234858386016140f4565b60c084015260e084013591508082111561424d57600080fd5b614259858386016140f4565b60e08401526101009150818401358181111561427457600080fd5b614280868287016140f4565b83850152506101209150818401358181111561429b57600080fd5b6142a7868287016140f4565b8385015250505092915050565b6000604082840312156142c5578081fd5b604051604081018181106001600160401b03821117156142e7576142e7615e05565b6040529050806142f6836140df565b8152602083013560208201525092915050565b60006020828403121561431a578081fd5b813561411381615e1b565b600060208284031215614336578081fd5b815161411381615e1b565b600080600060608486031215614355578182fd5b833561436081615e1b565b9250602084013561437081615e1b565b929592945050506040919091013590565b60008060408385031215614393578182fd5b823561439e81615e1b565b915060208301356143ae81615e1b565b809150509250929050565b600080600060608486031215614355578081fd5b600080600080608085870312156143e2578182fd5b84356143ed81615e1b565b935060208501356143fd81615e1b565b92506040850135915060608501356001600160401b0381111561441e578182fd5b8501601f8101871361442e578182fd5b61443d87823560208401614088565b91505092959194509250565b60008060006060848603121561445d578081fd5b833561446881615e1b565b92506020848101356001600160401b0380821115614484578384fd5b818701915087601f830112614497578384fd5b81356144aa6144a582615c82565b615c52565b8082825285820191508585018b878560051b88010111156144c9578788fd5b875b84811015614502578135868111156144e157898afd5b6144ef8e8a838b01016140f4565b85525092870192908701906001016144cb565b5050809750505050505050604084013590509250925092565b6000806040838503121561452d578182fd5b823561453881615e1b565b9150614546602084016140df565b90509250929050565b60008060408385031215614561578182fd5b823561456c81615e1b565b915060208301356001600160401b03811115614586578182fd5b614592858286016140f4565b9150509250929050565b600080604083850312156145ae578182fd5b82356145b981615e1b565b946020939093013593505050565b600060208083850312156145d9578182fd5b82356001600160401b03808211156145ef578384fd5b818501915085601f830112614602578384fd5b81356146106144a582615c82565b80828252858201915085850189878560051b880101111561462f578788fd5b875b848110156146f35781358681111561464757898afd5b870160a0818d03601f1901121561465c57898afd5b614664615c30565b8982013588811115614674578b8cfd5b6146828e8c8386010161411a565b825250604082013588811115614696578b8cfd5b6146a48e8c838601016140f4565b8b83015250606080830135898111156146bb578c8dfd5b6146c98f8d838701016140f4565b6040840152506146dc8e608085016142b4565b908201528552509287019290870190600101614631565b50909998505050505050505050565b600060208284031215614713578081fd5b5035919050565b60006020828403121561472b578081fd5b813561411381615e30565b600060208284031215614747578081fd5b815161411381615e30565b60008060408385031215614764578182fd5b82356001600160401b03811115614779578283fd5b614785858286016140f4565b95602094909401359450505050565b600080600080600060a086880312156147ab578283fd5b85356001600160401b038111156147c0578384fd5b6147cc888289016140f4565b9860208801359850604088013597606081013597506080013595509350505050565b60008060408385031215614800578182fd5b82359150614546602084016140df565b600080600060608486031215614824578081fd5b83359250614834602085016140df565b9150604084013590509250925092565b60008060408385031215614856578182fd5b8235915060208301356001600160401b03811115614872578182fd5b6145928582860161411a565b600081518051614892818660208501615d2c565b601f19601f8201168501915050602083015181526040830151602082015260608301516040820152608083015160608201526080810191505092915050565b600081518084526148e9816020860160208601615d2c565b601f01601f19169290920160200192915050565b6000815161490f818560208601615d2c565b601f01601f19169290920192915050565b60008151614932818560208601615d2c565b9290920192915050565b6000815461494981615d6f565b600182811680156149615760018114614972576149a1565b60ff198416875282870194506149a1565b8560005260208060002060005b858110156149985781548a82015290840190820161497f565b50505082870194505b5050505092915050565b84815260006bffffffffffffffffffffffff19808660601b166020840152808560601b1660348401525082516149e8816048850160208701615d2c565b9190910160480195945050505050565b60008251614a0a818460208701615d2c565b9190910192915050565b60008751614a26818460208c01615d2c565b80830190507f2220706f696e74733d223235352e393233312c3231322e3332203132372e393681527f31312c30203132352e313636312c392e35203132352e313636312c3238352e3160208201527f3638203132372e393631312c3238372e3935382022202f3e3c706f6c79676f6e6040820152672066696c6c3d222360c01b60608201528751614abe816068840160208c01615d2c565b7f2220706f696e74733d22302c3231322e3332203132372e3936322c3238372e39606892909101918201527f3539203132372e3936322c3135342e313538203132372e3936322c302022202f6088820152703e3c706f6c79676f6e2066696c6c3d222360781b60a88201528651614b3c8160b9840160208b01615d2c565b614cd0614cca614c5e614c58614bf5614bef60b9878901017f2220706f696e74733d223235352e393939312c3233362e35383636203132372e81527f393631312c3331322e31383636203132362e333836312c3331342e313036362060208201527f3132362e333836312c3431322e33303536203132372e393631312c3431362e3960408201527f3036362022202f3e203c706f6c79676f6e2066696c6c3d222300000000000000606082015260790190565b8c614920565b7f2220706f696e74733d223132372e3936322c3431362e39303532203132372e3981527f36322c3331322e3138353220302c3233362e353835322022202f3e3c706f6c7960208201526a676f6e2066696c6c3d222360a81b6040820152604b0190565b89614920565b7f2220706f696e74733d223132372e393631312c3238372e39353737203235352e81527f393231312c3231322e33323037203132372e393631312c3135342e313538372060208201527322202f3e3c706f6c79676f6e2066696c6c3d222360601b604082015260540190565b86614920565b9a9950505050505050505050565b6000614113828461493c565b683d913730b6b2911d1160b91b81528651600090614d0f816009850160208c01615d2c565b71111610113232b9b1b934b83a34b7b7111d1160711b6009918401918201528751614d4181601b840160208c01615d2c565b7f222c202265787465726e616c5f75726c223a2268747470733a2f2f7777772e65601b92909101918201527574686475626169636f6e662e6f72672f746f6b656e2f60501b603b8201528651614d9e816051840160208b01615d2c565b7f222c202261747472696275746573223a205b7b2274726169745f74797065223a6051929091019182015275101137b83a34b7b739911610113b30b63ab2911d101160511b6071820152614e65614e57614cca614e1e614c58614e04608787018c61493c565b6d113eae96101137bbb732b9111d1160911b8152600e0190565b7f222c2022696d616765223a2022646174613a696d6167652f7376672b786d6c3b81526618985cd94d8d0b60ca1b602082015260270190565b61227d60f01b815260020190565b9998505050505050505050565b7f3c7376672077696474683d2236303622206865696768743d223333342220786d81527f6c6e733d22687474703a2f2f7777772e77332e6f72672f323030302f7376672260208201527f3e3c67207472616e73666f726d3d226d617472697828302e373230363432343860408201527f2c302c302c302e37323036343234382c31372e3930363439312c31342e30303960608201527534333429223e3c706f6c79676f6e2066696c6c3d222360501b608082015260008651614f3b816096850160208b01615d2c565b7f2220706f696e74733d22302e303030392c3231322e33323038203132372e39366096918401918201527f30392c3238372e39353738203132372e393630392c3135342e3135383820222060b68201527f2f3e3c2f673e3c74657874207374796c653d22666f6e742d7374796c653a6e6f60d68201527f726d616c3b666f6e742d7765696768743a6e6f726d616c3b666f6e742d73697a60f68201527f653a343070783b6c696e652d6865696768743a312e32353b666f6e742d66616d6101168201527f696c793a73616e732d73657269663b66696c6c3a233030303030303b66696c6c6101368201527f2d6f7061636974793a313b7374726f6b653a6e6f6e652220783d223234312e396101568201527f313535362220793d223134332e303131373822203e436f6e666572656e63653c6101768201527f2f746578743e203c74657874207374796c653d22666f6e742d7374796c653a6e6101968201527f6f726d616c3b666f6e742d7765696768743a6e6f726d616c3b666f6e742d73696101b68201527f7a653a343070783b6c696e652d6865696768743a312e32353b666f6e742d66616101d68201527f6d696c793a73616e732d73657269663b66696c6c3a233030303030303b66696c6101f68201527f6c2d6f7061636974793a313b7374726f6b653a6e6f6e652220783d223234312e610216820152741c989a9a9b11103c9e91189c19171a9a191c9b911f60591b61023682015261557d6153f66153f061536a614c586152dd614bef61517861024b89018f614920565b600080516020615e478339815191528152600080516020615ec78339815191526020820152600080516020615f078339815191526040820152600080516020615ee78339815191526060820152600080516020615ea783398151915260808201527f2e39313535362220793d223232322e3832353834223e3c2f746578743e203c7460a08201527f657874207374796c653d22666f6e742d7374796c653a6e6f726d616c3b666f6e60c08201527f742d7765696768743a6e6f726d616c3b666f6e742d73697a653a343070783b6c60e08201527f696e652d6865696768743a312e32353b666f6e742d66616d696c793a73616e736101008201527f2d73657269663b66696c6c3a233030303030303b66696c6c2d6f7061636974796101208201527f3a313b7374726f6b653a6e6f6e652220783d223234312e39313535362220793d6101408201526b11191b1b17191c199a1a911f60a11b61016082015261016c0190565b600080516020615e478339815191528152600080516020615ec78339815191526020820152600080516020615f078339815191526040820152600080516020615ee78339815191526060820152600080516020615ea783398151915260808201527f2e39313535362220793d2238372e313634363838223e2300000000000000000060a082015260b70190565b600080516020615e478339815191528152600080516020615ec78339815191526020820152600080516020615f078339815191526040820152600080516020615ee78339815191526060820152600080516020615ea7833981519152608082015275b8e4c4d4d4d88881e4f488ccc4d4b8e0c8e4dcc488f9604e1b60a082015260b70190565b8661493c565b600080516020615e478339815191528152600080516020615ec78339815191526020820152600080516020615f078339815191526040820152600080516020615ee78339815191526060820152600080516020615ea783398151915260808201527f2e39313535362220793d2233392e323933353536223e4554484475626169205460a08201527f69636b65743c2f746578743e3c72656374207374796c653d2266696c6c3a6e6f60c08201527f6e653b7374726f6b653a233030303030303b7374726f6b652d77696474683a3360e08201527f2e303537323b7374726f6b652d6d697465726c696d69743a343b7374726f6b656101008201527f2d6461736861727261793a6e6f6e65222069643d2272656374323935302220776101208201527f696474683d223630322e393734323422206865696768743d223333312e3634366101408201527f38352220783d22302220793d2230222072793d2231302e30373838343222202f610160820152661f1e17b9bb339f60c91b6101808201526101870190565b98975050505050505050565b704554484475626169205469636b6574202360781b8152600082516155b5816011850160208701615d2c565b9190910160110192915050565b7f646174613a6170706c69636174696f6e2f6a736f6e3b6261736536342c0000008152600082516155fa81601d850160208701615d2c565b91909101601d0192915050565b815180518051600092916020908101918591855b8281101561564d57845180516156348187868501615d2c565b95830195601f01601f191694909401935060010161561b565b5080850151835261557d61569f61569261568561566f858801868e015161487e565b60408d01516001600160a01b0316815260200190565b60608c0151815260200190565b60808b0151815260200190565b60a08a01516148fd565b60008083546156b781615d6f565b600182811680156156cf57600181146156e15761570b565b60ff198416875260208701945061570b565b8786526020808720875b858110156157045781548a8201529084019082016156eb565b8901965050505b508601548352505060028401546020820152600384015460408201526004909301546060840152505060800190565b6001600160a01b038581168252841660208201526040810183905260806060820181905260009061576d908301846148d1565b9695505050505050565b60208152600061411360208301846148d1565b60408152600061579d60408301856148d1565b82810360208401526157af81856148d1565b95945050505050565b60006101408083526157cc8184018e6148d1565b905082810360208401526157e0818d6148d1565b905082810360408401526157f4818c6148d1565b90508281036060840152615808818b6148d1565b9050828103608084015261581c818a6148d1565b905082810360a084015261583081896148d1565b905082810360c084015261584481886148d1565b905082810360e084015261585881876148d1565b905082810361010084015261586d81866148d1565b905082810361012084015261588281856148d1565b9d9c50505050505050505050505050565b6040815260006158a660408301856148d1565b90508260208301529392505050565b60208082526032908201527f4552433732313a207472616e7366657220746f206e6f6e20455243373231526560408201527131b2b4bb32b91034b6b83632b6b2b73a32b960711b606082015260800190565b6020808252603b908201527f6f6e6c7920636f6e7472616374206f776e6572206f72207469636b6574206f7760408201527f6e65722063616e20726573657420726573656c6c207374617475730000000000606082015260800190565b60208082526031908201527f4552433732313a207472616e736665722063616c6c6572206973206e6f74206f6040820152701ddb995c881b9bdc88185c1c1c9bdd9959607a1b606082015260800190565b60408152600082516101408060408501526159d46101808501836148d1565b91506020850151603f19808685030160608701526159f284836148d1565b93506040870151915080868503016080870152615a0f84836148d1565b935060608701519150808685030160a0870152615a2c84836148d1565b935060808701519150808685030160c0870152615a4984836148d1565b935060a08701519150808685030160e0870152615a6684836148d1565b935060c08701519150610100818786030181880152615a8585846148d1565b945060e08801519250610120828887030181890152615aa486856148d1565b9550818901519350828887030185890152615abf86856148d1565b9550808901519450505080868503016101608701525050615ae082826148d1565b915050828103602084015261287a816012815271757064617465417474656e646565496e666f60701b602082015260400190565b60408152600060808201835160408085015281815180845260a08601915060a08160051b870101935060208084019350855b82811015615b7457609f19888703018452615b628686516148d1565b95509381019392810192600101615b46565b5087810151606088015286850390870152505060128252507139b2ba103234b9b1b7bab73a10313abcb2b960711b60208201526040810161287a565b604081526000835160a06040840152615bcc60e08401826148d1565b90506020850151606084015260408501516080840152606085015160a0840152608085015160c0840152809150508260208301529392505050565b60405161014081016001600160401b0381118282101715615c2a57615c2a615e05565b60405290565b604051608081016001600160401b0381118282101715615c2a57615c2a615e05565b604051601f8201601f191681016001600160401b0381118282101715615c7a57615c7a615e05565b604052919050565b60006001600160401b03821115615c9b57615c9b615e05565b5060051b60200190565b60008219821115615cb857615cb8615dd9565b500190565b600060ff821660ff84168060ff03821115615cda57615cda615dd9565b019392505050565b600082615cf157615cf1615def565b500490565b6000816000190483118215151615615d1057615d10615dd9565b500290565b600082821015615d2757615d27615dd9565b500390565b60005b83811015615d47578181015183820152602001615d2f565b83811115611a9d5750506000910152565b600081615d6757615d67615dd9565b506000190190565b600181811c90821680615d8357607f821691505b60208210811415615da457634e487b7160e01b600052602260045260246000fd5b50919050565b6000600019821415615dbe57615dbe615dd9565b5060010190565b600082615dd457615dd4615def565b500690565b634e487b7160e01b600052601160045260246000fd5b634e487b7160e01b600052601260045260246000fd5b634e487b7160e01b600052604160045260246000fd5b6001600160a01b0381168114613ba957600080fd5b6001600160e01b031981168114613ba957600080fdfe3c2f746578743e203c74657874207374796c653d22666f6e742d7374796c653a4142434445464748494a4b4c4d4e4f505152535455565758595a6162636465666768696a6b6c6d6e6f707172737475767778797a303132333435363738392b2f6c6c2d6f7061636974793a313b7374726f6b653a6e6f6e652220783d223234316e6f726d616c3b666f6e742d7765696768743a6e6f726d616c3b666f6e742d73616d696c793a73616e732d73657269663b66696c6c3a233030303030303b6669697a653a343070783b6c696e652d6865696768743a312e32353b666f6e742d66a264697066735822122095018cc0d53edc1c97e8593e533a5c27e41b2bcde51960ca441d1ebe4909bca464736f6c63430008040033",
  "linkReferences": {},
  "deployedLinkReferences": {}
}