{
  "_format": "hh-sol-artifact-1",
  "contractName": "ETHDubaiTicket",
  "sourceName": "contracts/ETHDubaiTicket.sol",
  "abi": [
    {
      "inputs": [],
      "stateMutability": "nonpayable",
      "type": "constructor"
    },
    {
      "anonymous": false,
      "inputs": [
        {
          "indexed": true,
          "internalType": "address",
          "name": "owner",
          "type": "address"
        },
        {
          "indexed": true,
          "internalType": "address",
          "name": "approved",
          "type": "address"
        },
        {
          "indexed": true,
          "internalType": "uint256",
          "name": "tokenId",
          "type": "uint256"
        }
      ],
      "name": "Approval",
      "type": "event"
    },
    {
      "anonymous": false,
      "inputs": [
        {
          "indexed": true,
          "internalType": "address",
          "name": "owner",
          "type": "address"
        },
        {
          "indexed": true,
          "internalType": "address",
          "name": "operator",
          "type": "address"
        },
        {
          "indexed": false,
          "internalType": "bool",
          "name": "approved",
          "type": "bool"
        }
      ],
      "name": "ApprovalForAll",
      "type": "event"
    },
    {
      "anonymous": false,
      "inputs": [
        {
          "indexed": true,
          "internalType": "uint256",
          "name": "id",
          "type": "uint256"
        },
        {
          "components": [
            {
              "internalType": "string",
              "name": "email",
              "type": "string"
            },
            {
              "internalType": "string",
              "name": "fname",
              "type": "string"
            },
            {
              "internalType": "string",
              "name": "lname",
              "type": "string"
            },
            {
              "internalType": "string",
              "name": "twitter",
              "type": "string"
            },
            {
              "internalType": "string",
              "name": "bio",
              "type": "string"
            },
            {
              "internalType": "string",
              "name": "job",
              "type": "string"
            },
            {
              "internalType": "string",
              "name": "company",
              "type": "string"
            },
            {
              "internalType": "string",
              "name": "diet",
              "type": "string"
            },
            {
              "internalType": "string",
              "name": "tshirt",
              "type": "string"
            },
            {
              "internalType": "string",
              "name": "telegram",
              "type": "string"
            }
          ],
          "indexed": false,
          "internalType": "struct ETHDubaiTicket.AttendeeInfo",
          "name": "attendeeInfo",
          "type": "tuple"
        },
        {
          "indexed": false,
          "internalType": "string",
          "name": "message",
          "type": "string"
        }
      ],
      "name": "LAttendeeInfo",
      "type": "event"
    },
    {
      "anonymous": false,
      "inputs": [
        {
          "indexed": true,
          "internalType": "address",
          "name": "sender",
          "type": "address"
        },
        {
          "components": [
            {
              "internalType": "string[]",
              "name": "ticketOptions",
              "type": "string[]"
            },
            {
              "internalType": "uint256",
              "name": "amount",
              "type": "uint256"
            }
          ],
          "indexed": false,
          "internalType": "struct ETHDubaiTicket.Discount",
          "name": "discount",
          "type": "tuple"
        },
        {
          "indexed": false,
          "internalType": "string",
          "name": "message",
          "type": "string"
        }
      ],
      "name": "LDiscount",
      "type": "event"
    },
    {
      "anonymous": false,
      "inputs": [
        {
          "components": [
            {
              "components": [
                {
                  "internalType": "string[]",
                  "name": "ticketOptions",
                  "type": "string[]"
                },
                {
                  "internalType": "uint256",
                  "name": "amount",
                  "type": "uint256"
                }
              ],
              "internalType": "struct ETHDubaiTicket.Discount",
              "name": "discount",
              "type": "tuple"
            },
            {
              "components": [
                {
                  "internalType": "string",
                  "name": "name",
                  "type": "string"
                }
              ],
              "internalType": "struct ETHDubaiTicket.TicketSettings",
              "name": "ticketSettings",
              "type": "tuple"
            },
            {
              "internalType": "address",
              "name": "buyer",
              "type": "address"
            },
            {
              "internalType": "uint256",
              "name": "amount",
              "type": "uint256"
            },
            {
              "internalType": "uint256",
              "name": "tokenId",
              "type": "uint256"
            },
            {
              "internalType": "string",
              "name": "ticketOption",
              "type": "string"
            }
          ],
          "indexed": true,
          "internalType": "struct ETHDubaiTicket.MintLog",
          "name": "mintLog",
          "type": "tuple"
        },
        {
          "indexed": false,
          "internalType": "string",
          "name": "message",
          "type": "string"
        }
      ],
      "name": "LMint",
      "type": "event"
    },
    {
      "anonymous": false,
      "inputs": [
        {
          "indexed": true,
          "internalType": "address",
          "name": "sender",
          "type": "address"
        },
        {
          "indexed": false,
          "internalType": "uint256",
          "name": "id",
          "type": "uint256"
        },
        {
          "indexed": false,
          "internalType": "string",
          "name": "message",
          "type": "string"
        }
      ],
      "name": "LMintId",
      "type": "event"
    },
    {
      "anonymous": false,
      "inputs": [
        {
          "components": [
            {
              "internalType": "address",
              "name": "from",
              "type": "address"
            },
            {
              "internalType": "address",
              "name": "to",
              "type": "address"
            },
            {
              "internalType": "uint256",
              "name": "tokenId",
              "type": "uint256"
            },
            {
              "internalType": "uint256",
              "name": "amount",
              "type": "uint256"
            }
          ],
          "indexed": true,
          "internalType": "struct ETHDubaiTicket.ResellLog",
          "name": "resellLog",
          "type": "tuple"
        },
        {
          "indexed": false,
          "internalType": "string",
          "name": "message",
          "type": "string"
        }
      ],
      "name": "LResell",
      "type": "event"
    },
    {
      "anonymous": false,
      "inputs": [
        {
          "indexed": true,
          "internalType": "uint256",
          "name": "id",
          "type": "uint256"
        },
        {
          "components": [
            {
              "internalType": "bool",
              "name": "isResellable",
              "type": "bool"
            },
            {
              "internalType": "uint256",
              "name": "price",
              "type": "uint256"
            }
          ],
          "indexed": false,
          "internalType": "struct ETHDubaiTicket.Resellable",
          "name": "resellable",
          "type": "tuple"
        },
        {
          "indexed": false,
          "internalType": "string",
          "name": "message",
          "type": "string"
        }
      ],
      "name": "LResellable",
      "type": "event"
    },
    {
      "anonymous": false,
      "inputs": [
        {
          "indexed": true,
          "internalType": "uint256",
          "name": "id",
          "type": "uint256"
        },
        {
          "indexed": false,
          "internalType": "bool",
          "name": "value",
          "type": "bool"
        },
        {
          "indexed": false,
          "internalType": "string",
          "name": "message",
          "type": "string"
        }
      ],
      "name": "LTicketAction",
      "type": "event"
    },
    {
      "anonymous": false,
      "inputs": [
        {
          "components": [
            {
              "internalType": "string",
              "name": "name",
              "type": "string"
            }
          ],
          "indexed": true,
          "internalType": "struct ETHDubaiTicket.TicketSettings",
          "name": "ticketSettings",
          "type": "tuple"
        },
        {
          "indexed": false,
          "internalType": "string",
          "name": "message",
          "type": "string"
        }
      ],
      "name": "LTicketSettings",
      "type": "event"
    },
    {
      "anonymous": false,
      "inputs": [
        {
          "indexed": true,
          "internalType": "uint256",
          "name": "tokenId",
          "type": "uint256"
        },
        {
          "indexed": false,
          "internalType": "string",
          "name": "message",
          "type": "string"
        }
      ],
      "name": "Lint",
      "type": "event"
    },
    {
      "anonymous": false,
      "inputs": [
        {
          "indexed": true,
          "internalType": "address",
          "name": "sender",
          "type": "address"
        },
        {
          "indexed": false,
          "internalType": "string",
          "name": "message",
          "type": "string"
        }
      ],
      "name": "Log",
      "type": "event"
    },
    {
      "anonymous": false,
      "inputs": [
        {
          "indexed": true,
          "internalType": "address",
          "name": "from",
          "type": "address"
        },
        {
          "indexed": true,
          "internalType": "address",
          "name": "to",
          "type": "address"
        },
        {
          "indexed": true,
          "internalType": "uint256",
          "name": "tokenId",
          "type": "uint256"
        }
      ],
      "name": "Transfer",
      "type": "event"
    },
    {
      "inputs": [
        {
          "internalType": "uint256",
          "name": "",
          "type": "uint256"
        }
      ],
      "name": "_idToAttendeeInfo",
      "outputs": [
        {
          "internalType": "string",
          "name": "email",
          "type": "string"
        },
        {
          "internalType": "string",
          "name": "fname",
          "type": "string"
        },
        {
          "internalType": "string",
          "name": "lname",
          "type": "string"
        },
        {
          "internalType": "string",
          "name": "twitter",
          "type": "string"
        },
        {
          "internalType": "string",
          "name": "bio",
          "type": "string"
        },
        {
          "internalType": "string",
          "name": "job",
          "type": "string"
        },
        {
          "internalType": "string",
          "name": "company",
          "type": "string"
        },
        {
          "internalType": "string",
          "name": "diet",
          "type": "string"
        },
        {
          "internalType": "string",
          "name": "tshirt",
          "type": "string"
        },
        {
          "internalType": "string",
          "name": "telegram",
          "type": "string"
        }
      ],
      "stateMutability": "view",
      "type": "function"
    },
    {
      "inputs": [
        {
          "internalType": "uint256",
          "name": "",
          "type": "uint256"
        }
      ],
      "name": "_idToCanceled",
      "outputs": [
        {
          "internalType": "bool",
          "name": "",
          "type": "bool"
        }
      ],
      "stateMutability": "view",
      "type": "function"
    },
    {
      "inputs": [
        {
          "internalType": "uint256",
          "name": "",
          "type": "uint256"
        }
      ],
      "name": "_idToColors",
      "outputs": [
        {
          "internalType": "bytes3",
          "name": "color1",
          "type": "bytes3"
        },
        {
          "internalType": "bytes3",
          "name": "color2",
          "type": "bytes3"
        },
        {
          "internalType": "bytes3",
          "name": "color3",
          "type": "bytes3"
        },
        {
          "internalType": "bytes3",
          "name": "color4",
          "type": "bytes3"
        },
        {
          "internalType": "bytes3",
          "name": "color5",
          "type": "bytes3"
        }
      ],
      "stateMutability": "view",
      "type": "function"
    },
    {
      "inputs": [
        {
          "internalType": "uint256",
          "name": "",
          "type": "uint256"
        }
      ],
      "name": "_idToScanned",
      "outputs": [
        {
          "internalType": "bool",
          "name": "",
          "type": "bool"
        }
      ],
      "stateMutability": "view",
      "type": "function"
    },
    {
      "inputs": [
        {
          "internalType": "uint256",
          "name": "",
          "type": "uint256"
        }
      ],
      "name": "_idToSpecialStatus",
      "outputs": [
        {
          "internalType": "string",
          "name": "",
          "type": "string"
        }
      ],
      "stateMutability": "view",
      "type": "function"
    },
    {
      "inputs": [
        {
          "internalType": "uint256",
          "name": "",
          "type": "uint256"
        }
      ],
      "name": "_idToTicketCode",
      "outputs": [
        {
          "internalType": "string",
          "name": "",
          "type": "string"
        }
      ],
      "stateMutability": "view",
      "type": "function"
    },
    {
      "inputs": [
        {
          "internalType": "uint256",
          "name": "",
          "type": "uint256"
        }
      ],
      "name": "_idToTicketOption",
      "outputs": [
        {
          "internalType": "string",
          "name": "",
          "type": "string"
        }
      ],
      "stateMutability": "view",
      "type": "function"
    },
    {
      "inputs": [
        {
          "internalType": "uint256",
          "name": "",
          "type": "uint256"
        }
      ],
      "name": "_idToTicketResellable",
      "outputs": [
        {
          "internalType": "bool",
          "name": "isResellable",
          "type": "bool"
        },
        {
          "internalType": "uint256",
          "name": "price",
          "type": "uint256"
        }
      ],
      "stateMutability": "view",
      "type": "function"
    },
    {
      "inputs": [
        {
          "internalType": "address",
          "name": "to",
          "type": "address"
        },
        {
          "internalType": "uint256",
          "name": "tokenId",
          "type": "uint256"
        }
      ],
      "name": "approve",
      "outputs": [],
      "stateMutability": "nonpayable",
      "type": "function"
    },
    {
      "inputs": [
        {
          "internalType": "address",
          "name": "owner",
          "type": "address"
        }
      ],
      "name": "balanceOf",
      "outputs": [
        {
          "internalType": "uint256",
          "name": "",
          "type": "uint256"
        }
      ],
      "stateMutability": "view",
      "type": "function"
    },
    {
      "inputs": [],
      "name": "dao1",
      "outputs": [
        {
          "internalType": "address",
          "name": "",
          "type": "address"
        }
      ],
      "stateMutability": "view",
      "type": "function"
    },
    {
      "inputs": [],
      "name": "dao2",
      "outputs": [
        {
          "internalType": "address",
          "name": "",
          "type": "address"
        }
      ],
      "stateMutability": "view",
      "type": "function"
    },
    {
      "inputs": [],
      "name": "dao3",
      "outputs": [
        {
          "internalType": "address",
          "name": "",
          "type": "address"
        }
      ],
      "stateMutability": "view",
      "type": "function"
    },
    {
      "inputs": [],
      "name": "daoa",
      "outputs": [
        {
          "internalType": "uint256",
          "name": "",
          "type": "uint256"
        }
      ],
      "stateMutability": "view",
      "type": "function"
    },
    {
      "inputs": [
        {
          "internalType": "uint256",
          "name": "tokenId",
          "type": "uint256"
        }
      ],
      "name": "getApproved",
      "outputs": [
        {
          "internalType": "address",
          "name": "",
          "type": "address"
        }
      ],
      "stateMutability": "view",
      "type": "function"
    },
    {
      "inputs": [
        {
          "internalType": "address",
          "name": "sender",
          "type": "address"
        },
        {
          "internalType": "string",
          "name": "ticketOption",
          "type": "string"
        }
      ],
      "name": "getPrice",
      "outputs": [
        {
          "internalType": "uint256",
          "name": "",
          "type": "uint256"
        }
      ],
      "stateMutability": "view",
      "type": "function"
    },
    {
      "inputs": [
        {
          "internalType": "address",
          "name": "owner",
          "type": "address"
        },
        {
          "internalType": "address",
          "name": "operator",
          "type": "address"
        }
      ],
      "name": "isApprovedForAll",
      "outputs": [
        {
          "internalType": "bool",
          "name": "",
          "type": "bool"
        }
      ],
      "stateMutability": "view",
      "type": "function"
    },
    {
      "inputs": [
        {
          "internalType": "uint256",
          "name": "id",
          "type": "uint256"
        },
        {
          "internalType": "bool",
          "name": "scan",
          "type": "bool"
        },
        {
          "internalType": "bool",
          "name": "canceled",
          "type": "bool"
        }
      ],
      "name": "markAsScannedCanceld",
      "outputs": [
        {
          "internalType": "bool",
          "name": "",
          "type": "bool"
        }
      ],
      "stateMutability": "nonpayable",
      "type": "function"
    },
    {
      "inputs": [
        {
          "components": [
            {
              "components": [
                {
                  "internalType": "string",
                  "name": "email",
                  "type": "string"
                },
                {
                  "internalType": "string",
                  "name": "fname",
                  "type": "string"
                },
                {
                  "internalType": "string",
                  "name": "lname",
                  "type": "string"
                },
                {
                  "internalType": "string",
                  "name": "twitter",
                  "type": "string"
                },
                {
                  "internalType": "string",
                  "name": "bio",
                  "type": "string"
                },
                {
                  "internalType": "string",
                  "name": "job",
                  "type": "string"
                },
                {
                  "internalType": "string",
                  "name": "company",
                  "type": "string"
                },
                {
                  "internalType": "string",
                  "name": "diet",
                  "type": "string"
                },
                {
                  "internalType": "string",
                  "name": "tshirt",
                  "type": "string"
                },
                {
                  "internalType": "string",
                  "name": "telegram",
                  "type": "string"
                }
              ],
              "internalType": "struct ETHDubaiTicket.AttendeeInfo",
              "name": "attendeeInfo",
              "type": "tuple"
            },
            {
              "internalType": "string",
              "name": "ticketCode",
              "type": "string"
            },
            {
              "internalType": "string",
              "name": "ticketOption",
              "type": "string"
            },
            {
              "internalType": "string",
              "name": "specialStatus",
              "type": "string"
            },
            {
              "components": [
                {
                  "internalType": "bool",
                  "name": "isResellable",
                  "type": "bool"
                },
                {
                  "internalType": "uint256",
                  "name": "price",
                  "type": "uint256"
                }
              ],
              "internalType": "struct ETHDubaiTicket.Resellable",
              "name": "resellable",
              "type": "tuple"
            }
          ],
          "internalType": "struct ETHDubaiTicket.MintInfo[]",
          "name": "mintInfos",
          "type": "tuple[]"
        }
      ],
      "name": "mintItem",
      "outputs": [
        {
          "internalType": "string",
          "name": "",
          "type": "string"
        }
      ],
      "stateMutability": "payable",
      "type": "function"
    },
    {
      "inputs": [],
      "name": "name",
      "outputs": [
        {
          "internalType": "string",
          "name": "",
          "type": "string"
        }
      ],
      "stateMutability": "view",
      "type": "function"
    },
    {
      "inputs": [],
      "name": "owner",
      "outputs": [
        {
          "internalType": "address payable",
          "name": "",
          "type": "address"
        }
      ],
      "stateMutability": "view",
      "type": "function"
    },
    {
      "inputs": [
        {
          "internalType": "uint256",
          "name": "tokenId",
          "type": "uint256"
        }
      ],
      "name": "ownerOf",
      "outputs": [
        {
          "internalType": "address",
          "name": "",
          "type": "address"
        }
      ],
      "stateMutability": "view",
      "type": "function"
    },
    {
      "inputs": [
        {
          "internalType": "uint256",
          "name": "id",
          "type": "uint256"
        }
      ],
      "name": "renderTokenById",
      "outputs": [
        {
          "internalType": "string",
          "name": "",
          "type": "string"
        }
      ],
      "stateMutability": "view",
      "type": "function"
    },
    {
      "inputs": [
        {
          "internalType": "uint256",
          "name": "tokenId",
          "type": "uint256"
        }
      ],
      "name": "resell",
      "outputs": [],
      "stateMutability": "payable",
      "type": "function"
    },
    {
      "inputs": [
        {
          "internalType": "address",
          "name": "from",
          "type": "address"
        },
        {
          "internalType": "address",
          "name": "to",
          "type": "address"
        },
        {
          "internalType": "uint256",
          "name": "tokenId",
          "type": "uint256"
        }
      ],
      "name": "safeTransferFrom",
      "outputs": [],
      "stateMutability": "nonpayable",
      "type": "function"
    },
    {
      "inputs": [
        {
          "internalType": "address",
          "name": "from",
          "type": "address"
        },
        {
          "internalType": "address",
          "name": "to",
          "type": "address"
        },
        {
          "internalType": "uint256",
          "name": "tokenId",
          "type": "uint256"
        },
        {
          "internalType": "bytes",
          "name": "_data",
          "type": "bytes"
        }
      ],
      "name": "safeTransferFrom",
      "outputs": [],
      "stateMutability": "nonpayable",
      "type": "function"
    },
    {
      "inputs": [
        {
          "internalType": "address",
          "name": "operator",
          "type": "address"
        },
        {
          "internalType": "bool",
          "name": "approved",
          "type": "bool"
        }
      ],
      "name": "setApprovalForAll",
      "outputs": [],
      "stateMutability": "nonpayable",
      "type": "function"
    },
    {
      "inputs": [
        {
          "internalType": "address",
          "name": "d1",
          "type": "address"
        },
        {
          "internalType": "address",
          "name": "d2",
          "type": "address"
        },
        {
          "internalType": "address",
          "name": "d3",
          "type": "address"
        },
        {
          "internalType": "uint256",
          "name": "a",
          "type": "uint256"
        }
      ],
      "name": "setDaos",
      "outputs": [
        {
          "internalType": "bool",
          "name": "",
          "type": "bool"
        }
      ],
      "stateMutability": "nonpayable",
      "type": "function"
    },
    {
      "inputs": [
        {
          "internalType": "address",
          "name": "buyer",
          "type": "address"
        },
        {
          "internalType": "string[]",
          "name": "discounts",
          "type": "string[]"
        },
        {
          "internalType": "uint256",
          "name": "amount",
          "type": "uint256"
        }
      ],
      "name": "setDiscount",
      "outputs": [
        {
          "internalType": "bool",
          "name": "",
          "type": "bool"
        }
      ],
      "stateMutability": "nonpayable",
      "type": "function"
    },
    {
      "inputs": [
        {
          "internalType": "uint256",
          "name": "max",
          "type": "uint256"
        }
      ],
      "name": "setMaxMint",
      "outputs": [
        {
          "internalType": "uint256",
          "name": "",
          "type": "uint256"
        }
      ],
      "stateMutability": "nonpayable",
      "type": "function"
    },
    {
      "inputs": [
        {
          "internalType": "uint256",
          "name": "id",
          "type": "uint256"
        },
        {
          "internalType": "bool",
          "name": "isResellable",
          "type": "bool"
        },
        {
          "internalType": "uint256",
          "name": "price",
          "type": "uint256"
        }
      ],
      "name": "setResellable",
      "outputs": [
        {
          "internalType": "bool",
          "name": "",
          "type": "bool"
        }
      ],
      "stateMutability": "nonpayable",
      "type": "function"
    },
    {
      "inputs": [
        {
          "internalType": "string",
          "name": "name",
          "type": "string"
        },
        {
          "internalType": "uint256",
          "name": "amount",
          "type": "uint256"
        }
      ],
      "name": "setTicketOption",
      "outputs": [
        {
          "internalType": "bool",
          "name": "",
          "type": "bool"
        }
      ],
      "stateMutability": "nonpayable",
      "type": "function"
    },
    {
      "inputs": [
        {
          "internalType": "string",
          "name": "name",
          "type": "string"
        }
      ],
      "name": "setTicketSettings",
      "outputs": [
        {
          "internalType": "bool",
          "name": "",
          "type": "bool"
        }
      ],
      "stateMutability": "nonpayable",
      "type": "function"
    },
    {
      "inputs": [],
      "name": "settings",
      "outputs": [
        {
          "components": [
            {
              "internalType": "string",
              "name": "name",
              "type": "string"
            }
          ],
          "internalType": "struct ETHDubaiTicket.TicketSettings",
          "name": "ticketSettings",
          "type": "tuple"
        },
        {
          "internalType": "uint256",
          "name": "maxMint",
          "type": "uint256"
        }
      ],
      "stateMutability": "view",
      "type": "function"
    },
    {
      "inputs": [
        {
          "internalType": "bytes4",
          "name": "interfaceId",
          "type": "bytes4"
        }
      ],
      "name": "supportsInterface",
      "outputs": [
        {
          "internalType": "bool",
          "name": "",
          "type": "bool"
        }
      ],
      "stateMutability": "view",
      "type": "function"
    },
    {
      "inputs": [],
      "name": "symbol",
      "outputs": [
        {
          "internalType": "string",
          "name": "",
          "type": "string"
        }
      ],
      "stateMutability": "view",
      "type": "function"
    },
    {
      "inputs": [
        {
          "internalType": "uint256",
          "name": "id",
          "type": "uint256"
        }
      ],
      "name": "tokenURI",
      "outputs": [
        {
          "internalType": "string",
          "name": "",
          "type": "string"
        }
      ],
      "stateMutability": "view",
      "type": "function"
    },
    {
      "inputs": [
        {
          "components": [
            {
              "components": [
                {
                  "internalType": "string",
                  "name": "email",
                  "type": "string"
                },
                {
                  "internalType": "string",
                  "name": "fname",
                  "type": "string"
                },
                {
                  "internalType": "string",
                  "name": "lname",
                  "type": "string"
                },
                {
                  "internalType": "string",
                  "name": "twitter",
                  "type": "string"
                },
                {
                  "internalType": "string",
                  "name": "bio",
                  "type": "string"
                },
                {
                  "internalType": "string",
                  "name": "job",
                  "type": "string"
                },
                {
                  "internalType": "string",
                  "name": "company",
                  "type": "string"
                },
                {
                  "internalType": "string",
                  "name": "diet",
                  "type": "string"
                },
                {
                  "internalType": "string",
                  "name": "tshirt",
                  "type": "string"
                },
                {
                  "internalType": "string",
                  "name": "telegram",
                  "type": "string"
                }
              ],
              "internalType": "struct ETHDubaiTicket.AttendeeInfo",
              "name": "attendeeInfo",
              "type": "tuple"
            },
            {
              "internalType": "string",
              "name": "ticketCode",
              "type": "string"
            },
            {
              "internalType": "string",
              "name": "ticketOption",
              "type": "string"
            },
            {
              "internalType": "string",
              "name": "specialStatus",
              "type": "string"
            },
            {
              "components": [
                {
                  "internalType": "bool",
                  "name": "isResellable",
                  "type": "bool"
                },
                {
                  "internalType": "uint256",
                  "name": "price",
                  "type": "uint256"
                }
              ],
              "internalType": "struct ETHDubaiTicket.Resellable",
              "name": "resellable",
              "type": "tuple"
            }
          ],
          "internalType": "struct ETHDubaiTicket.MintInfo[]",
          "name": "mIs",
          "type": "tuple[]"
        }
      ],
      "name": "totalPrice",
      "outputs": [
        {
          "internalType": "uint256",
          "name": "",
          "type": "uint256"
        }
      ],
      "stateMutability": "view",
      "type": "function"
    },
    {
      "inputs": [
        {
          "internalType": "address",
          "name": "from",
          "type": "address"
        },
        {
          "internalType": "address",
          "name": "to",
          "type": "address"
        },
        {
          "internalType": "uint256",
          "name": "tokenId",
          "type": "uint256"
        }
      ],
      "name": "transferFrom",
      "outputs": [],
      "stateMutability": "nonpayable",
      "type": "function"
    },
    {
      "inputs": [
        {
          "internalType": "uint256",
          "name": "id",
          "type": "uint256"
        },
        {
          "components": [
            {
              "internalType": "string",
              "name": "email",
              "type": "string"
            },
            {
              "internalType": "string",
              "name": "fname",
              "type": "string"
            },
            {
              "internalType": "string",
              "name": "lname",
              "type": "string"
            },
            {
              "internalType": "string",
              "name": "twitter",
              "type": "string"
            },
            {
              "internalType": "string",
              "name": "bio",
              "type": "string"
            },
            {
              "internalType": "string",
              "name": "job",
              "type": "string"
            },
            {
              "internalType": "string",
              "name": "company",
              "type": "string"
            },
            {
              "internalType": "string",
              "name": "diet",
              "type": "string"
            },
            {
              "internalType": "string",
              "name": "tshirt",
              "type": "string"
            },
            {
              "internalType": "string",
              "name": "telegram",
              "type": "string"
            }
          ],
          "internalType": "struct ETHDubaiTicket.AttendeeInfo",
          "name": "attendeeInfo",
          "type": "tuple"
        }
      ],
      "name": "updateAttendeeInfo",
      "outputs": [
        {
          "internalType": "bool",
          "name": "",
          "type": "bool"
        }
      ],
      "stateMutability": "nonpayable",
      "type": "function"
    },
    {
      "inputs": [],
      "name": "withdraw",
      "outputs": [],
      "stateMutability": "nonpayable",
      "type": "function"
    }
  ],
  "bytecode": "0x60806040523480156200001157600080fd5b50604080518082018252600e81526d115512111d58985a551a58dad95d60921b602080830191825283518085019094526008845267455448445542414960c01b9084015281519192916200006891600091620002b1565b5080516200007e906001906020840190620002b1565b505050336001600160a01b03167f0738f4da267a110d810e6e89fc59e46be6de0c37b1d5cd559b267dc3688e74e0604051620000d59060208082526007908201526618dc99585d195960ca1b604082015260600190565b60405180910390a2600880546001600160a01b031916331790556001600e5560408051606081018252600a602082018181526919585c9b1e48189a5c9960b21b93830193845282529091600d916200012f918391620002b1565b50506040805169636f6e666572656e636560b01b81526010600a8201819052915190819003602a01812067016345785d8a00009055670776f726b73686f760c41b8152671bc16d674ec800009250600801908152604051908190036020018120919091556702c68af0bb14000090601090620001ce907f776f726b73686f70416e64507265506172747900000000000000000000000000815260130190565b908152604051908190036020018120919091556702c68af0bb140000906010906200020e906e686f74656c436f6e666572656e636560881b8152600f0190565b90815260405190819003602001812091909155671dd6559bdb170000906010906200024d906d686f74656c576f726b73686f707360901b8152600e0190565b9081526040519081900360200181209190915567058d15e176280000906010906200029b907f686f74656c576f726b73686f7073416e64507265506172747900000000000000815260190190565b9081526040519081900360200190205562000394565b828054620002bf9062000357565b90600052602060002090601f016020900481019282620002e357600085556200032e565b82601f10620002fe57805160ff19168380011785556200032e565b828001600101855582156200032e579182015b828111156200032e57825182559160200191906001019062000311565b506200033c92915062000340565b5090565b5b808211156200033c576000815560010162000341565b600181811c908216806200036c57607f821691505b602082108114156200038e57634e487b7160e01b600052602260045260246000fd5b50919050565b615df780620003a46000396000f3fe6080604052600436106102455760003560e01c806376977a3a11610139578063a2d6c6da116100b6578063d18d48ae1161007a578063d18d48ae14610745578063e06174e41461077b578063e136d28c1461079e578063e985e9c5146107be578063f5600d0814610807578063fc4717891461082757600080fd5b8063a2d6c6da146106b2578063ab756c88146106d2578063b88d4fde146106e5578063b9a34d9214610705578063c87b56dd1461072557600080fd5b806391effe76116100fd57806391effe76146105a757806393348137146105c757806395d89b41146105e7578063a011bc15146105fc578063a22cb4651461069257600080fd5b806376977a3a146105115780637f7819a71461053157806383b466d61461055157806387f4f4e4146105675780638da5cb5b1461058757600080fd5b806342842e0e116101c757806357aed4011161018b57806357aed401146104615780635bb67fb0146104815780636352211e146104b157806368064d1e146104d157806370a08231146104f157600080fd5b806342842e0e146103c157806349b79f91146103e1578063512d25fd1461040157806353716f9114610421578063547520fe1461044157600080fd5b80630defcdff1161020e5780630defcdff1461030e578063207a73051461032e57806323b872dd1461035c57806335090d3a1461037c5780633ccfd60b146103ac57600080fd5b8062746ce31461024a57806301ffc9a71461025f57806306fdde0314610294578063081812fc146102b6578063095ea7b3146102ee575b600080fd5b61025d61025836600461417a565b610878565b005b34801561026b57600080fd5b5061027f61027a3660046141a9565b610ab1565b60405190151581526020015b60405180910390f35b3480156102a057600080fd5b506102a9610b03565b60405161028b9190614225565b3480156102c257600080fd5b506102d66102d136600461417a565b610b95565b6040516001600160a01b03909116815260200161028b565b3480156102fa57600080fd5b5061025d61030936600461424d565b610c2a565b34801561031a57600080fd5b506102a961032936600461417a565b610d40565b34801561033a57600080fd5b5061034e6103493660046145aa565b610dda565b60405190815260200161028b565b34801561036857600080fd5b5061025d61037736600461471c565b610e34565b34801561038857600080fd5b5061027f61039736600461417a565b60156020526000908152604090205460ff1681565b3480156103b857600080fd5b5061025d610e65565b3480156103cd57600080fd5b5061025d6103dc36600461471c565b610f4c565b3480156103ed57600080fd5b50600b546102d6906001600160a01b031681565b34801561040d57600080fd5b5061027f61041c36600461475d565b610f67565b34801561042d57600080fd5b5061027f61043c366004614791565b611022565b34801561044d57600080fd5b5061034e61045c36600461417a565b611134565b34801561046d57600080fd5b5061027f61047c3660046147cd565b6111c1565b34801561048d57600080fd5b5061027f61049c36600461417a565b60146020526000908152604090205460ff1681565b3480156104bd57600080fd5b506102d66104cc36600461417a565b61123c565b3480156104dd57600080fd5b5061027f6104ec36600461481e565b6112b3565b3480156104fd57600080fd5b5061034e61050c366004614853565b6113f1565b34801561051d57600080fd5b5061034e61052c366004614870565b611478565b34801561053d57600080fd5b5061027f61054c3660046148bf565b6118c9565b34801561055d57600080fd5b5061034e600c5481565b34801561057357600080fd5b50600a546102d6906001600160a01b031681565b34801561059357600080fd5b506008546102d6906001600160a01b031681565b3480156105b357600080fd5b506009546102d6906001600160a01b031681565b3480156105d357600080fd5b506102a96105e236600461417a565b611991565b3480156105f357600080fd5b506102a96119aa565b34801561060857600080fd5b5061065761061736600461417a565b60166020526000908152604090205460e881811b9163010000008104821b91600160301b8204811b91600160481b8104821b91600160601b909104901b85565b604080516001600160e81b0319968716815294861660208601529285169284019290925283166060830152909116608082015260a00161028b565b34801561069e57600080fd5b5061025d6106ad36600461498c565b6119b9565b3480156106be57600080fd5b506102a96106cd36600461417a565b611a7e565b6102a96106e03660046145aa565b611baf565b3480156106f157600080fd5b5061025d6107003660046149c1565b611d8e565b34801561071157600080fd5b5061027f610720366004614a40565b611dc6565b34801561073157600080fd5b506102a961074036600461417a565b611e20565b34801561075157600080fd5b5061076561076036600461417a565b611f92565b60405161028b9a99989796959493929190614a84565b34801561078757600080fd5b5061079061252e565b60405161028b929190614b5f565b3480156107aa57600080fd5b5061027f6107b9366004614b8b565b6125db565b3480156107ca57600080fd5b5061027f6107d9366004614bc7565b6001600160a01b03918216600090815260056020908152604080832093909416825291909152205460ff1690565b34801561081357600080fd5b506102a961082236600461417a565b612818565b34801561083357600080fd5b5061086161084236600461417a565b6013602052600090815260409020805460019091015460ff9091169082565b60408051921515835260208301919091520161028b565b6000818152601360209081526040918290208251808401909352805460ff161515808452600190910154918301919091526108e95760405162461bcd60e51b815260206004820152600c60248201526b6e6f7420666f722073616c6560a01b60448201526064015b60405180910390fd5b806020015134101561092d5760405162461bcd60e51b815260206004820152600d60248201526c707269636520746f6f206c6f7760981b60448201526064016108e0565b34600061093b603283614c2c565b905060006109498284614c40565b905060006109568661123c565b6040519091506001600160a01b0382169083156108fc029084906000818181858888f1935050505015801561098f573d6000803e3d6000fd5b506109a361099c8761123c565b3388612831565b60008086528681526013602090815260408083208851815460ff191690151517815591880151600190920191909155805160808101909152806109e58961123c565b6001600160a01b03168152602001336001600160a01b0316815260200188815260200186815250905080604051610a50919081516001600160a01b03908116825260208084015190911690820152604080830151908201526060918201519181019190915260800190565b60405180910390207f60495e8f84637280bfda279215ab8a212d6be2f484c771235260c1def06ac9dc604051610aa0906020808252600690820152651c995cd95b1b60d21b604082015260600190565b60405180910390a250505050505050565b60006001600160e01b031982166380ac58cd60e01b1480610ae257506001600160e01b03198216635b5e139f60e01b145b80610afd57506301ffc9a760e01b6001600160e01b03198316145b92915050565b606060008054610b1290614c57565b80601f0160208091040260200160405190810160405280929190818152602001828054610b3e90614c57565b8015610b8b5780601f10610b6057610100808354040283529160200191610b8b565b820191906000526020600020905b815481529060010190602001808311610b6e57829003601f168201915b5050505050905090565b6000818152600260205260408120546001600160a01b0316610c0e5760405162461bcd60e51b815260206004820152602c60248201527f4552433732313a20617070726f76656420717565727920666f72206e6f6e657860448201526b34b9ba32b73a103a37b5b2b760a11b60648201526084016108e0565b506000908152600460205260409020546001600160a01b031690565b6000610c358261123c565b9050806001600160a01b0316836001600160a01b03161415610ca35760405162461bcd60e51b815260206004820152602160248201527f4552433732313a20617070726f76616c20746f2063757272656e74206f776e656044820152603960f91b60648201526084016108e0565b336001600160a01b0382161480610cbf5750610cbf81336107d9565b610d315760405162461bcd60e51b815260206004820152603860248201527f4552433732313a20617070726f76652063616c6c6572206973206e6f74206f7760448201527f6e6572206e6f7220617070726f76656420666f7220616c6c000000000000000060648201526084016108e0565b610d3b83836129d1565b505050565b60126020526000908152604090208054610d5990614c57565b80601f0160208091040260200160405190810160405280929190818152602001828054610d8590614c57565b8015610dd25780601f10610da757610100808354040283529160200191610dd2565b820191906000526020600020905b815481529060010190602001808311610db557829003601f168201915b505050505081565b600080805b8351811015610e2d57610e0f33858381518110610dfe57610dfe614c92565b602002602001015160400151611478565b610e199083614ca8565b915080610e2581614cc0565b915050610ddf565b5092915050565b610e3e3382612a3f565b610e5a5760405162461bcd60e51b81526004016108e090614cdb565b610d3b838383612831565b60085460405147916000916001600160a01b039091169083908381818185875af1925050503d8060008114610eb6576040519150601f19603f3d011682016040523d82523d6000602084013e610ebb565b606091505b5050905080610ef55760405162461bcd60e51b815260206004820152600660248201526511985a5b195960d21b60448201526064016108e0565b817f8357d8ab35f23e88ce565d8adf95e902661648acccc23d68dafcbdd1eca6764c604051610f4090602080825260089082015267776974686472617760c01b604082015260600190565b60405180910390a25050565b610d3b83838360405180602001604052806000815250611d8e565b6008546000906001600160a01b03163314610f945760405162461bcd60e51b81526004016108e090614d2c565b8151610fa790600d90602085019061402e565b50604051610fb790600d90614d50565b60405180910390207f91adaaa32f8e275893e2f8dc786e170fdb9de662a8caaaf89974339ba9a777d5604051611012906020808252601190820152707365745469636b657453657474696e677360781b604082015260600190565b60405180910390a2506001919050565b6008546000906001600160a01b0316331461104f5760405162461bcd60e51b81526004016108e090614d2c565b6000848152601460209081526040808320805460ff19908116881515908117909255601584529382902080549094168615151790935580519283529082018190526004908201526339b1b0b760e11b606082015284907f40468798b83ac9e30fa77473fd728c43883657f2365f0cb2bd9dbf4657ad4d619060800160405180910390a2837f40468798b83ac9e30fa77473fd728c43883657f2365f0cb2bd9dbf4657ad4d618360405161112491151581526040602082018190526006908201526518d85b98d95b60d21b606082015260800190565b60405180910390a2509092915050565b6008546000906001600160a01b031633146111615760405162461bcd60e51b81526004016108e090614d2c565b600e82905560405182907f8357d8ab35f23e88ce565d8adf95e902661648acccc23d68dafcbdd1eca6764c906111b5906020808252600a90820152691cd95d13585e135a5b9d60b21b604082015260600190565b60405180910390a25090565b6008546000906001600160a01b031633146111ee5760405162461bcd60e51b81526004016108e090614d2c565b50600980546001600160a01b038087166001600160a01b031992831617909255600a8054868416908316179055600b805492851692909116919091179055600c81905560015b949350505050565b6000818152600260205260408120546001600160a01b031680610afd5760405162461bcd60e51b815260206004820152602960248201527f4552433732313a206f776e657220717565727920666f72206e6f6e657869737460448201526832b73a103a37b5b2b760b91b60648201526084016108e0565b6040516331a9108f60e11b8152600481018490526000903090636352211e90602401602060405180830381865afa1580156112f2573d6000803e3d6000fd5b505050506040513d601f19601f820116820180604052508101906113169190614dc1565b6001600160a01b0316336001600160a01b0316146113465760405162461bcd60e51b81526004016108e090614d2c565b604080518082018252841515815260208082018581526000888152601383528490208351815490151560ff1990911681178255825160019092019190915584519081529051918101919091526060818401819052600d908201526c736574526573656c6c61626c6560981b60808201529151909186917fc719d0dddd8df14e3e631a3138b5a3c9cde19770ceec3c72c9375f60e179e8e19181900360a00190a2506001949350505050565b60006001600160a01b03821661145c5760405162461bcd60e51b815260206004820152602a60248201527f4552433732313a2062616c616e636520717565727920666f7220746865207a65604482015269726f206164647265737360b01b60648201526084016108e0565b506001600160a01b031660009081526003602052604090205490565b6001600160a01b0382166000908152600f60209081526040808320815181546060948102820185018452928101838152859491938492849190879085015b828210156115625783829060005260206000200180546114d590614c57565b80601f016020809104026020016040519081016040528092919081815260200182805461150190614c57565b801561154e5780601f106115235761010080835404028352916020019161154e565b820191906000526020600020905b81548152906001019060200180831161153157829003601f168201915b5050505050815260200190600101906114b6565b505050908252506001918201546020918201526001600160a01b0387166000908152600f9091526040808220909201549151929350909181906010906115a9908890614dfa565b908152602001604051809103902054826115c39190614ca8565b915082156116735760005b84515181101561166d576000856000015182815181106115f0576115f0614c92565b602002602001015190506000889050806040516020016116109190614dfa565b60405160208183030381529060405280519060200120826040516020016116379190614dfa565b60405160208183030381529060405280519060200120141561165857600193505b5050808061166590614cc0565b9150506115ce565b50611848565b60095460009081906001600160a01b031615611707576009546040516370a0823160e01b81523360048201526001600160a01b039091169081906370a0823190602401602060405180830381865afa1580156116d3573d6000803e3d6000fd5b505050506040513d601f19601f820116820180604052508101906116f79190614e16565b9150811561170557600c5495505b505b841580156117235750600a546001600160a01b03838116911614155b156117a657600a546040516370a0823160e01b81523360048201526001600160a01b039091169081906370a0823190602401602060405180830381865afa158015611772573d6000803e3d6000fd5b505050506040513d601f19601f820116820180604052508101906117969190614e16565b915081156117a457600c5495505b505b841580156117c25750600b546001600160a01b03838116911614155b1561184557600b546040516370a0823160e01b81523360048201526001600160a01b039091169081906370a0823190602401602060405180830381865afa158015611811573d6000803e3d6000fd5b505050506040513d601f19601f820116820180604052508101906118359190614e16565b9150811561184357600c5495505b505b50505b6000821161188b5760405162461bcd60e51b815260206004820152601060248201526f0546f74616c2063616e277420626520360841b60448201526064016108e0565b80806118975750600083115b156118bf5760646118a88484614e2f565b6118b29190614c2c565b6118bc9083614c40565b91505b5095945050505050565b6008546000906001600160a01b031633146118f65760405162461bcd60e51b81526004016108e090614d2c565b6040805180820182528481526020810184905290516001600160a01b038616907f178a9f003387b45d102f3acfac1899591ad2260290718874e3492928b77e78e790611943908490614e4e565b60405180910390a26001600160a01b0385166000908152600f6020908152604090912082518051849361197a9284929101906140b2565b506020919091015160019182015595945050505050565b60176020526000908152604090208054610d5990614c57565b606060018054610b1290614c57565b6001600160a01b038216331415611a125760405162461bcd60e51b815260206004820152601960248201527f4552433732313a20617070726f766520746f2063616c6c65720000000000000060448201526064016108e0565b3360008181526005602090815260408083206001600160a01b03871680855290835292819020805460ff191686151590811790915590519081529192917f17307eab39ab6107e8899845ad3d59bd9653f200f220920489ca2b5937696c31910160405180910390a35050565b60008181526016602052604081205460609190611aa79060e81b6001600160e81b031916612b32565b600084815260166020526040902054611ad3906301000000900460e81b6001600160e81b031916612b32565b600085815260166020526040902054611aff90600160301b900460e81b6001600160e81b031916612b32565b600086815260166020526040902054611b2b906301000000900460e81b6001600160e81b031916612b32565b600087815260166020526040902054611b5790600160481b900460e81b6001600160e81b031916612b32565b600088815260166020526040902054611b8390600160601b900460e81b6001600160e81b031916612b32565b604051602001611b9896959493929190614eeb565b60408051601f198184030181529190529392505050565b600e54606090611bbe60075490565b10611bf65760405162461bcd60e51b81526020600482015260086024820152671cdbdb19081bdd5d60c21b60448201526064016108e0565b6000611c0183610dda565b905080341015611c435760405162461bcd60e51b815260206004820152600d60248201526c707269636520746f6f206c6f7760981b60448201526064016108e0565b604080516020810190915260008082525b8451811015611d8657604080516000815260208101918290525190208551869083908110611c8457611c84614c92565b602002602001015160600151604051602001611ca09190614dfa565b604051602081830303815290604052805190602001201480611ccc57506008546001600160a01b031633145b611ce85760405162461bcd60e51b81526004016108e090614d2c565b6000611d0d868381518110611cff57611cff614c92565b602002602001015133612c79565b9050336001600160a01b03167f632d98bca08ade3a45aae4221e31316ffd5993820d60db7bd3d986788cf0932a82604051611d6b91815260406020820181905260099082015268135a5b9d195908125960ba1b606082015260800190565b60405180910390a25080611d7e81614cc0565b915050611c54565b509392505050565b611d983383612a3f565b611db45760405162461bcd60e51b81526004016108e090614cdb565b611dc084848484613270565b50505050565b6008546000906001600160a01b03163314611df35760405162461bcd60e51b81526004016108e090614d2c565b81600d60030184604051611e079190614dfa565b9081526040519081900360200190205550600192915050565b6000818152600260205260409020546060906001600160a01b0316611e735760405162461bcd60e51b81526020600482015260096024820152681b9bdd08195e1a5cdd60ba1b60448201526064016108e0565b6000611e7e836132a3565b604051602001611e8e91906151b5565b60405160208183030381529060405290506000604051602001611ee0907f5469636b657420746f20455448447562616920636f6e666572656e636520323081526219189760e91b602082015260230190565b60405160208183030381529060405290506000611f04611eff866133a0565b61394f565b9050611f698383611f14886132a3565b6000898152601760205260409020611f3f6014611f308c61123c565b6001600160a01b031690613ab4565b86604051602001611f559695949392919061525d565b60405160208183030381529060405261394f565b604051602001611f7991906153e5565b6040516020818303038152906040529350505050919050565b601160205260009081526040902080548190611fad90614c57565b80601f0160208091040260200160405190810160405280929190818152602001828054611fd990614c57565b80156120265780601f10611ffb57610100808354040283529160200191612026565b820191906000526020600020905b81548152906001019060200180831161200957829003601f168201915b50505050509080600101805461203b90614c57565b80601f016020809104026020016040519081016040528092919081815260200182805461206790614c57565b80156120b45780601f10612089576101008083540402835291602001916120b4565b820191906000526020600020905b81548152906001019060200180831161209757829003601f168201915b5050505050908060020180546120c990614c57565b80601f01602080910402602001604051908101604052809291908181526020018280546120f590614c57565b80156121425780601f1061211757610100808354040283529160200191612142565b820191906000526020600020905b81548152906001019060200180831161212557829003601f168201915b50505050509080600301805461215790614c57565b80601f016020809104026020016040519081016040528092919081815260200182805461218390614c57565b80156121d05780601f106121a5576101008083540402835291602001916121d0565b820191906000526020600020905b8154815290600101906020018083116121b357829003601f168201915b5050505050908060040180546121e590614c57565b80601f016020809104026020016040519081016040528092919081815260200182805461221190614c57565b801561225e5780601f106122335761010080835404028352916020019161225e565b820191906000526020600020905b81548152906001019060200180831161224157829003601f168201915b50505050509080600501805461227390614c57565b80601f016020809104026020016040519081016040528092919081815260200182805461229f90614c57565b80156122ec5780601f106122c1576101008083540402835291602001916122ec565b820191906000526020600020905b8154815290600101906020018083116122cf57829003601f168201915b50505050509080600601805461230190614c57565b80601f016020809104026020016040519081016040528092919081815260200182805461232d90614c57565b801561237a5780601f1061234f5761010080835404028352916020019161237a565b820191906000526020600020905b81548152906001019060200180831161235d57829003601f168201915b50505050509080600701805461238f90614c57565b80601f01602080910402602001604051908101604052809291908181526020018280546123bb90614c57565b80156124085780601f106123dd57610100808354040283529160200191612408565b820191906000526020600020905b8154815290600101906020018083116123eb57829003601f168201915b50505050509080600801805461241d90614c57565b80601f016020809104026020016040519081016040528092919081815260200182805461244990614c57565b80156124965780601f1061246b57610100808354040283529160200191612496565b820191906000526020600020905b81548152906001019060200180831161247957829003601f168201915b5050505050908060090180546124ab90614c57565b80601f01602080910402602001604051908101604052809291908181526020018280546124d790614c57565b80156125245780601f106124f957610100808354040283529160200191612524565b820191906000526020600020905b81548152906001019060200180831161250757829003601f168201915b505050505090508a565b600d8060000160405180602001604052908160008201805461254f90614c57565b80601f016020809104026020016040519081016040528092919081815260200182805461257b90614c57565b80156125c85780601f1061259d576101008083540402835291602001916125c8565b820191906000526020600020905b8154815290600101906020018083116125ab57829003601f168201915b5050509190925250505060019091015482565b6008546000906001600160a01b031633148061266757506040516331a9108f60e11b8152600481018490523090636352211e90602401602060405180830381865afa15801561262e573d6000803e3d6000fd5b505050506040513d601f19601f820116820180604052508101906126529190614dc1565b6001600160a01b0316336001600160a01b0316145b6126b35760405162461bcd60e51b815260206004820152601d60248201527f6f6e6c7920636f6e7472616374206f72207469636b6574206f776e657200000060448201526064016108e0565b60008381526011602090815260409091208351805185936126d892849291019061402e565b5060208281015180516126f1926001850192019061402e565b506040820151805161270d91600284019160209091019061402e565b506060820151805161272991600384019160209091019061402e565b506080820151805161274591600484019160209091019061402e565b5060a0820151805161276191600584019160209091019061402e565b5060c0820151805161277d91600684019160209091019061402e565b5060e0820151805161279991600784019160209091019061402e565b5061010082015180516127b691600884019160209091019061402e565b5061012082015180516127d391600984019160209091019061402e565b50905050827f8a4ca1200428c686f2b84bcf478a36282e84ddf0c7198163243e5ef0422129c483604051612807919061542a565b60405180910390a250600192915050565b60186020526000908152604090208054610d5990614c57565b826001600160a01b03166128448261123c565b6001600160a01b0316146128ac5760405162461bcd60e51b815260206004820152602960248201527f4552433732313a207472616e73666572206f6620746f6b656e2074686174206960448201526839903737ba1037bbb760b91b60648201526084016108e0565b6001600160a01b03821661290e5760405162461bcd60e51b8152602060048201526024808201527f4552433732313a207472616e7366657220746f20746865207a65726f206164646044820152637265737360e01b60648201526084016108e0565b6129196000826129d1565b6001600160a01b0383166000908152600360205260408120805460019290612942908490614c40565b90915550506001600160a01b0382166000908152600360205260408120805460019290612970908490614ca8565b909155505060008181526002602052604080822080546001600160a01b0319166001600160a01b0386811691821790925591518493918716917fddf252ad1be2c89b69c2b068fc378daa952ba7f163c4a11628f55a4df523b3ef91a4505050565b600081815260046020526040902080546001600160a01b0319166001600160a01b0384169081179091558190612a068261123c565b6001600160a01b03167f8c5be1e5ebec7d5bd14f71427d1e84f3dd0314c0f7b2291e5b200ac8c7c3b92560405160405180910390a45050565b6000818152600260205260408120546001600160a01b0316612ab85760405162461bcd60e51b815260206004820152602c60248201527f4552433732313a206f70657261746f7220717565727920666f72206e6f6e657860448201526b34b9ba32b73a103a37b5b2b760a11b60648201526084016108e0565b6000612ac38361123c565b9050806001600160a01b0316846001600160a01b03161480612afe5750836001600160a01b0316612af384610b95565b6001600160a01b0316145b8061123457506001600160a01b0380821660009081526005602090815260408083209388168352929052205460ff16611234565b6040805160068082528183019092526060916000919060208201818036833701905050905060005b6003811015610e2d576f181899199a1a9b1b9c1cb0b131b232b360811b848260038110612b8957612b89614c92565b1a600f1660108110612b9d57612b9d614c92565b1a60f81b82612bad836002614e2f565b612bb8906001614ca8565b81518110612bc857612bc8614c92565b60200101906001600160f81b031916908160001a9053506f181899199a1a9b1b9c1cb0b131b232b360811b6004858360038110612c0757612c07614c92565b1a60f81b6001600160f81b031916901c60f81c600f1660ff1660108110612c3057612c30614c92565b1a60f81b82612c40836002614e2f565b81518110612c5057612c50614c92565b60200101906001600160f81b031916908160001a90535080612c7181614cc0565b915050612b5a565b6001600160a01b0381166000908152600f6020908152604080832081518154606094810282018501845292810183815285948594929392849291849190879085015b82821015612d67578382906000526020600020018054612cda90614c57565b80601f0160208091040260200160405190810160405280929190818152602001828054612d0690614c57565b8015612d535780601f10612d2857610100808354040283529160200191612d53565b820191906000526020600020905b815481529060010190602001808311612d3657829003601f168201915b505050505081526020019060010190612cbb565b5050505081526020016001820154815250509050612d89600780546001019055565b6000612d9460075490565b9050612da08582613c00565b6000612dbd8630612db2436001614ca8565b8a5151904090613d42565b9050612dc881613d7b565b6000838152601660205260408120805462ffffff191660e89390931c92909217909155612e0b8730612dfb436002614ca8565b408b600001516101200151613d42565b9050612e1681613d7b565b6000848152601660205260408120805460e89390931c63010000000265ffffff0000001990931692909217909155612e638830612e54436003614ca8565b408c6000015160200151613d42565b9050612e6e81613d7b565b6000858152601660205260408120805460e89390931c600160301b0268ffffff0000000000001990931692909217909155612ebe8930612eaf436004614ca8565b408d6000015160400151613d42565b9050612ec981613d7b565b6000868152601660205260408120805460e89390931c600160481b026bffffff0000000000000000001990931692909217909155612f308a30612f0d436032614ca8565b4060405180604001604052806004815260200163666f6f3560e01b815250613d42565b9050612f3b81613d7b565b6000878152601660209081526040808320805460e89590951c600160601b0262ffffff60601b19909516949094179093558d516011825292909120825180519192612f8b9284929091019061402e565b506020828101518051612fa4926001850192019061402e565b5060408201518051612fc091600284019160209091019061402e565b5060608201518051612fdc91600384019160209091019061402e565b5060808201518051612ff891600484019160209091019061402e565b5060a0820151805161301491600584019160209091019061402e565b5060c0820151805161303091600684019160209091019061402e565b5060e0820151805161304c91600784019160209091019061402e565b50610100820151805161306991600884019160209091019061402e565b50610120820151805161308691600984019160209091019061402e565b5050506020808c01516000888152601283526040902081516130ad9391929091019061402e565b5060808b015160008781526013602090815260408083208451815490151560ff199182161782559483015160019091015560148252808320805485169055601582528083208054909416909355828e015160178252929091208251613118939192919091019061402e565b5060006040518060c00160405280898152602001600d60000160405180602001604052908160008201805461314c90614c57565b80601f016020809104026020016040519081016040528092919081815260200182805461317890614c57565b80156131c55780601f1061319a576101008083540402835291602001916131c5565b820191906000526020600020905b8154815290600101906020018083116131a857829003601f168201915b50505050508152505081526020018c6001600160a01b031681526020018a81526020018881526020018d6040015181525090508060405161320691906155d2565b60405180910390207fd51300a08f780182a771828f81667b7b6de8e3d3eb5eff9e8b8ea0c49a980db4604051613258906020808252600890820152676d696e744974656d60c01b604082015260600190565b60405180910390a250949a9950505050505050505050565b61327b848484612831565b61328784848484613db2565b611dc05760405162461bcd60e51b81526004016108e090615680565b6060816132c75750506040805180820190915260018152600360fc1b602082015290565b8160005b81156132f157806132db81614cc0565b91506132ea9050600a83614c2c565b91506132cb565b6000816001600160401b0381111561330b5761330b614279565b6040519080825280601f01601f191660200182016040528015613335576020820181803683370190505b5090505b84156112345761334a600183614c40565b9150613357600a866156d2565b613362906030614ca8565b60f81b81838151811061337757613377614c92565b60200101906001600160f81b031916908160001a905350613399600a86614c2c565b9450613339565b606080606061346b6017600086815260200190815260200160002080546133c690614c57565b80601f01602080910402602001604051908101604052809291908181526020018280546133f290614c57565b801561343f5780601f106134145761010080835404028352916020019161343f565b820191906000526020600020905b81548152906001019060200180831161342257829003601f168201915b505050505060405180604001604052806009815260200168776f726b73686f707360b81b815250613ead565b156134995760405180604001604052806009815260200168576f726b73686f707360b81b8152509150613792565b6000848152601760205260409020805461356191906134b790614c57565b80601f01602080910402602001604051908101604052809291908181526020018280546134e390614c57565b80156135305780601f1061350557610100808354040283529160200191613530565b820191906000526020600020905b81548152906001019060200180831161351357829003601f168201915b50505050506040518060400160405280600e81526020016d686f74656c576f726b73686f707360901b815250613ead565b156135885750604080518082019091526005815264121bdd195b60da1b6020820152613792565b6000848152601760205260409020805461365691906135a690614c57565b80601f01602080910402602001604051908101604052809291908181526020018280546135d290614c57565b801561361f5780601f106135f45761010080835404028352916020019161361f565b820191906000526020600020905b81548152906001019060200180831161360257829003601f168201915b505050505060405180604001604052806014815260200173776f726b73686f7073416e64507265506172747960601b815250613ead565b15613698576040518060400160405280601781526020017f576f726b73686f707320262620707265706172746965730000000000000000008152509150613792565b6000848152601760205260409020805461376f91906136b690614c57565b80601f01602080910402602001604051908101604052809291908181526020018280546136e290614c57565b801561372f5780601f106137045761010080835404028352916020019161372f565b820191906000526020600020905b81548152906001019060200180831161371257829003601f168201915b50505050506040518060400160405280601981526020017f686f74656c576f726b73686f7073416e64507265506172747900000000000000815250613ead565b156137925750604080518082019091526005815264121bdd195b60da1b60208201525b6000848152601760205260409020805461384391906137b090614c57565b80601f01602080910402602001604051908101604052809291908181526020018280546137dc90614c57565b80156138295780601f106137fe57610100808354040283529160200191613829565b820191906000526020600020905b81548152906001019060200180831161380c57829003601f168201915b505050505060405180602001604052806000815250613ead565b156138f4576000848152601860205260409020805461386190614c57565b80601f016020809104026020016040519081016040528092919081815260200182805461388d90614c57565b80156138da5780601f106138af576101008083540402835291602001916138da565b820191906000526020600020905b8154815290600101906020018083116138bd57829003601f168201915b505050505091506040518060200160405280600081525090505b60006138ff85613f06565b9050600061390c86611a7e565b6000878152601160209081526040918290209151613935939288928892889260090191016156e6565b60408051601f198184030181529190529695505050505050565b606081516000141561396f57505060408051602081019091526000815290565b6000604051806060016040528060408152602001615d82604091399050600060038451600261399e9190614ca8565b6139a89190614c2c565b6139b3906004614e2f565b905060006139c2826020614ca8565b6001600160401b038111156139d9576139d9614279565b6040519080825280601f01601f191660200182016040528015613a03576020820181803683370190505b509050818152600183018586518101602084015b81831015613a6f576003830192508251603f8160121c168501518253600182019150603f81600c1c168501518253600182019150603f8160061c168501518253600182019150603f8116850151825350600101613a17565b600389510660018114613a895760028114613a9a57613aa6565b613d3d60f01b600119830152613aa6565b603d60f81b6000198301525b509398975050505050505050565b60606000613ac3836002614e2f565b613ace906002614ca8565b6001600160401b03811115613ae557613ae5614279565b6040519080825280601f01601f191660200182016040528015613b0f576020820181803683370190505b509050600360fc1b81600081518110613b2a57613b2a614c92565b60200101906001600160f81b031916908160001a905350600f60fb1b81600181518110613b5957613b59614c92565b60200101906001600160f81b031916908160001a9053506000613b7d846002614e2f565b613b88906001614ca8565b90505b6001811115611d86576f181899199a1a9b1b9c1cb0b131b232b360811b85600f1660108110613bbc57613bbc614c92565b1a60f81b828281518110613bd257613bd2614c92565b60200101906001600160f81b031916908160001a90535060049490941c93613bf981615c3e565b9050613b8b565b6001600160a01b038216613c565760405162461bcd60e51b815260206004820181905260248201527f4552433732313a206d696e7420746f20746865207a65726f206164647265737360448201526064016108e0565b6000818152600260205260409020546001600160a01b031615613cbb5760405162461bcd60e51b815260206004820152601c60248201527f4552433732313a20746f6b656e20616c7265616479206d696e7465640000000060448201526064016108e0565b6001600160a01b0382166000908152600360205260408120805460019290613ce4908490614ca8565b909155505060008181526002602052604080822080546001600160a01b0319166001600160a01b03861690811790915590518392907fddf252ad1be2c89b69c2b068fc378daa952ba7f163c4a11628f55a4df523b3ef908290a45050565b600082858584604051602001613d5b9493929190615c55565b604051602081830303815290604052805190602001209050949350505050565b600081901a60f81b6001600160f81b03191660ff60f01b600183901a60f01b161760ff60e81b60029290921a60e81b919091161790565b60006001600160a01b0384163b15613ea557604051630a85bd0160e11b81526001600160a01b0385169063150b7a0290613df6903390899088908890600401615ca2565b6020604051808303816000875af1925050508015613e31575060408051601f3d908101601f19168201909252613e2e91810190615cdf565b60015b613e8b573d808015613e5f576040519150601f19603f3d011682016040523d82523d6000602084013e613e64565b606091505b508051613e835760405162461bcd60e51b81526004016108e090615680565b805181602001fd5b6001600160e01b031916630a85bd0160e11b149050611234565b506001611234565b600081604051602001613ec09190614dfa565b6040516020818303038152906040528051906020012083604051602001613ee79190614dfa565b6040516020818303038152906040528051906020012014905092915050565b606081613f2a5750506040805180820190915260018152600360fc1b602082015290565b8160005b8115613f545780613f3e81614cc0565b9150613f4d9050600a83614c2c565b9150613f2e565b6000816001600160401b03811115613f6e57613f6e614279565b6040519080825280601f01601f191660200182016040528015613f98576020820181803683370190505b509050815b851561402557613fae600182614c40565b90506000613fbd600a88614c2c565b613fc890600a614e2f565b613fd29088614c40565b613fdd906030615cfc565b905060008160f81b905080848481518110613ffa57613ffa614c92565b60200101906001600160f81b031916908160001a90535061401c600a89614c2c565b97505050613f9d565b50949350505050565b82805461403a90614c57565b90600052602060002090601f01602090048101928261405c57600085556140a2565b82601f1061407557805160ff19168380011785556140a2565b828001600101855582156140a2579182015b828111156140a2578251825591602001919060010190614087565b506140ae92915061410b565b5090565b8280548282559060005260206000209081019282156140ff579160200282015b828111156140ff57825180516140ef91849160209091019061402e565b50916020019190600101906140d2565b506140ae929150614120565b5b808211156140ae576000815560010161410c565b808211156140ae576000614134828261413d565b50600101614120565b50805461414990614c57565b6000825580601f10614159575050565b601f016020900490600052602060002090810190614177919061410b565b50565b60006020828403121561418c57600080fd5b5035919050565b6001600160e01b03198116811461417757600080fd5b6000602082840312156141bb57600080fd5b81356141c681614193565b9392505050565b60005b838110156141e85781810151838201526020016141d0565b83811115611dc05750506000910152565b600081518084526142118160208601602086016141cd565b601f01601f19169290920160200192915050565b6020815260006141c660208301846141f9565b6001600160a01b038116811461417757600080fd5b6000806040838503121561426057600080fd5b823561426b81614238565b946020939093013593505050565b634e487b7160e01b600052604160045260246000fd5b60405161014081016001600160401b03811182821017156142b2576142b2614279565b60405290565b60405160a081016001600160401b03811182821017156142b2576142b2614279565b604051601f8201601f191681016001600160401b038111828210171561430257614302614279565b604052919050565b60006001600160401b0382111561432357614323614279565b5060051b60200190565b60006001600160401b0383111561434657614346614279565b614359601f8401601f19166020016142da565b905082815283838301111561436d57600080fd5b828260208301376000602084830101529392505050565b600082601f83011261439557600080fd5b6141c68383356020850161432d565b600061014082840312156143b757600080fd5b6143bf61428f565b905081356001600160401b03808211156143d857600080fd5b6143e485838601614384565b835260208401359150808211156143fa57600080fd5b61440685838601614384565b6020840152604084013591508082111561441f57600080fd5b61442b85838601614384565b6040840152606084013591508082111561444457600080fd5b61445085838601614384565b6060840152608084013591508082111561446957600080fd5b61447585838601614384565b608084015260a084013591508082111561448e57600080fd5b61449a85838601614384565b60a084015260c08401359150808211156144b357600080fd5b6144bf85838601614384565b60c084015260e08401359150808211156144d857600080fd5b6144e485838601614384565b60e0840152610100915081840135818111156144ff57600080fd5b61450b86828701614384565b83850152506101209150818401358181111561452657600080fd5b61453286828701614384565b8385015250505092915050565b8035801515811461454f57600080fd5b919050565b60006040828403121561456657600080fd5b604051604081018181106001600160401b038211171561458857614588614279565b6040529050806145978361453f565b8152602083013560208201525092915050565b600060208083850312156145bd57600080fd5b82356001600160401b03808211156145d457600080fd5b818501915085601f8301126145e857600080fd5b81356145fb6145f68261430a565b6142da565b81815260059190911b8301840190848101908883111561461a57600080fd5b8585015b8381101561470f578035858111156146365760008081fd5b860160c0818c03601f1901121561464d5760008081fd5b6146556142b8565b88820135878111156146675760008081fd5b6146758d8b838601016143a4565b8252506040808301358881111561468c5760008081fd5b61469a8e8c83870101614384565b8b84015250606080840135898111156146b35760008081fd5b6146c18f8d83880101614384565b83850152506080915081840135898111156146dc5760008081fd5b6146ea8f8d83880101614384565b8285015250506146fd8d60a08501614554565b9082015284525091860191860161461e565b5098975050505050505050565b60008060006060848603121561473157600080fd5b833561473c81614238565b9250602084013561474c81614238565b929592945050506040919091013590565b60006020828403121561476f57600080fd5b81356001600160401b0381111561478557600080fd5b61123484828501614384565b6000806000606084860312156147a657600080fd5b833592506147b66020850161453f565b91506147c46040850161453f565b90509250925092565b600080600080608085870312156147e357600080fd5b84356147ee81614238565b935060208501356147fe81614238565b9250604085013561480e81614238565b9396929550929360600135925050565b60008060006060848603121561483357600080fd5b833592506148436020850161453f565b9150604084013590509250925092565b60006020828403121561486557600080fd5b81356141c681614238565b6000806040838503121561488357600080fd5b823561488e81614238565b915060208301356001600160401b038111156148a957600080fd5b6148b585828601614384565b9150509250929050565b6000806000606084860312156148d457600080fd5b83356148df81614238565b92506020848101356001600160401b03808211156148fc57600080fd5b818701915087601f83011261491057600080fd5b813561491e6145f68261430a565b81815260059190911b8301840190848101908a83111561493d57600080fd5b8585015b83811015614975578035858111156149595760008081fd5b6149678d89838a0101614384565b845250918601918601614941565b50979a979950505050604095909501359450505050565b6000806040838503121561499f57600080fd5b82356149aa81614238565b91506149b86020840161453f565b90509250929050565b600080600080608085870312156149d757600080fd5b84356149e281614238565b935060208501356149f281614238565b92506040850135915060608501356001600160401b03811115614a1457600080fd5b8501601f81018713614a2557600080fd5b614a348782356020840161432d565b91505092959194509250565b60008060408385031215614a5357600080fd5b82356001600160401b03811115614a6957600080fd5b614a7585828601614384565b95602094909401359450505050565b6000610140808352614a988184018e6141f9565b90508281036020840152614aac818d6141f9565b90508281036040840152614ac0818c6141f9565b90508281036060840152614ad4818b6141f9565b90508281036080840152614ae8818a6141f9565b905082810360a0840152614afc81896141f9565b905082810360c0840152614b1081886141f9565b905082810360e0840152614b2481876141f9565b9050828103610100840152614b3981866141f9565b9050828103610120840152614b4e81856141f9565b9d9c50505050505050505050505050565b604081526000835160206040840152614b7b60608401826141f9565b9150508260208301529392505050565b60008060408385031215614b9e57600080fd5b8235915060208301356001600160401b03811115614bbb57600080fd5b6148b5858286016143a4565b60008060408385031215614bda57600080fd5b8235614be581614238565b91506020830135614bf581614238565b809150509250929050565b634e487b7160e01b600052601260045260246000fd5b634e487b7160e01b600052601160045260246000fd5b600082614c3b57614c3b614c00565b500490565b600082821015614c5257614c52614c16565b500390565b600181811c90821680614c6b57607f821691505b60208210811415614c8c57634e487b7160e01b600052602260045260246000fd5b50919050565b634e487b7160e01b600052603260045260246000fd5b60008219821115614cbb57614cbb614c16565b500190565b6000600019821415614cd457614cd4614c16565b5060010190565b60208082526031908201527f4552433732313a207472616e736665722063616c6c6572206973206e6f74206f6040820152701ddb995c881b9bdc88185c1c1c9bdd9959607a1b606082015260800190565b6020808252600a908201526937b7363c9037bbb732b960b11b604082015260600190565b6000808354614d5e81614c57565b60018281168015614d765760018114614d8857614db5565b60ff1984168752602087019450614db5565b8760005260208060002060005b85811015614dae5781548a820152908401908201614d95565b8901965050505b50929695505050505050565b600060208284031215614dd357600080fd5b81516141c681614238565b60008151614df08185602086016141cd565b9290920192915050565b60008251614e0c8184602087016141cd565b9190910192915050565b600060208284031215614e2857600080fd5b5051919050565b6000816000190483118215151615614e4957614e49614c16565b500290565b60408152600060808201835160408085015281815180845260a08601915060a08160051b87010193506020808401935060005b82811015614eaf57609f19888703018452614e9d8686516141f9565b95509381019392810192600101614e81565b5087810151606088015286850390870152505060128252507139b2ba103234b9b1b7bab73a10313abcb2b960711b602082015260408101611234565b60008751614efd818460208c016141cd565b80830190507f2220706f696e74733d223235352e393233312c3231322e3332203132372e393681527f31312c30203132352e313636312c392e35203132352e313636312c3238352e3160208201527f3638203132372e393631312c3238372e3935382022202f3e3c706f6c79676f6e6040820152672066696c6c3d222360c01b60608201528751614f95816068840160208c016141cd565b7f2220706f696e74733d22302c3231322e3332203132372e3936322c3238372e39606892909101918201527f3539203132372e3936322c3135342e313538203132372e3936322c302022202f6088820152703e3c706f6c79676f6e2066696c6c3d222360781b60a882015286516150138160b9840160208b016141cd565b6151a76151a161513561512f6150cc6150c660b9878901017f2220706f696e74733d223235352e393939312c3233362e35383636203132372e81527f393631312c3331322e31383636203132362e333836312c3331342e313036362060208201527f3132362e333836312c3431322e33303536203132372e393631312c3431362e3960408201527f3036362022202f3e203c706f6c79676f6e2066696c6c3d222300000000000000606082015260790190565b8c614dde565b7f2220706f696e74733d223132372e3936322c3431362e39303532203132372e3981527f36322c3331322e3138353220302c3233362e353835322022202f3e3c706f6c7960208201526a676f6e2066696c6c3d222360a81b6040820152604b0190565b89614dde565b7f2220706f696e74733d223132372e393631312c3238372e39353737203235352e81527f393231312c3231322e33323037203132372e393631312c3135342e313538372060208201527322202f3e3c706f6c79676f6e2066696c6c3d222360601b604082015260540190565b86614dde565b9a9950505050505050505050565b704554484475626169205469636b6574202360781b8152600082516151e18160118501602087016141cd565b9190910160110192915050565b600081546151fb81614c57565b60018281168015615213576001811461522457615253565b60ff19841687528287019450615253565b8560005260208060002060005b8581101561524a5781548a820152908401908201615231565b50505082870194505b5050505092915050565b683d913730b6b2911d1160b91b81528651600090615282816009850160208c016141cd565b71111610113232b9b1b934b83a34b7b7111d1160711b60099184019182015287516152b481601b840160208c016141cd565b7f222c202265787465726e616c5f75726c223a2268747470733a2f2f7777772e65601b92909101918201527574686475626169636f6e662e6f72672f746f6b656e2f60501b603b8201528651615311816051840160208b016141cd565b7f222c202261747472696275746573223a205b7b2274726169745f74797065223a6051929091019182015275101137b83a34b7b739911610113b30b63ab2911d101160511b60718201526153d86153ca6151a161539161512f615377608787018c6151ee565b6d113eae96101137bbb732b9111d1160911b8152600e0190565b7f222c2022696d616765223a2022646174613a696d6167652f7376672b786d6c3b81526618985cd94d8d0b60ca1b602082015260270190565b61227d60f01b815260020190565b9998505050505050505050565b7f646174613a6170706c69636174696f6e2f6a736f6e3b6261736536342c00000081526000825161541d81601d8501602087016141cd565b91909101601d0192915050565b60408152600082516101408060408501526154496101808501836141f9565b91506020850151603f198086850301606087015261546784836141f9565b9350604087015191508086850301608087015261548484836141f9565b935060608701519150808685030160a08701526154a184836141f9565b935060808701519150808685030160c08701526154be84836141f9565b935060a08701519150808685030160e08701526154db84836141f9565b935060c087015191506101008187860301818801526154fa85846141f9565b945060e0880151925061012082888703018189015261551986856141f9565b955081890151935082888703018589015261553486856141f9565b955080890151945050508086850301610160870152505061555582826141f9565b9150508281036020840152611234816012815271757064617465417474656e646565496e666f60701b602082015260400190565b6000815161559b8185602086016141cd565b601f01601f19169290920192915050565b6000815180516155c08186602085016141cd565b601f01601f1916939093019392505050565b815180518051600092916020908101918591855b8281101561561857845180516155ff81878685016141cd565b95830195601f01601f19169490940193506001016155e6565b5080850151835261567461566a61565d61565061563a858801868e01516155ac565b60408d01516001600160a01b0316815260200190565b60608c0151815260200190565b60808b0151815260200190565b60a08a0151615589565b98975050505050505050565b60208082526032908201527f4552433732313a207472616e7366657220746f206e6f6e20455243373231526560408201527131b2b4bb32b91034b6b83632b6b2b73a32b960711b606082015260800190565b6000826156e1576156e1614c00565b500690565b7f3c7376672077696474683d2236303622206865696768743d223333342220786d81527f6c6e733d22687474703a2f2f7777772e77332e6f72672f323030302f7376672260208201527f3e3c67207472616e73666f726d3d226d617472697828302e373230363432343860408201527f2c302c302c302e37323036343234382c31372e3930363439312c31342e30303960608201527534333429223e3c706f6c79676f6e2066696c6c3d222360501b6080820152600086516157af816096850160208b016141cd565b7f2220706f696e74733d22302e303030392c3231322e33323038203132372e39366096918401918201527f30392c3238372e39353738203132372e393630392c3135342e3135383820222060b68201527f2f3e3c2f673e3c74657874207374796c653d22666f6e742d73697a653a34307060d68201527f783b6c696e652d6865696768743a312e32353b666f6e742d66616d696c793a7360f68201527f616e732d73657269663b66696c6c3a233030303030303b2220783d223234312e6101168201527f39313535362220793d223134332e303131373822203e436f6e666572656e6365610136820152600080516020615d62833981519152610156820152600080516020615d22833981519152610176820152600080516020615d428339815191526101968201527f312e39313535362220793d223138322e3534323937223e0000000000000000006101b6820152615674615ae0615ada615a7561512f615a106150c66159226101cd89018f614dde565b600080516020615d628339815191528152600080516020615d228339815191526020820152600080516020615d4283398151915260408201527f312e39313535362220793d223232322e3832353834223e3c2f746578743e203c60608201527f74657874207374796c653d22666f6e742d73697a653a343070783b6c696e652d60808201527f6865696768743a312e32353b666f6e742d66616d696c793a73616e732d73657260a08201527f69663b66696c6c3a233030303030303b2220783d223234312e3931353536222060c08201526d3c9e91191b1b17191c199a1a911f60911b60e082015260ee0190565b600080516020615d628339815191528152600080516020615d228339815191526020820152600080516020615d4283398151915260408201527f312e39313535362220793d2238372e313634363838223e230000000000000000606082015260780190565b600080516020615d628339815191528152600080516020615d228339815191526020820152600080516020615d4283398151915260408201527f312e39313535362220793d223331352e3832393731223e400000000000000000606082015260780190565b866151ee565b600080516020615d628339815191528152600080516020615d228339815191526020820152600080516020615d4283398151915260408201527f312e39313535362220793d2233392e323933353536223e45544844756261692060608201527f5469636b65743c2f746578743e3c72656374207374796c653d2266696c6c3a6e60808201527f6f6e653b7374726f6b653a233030303030303b7374726f6b652d77696474683a60a08201527f332e303537323b7374726f6b652d6d697465726c696d69743a343b7374726f6b60c08201527f652d6461736861727261793a6e6f6e65222069643d227265637432393530222060e08201527f77696474683d223630322e393734323422206865696768743d223333312e36346101008201527f3638352220783d22302220793d2230222072793d2231302e303738383432222061012082015267179f1e17b9bb339f60c11b6101408201526101480190565b600081615c4d57615c4d614c16565b506000190190565b84815260006bffffffffffffffffffffffff19808660601b166020840152808560601b166034840152508251615c928160488501602087016141cd565b9190910160480195945050505050565b6001600160a01b0385811682528416602082015260408101839052608060608201819052600090615cd5908301846141f9565b9695505050505050565b600060208284031215615cf157600080fd5b81516141c681614193565b600060ff821660ff84168060ff03821115615d1957615d19614c16565b01939250505056fe3070783b6c696e652d6865696768743a312e32353b666f6e742d66616d696c793a73616e732d73657269663b66696c6c3a233030303030303b2220783d2232343c2f746578743e203c74657874207374796c653d22666f6e742d73697a653a344142434445464748494a4b4c4d4e4f505152535455565758595a6162636465666768696a6b6c6d6e6f707172737475767778797a303132333435363738392b2fa2646970667358221220c97c0dafb5bf2680ac691c8c41f6cf133cc60df14c8e4be3b65e7d9c40a0002e64736f6c634300080a0033",
  "linkReferences": {},
  "deployedLinkReferences": {}
}