{
  "_format": "hh-sol-artifact-1",
  "contractName": "ETHDubaiTicket",
  "sourceName": "contracts/ETHDubaiTicket.sol",
  "abi": [
    {
      "inputs": [],
      "stateMutability": "nonpayable",
      "type": "constructor"
    },
    {
      "anonymous": false,
      "inputs": [
        {
          "indexed": true,
          "internalType": "address",
          "name": "owner",
          "type": "address"
        },
        {
          "indexed": true,
          "internalType": "address",
          "name": "approved",
          "type": "address"
        },
        {
          "indexed": true,
          "internalType": "uint256",
          "name": "tokenId",
          "type": "uint256"
        }
      ],
      "name": "Approval",
      "type": "event"
    },
    {
      "anonymous": false,
      "inputs": [
        {
          "indexed": true,
          "internalType": "address",
          "name": "owner",
          "type": "address"
        },
        {
          "indexed": true,
          "internalType": "address",
          "name": "operator",
          "type": "address"
        },
        {
          "indexed": false,
          "internalType": "bool",
          "name": "approved",
          "type": "bool"
        }
      ],
      "name": "ApprovalForAll",
      "type": "event"
    },
    {
      "anonymous": false,
      "inputs": [
        {
          "indexed": true,
          "internalType": "address",
          "name": "sender",
          "type": "address"
        },
        {
          "indexed": false,
          "internalType": "string",
          "name": "message",
          "type": "string"
        }
      ],
      "name": "Log",
      "type": "event"
    },
    {
      "anonymous": false,
      "inputs": [
        {
          "indexed": true,
          "internalType": "uint256",
          "name": "id",
          "type": "uint256"
        },
        {
          "components": [
            {
              "internalType": "string",
              "name": "email",
              "type": "string"
            },
            {
              "internalType": "string",
              "name": "fname",
              "type": "string"
            },
            {
              "internalType": "string",
              "name": "lname",
              "type": "string"
            },
            {
              "internalType": "string",
              "name": "twitter",
              "type": "string"
            },
            {
              "internalType": "string",
              "name": "bio",
              "type": "string"
            },
            {
              "internalType": "string",
              "name": "job",
              "type": "string"
            },
            {
              "internalType": "string",
              "name": "company",
              "type": "string"
            },
            {
              "internalType": "string",
              "name": "diet",
              "type": "string"
            },
            {
              "internalType": "string",
              "name": "tshirt",
              "type": "string"
            },
            {
              "internalType": "string",
              "name": "telegram",
              "type": "string"
            }
          ],
          "indexed": false,
          "internalType": "struct ETHDubaiTicket.AttendeeInfo",
          "name": "attendeeInfo",
          "type": "tuple"
        },
        {
          "indexed": false,
          "internalType": "string",
          "name": "message",
          "type": "string"
        }
      ],
      "name": "LogAttendeeInfo",
      "type": "event"
    },
    {
      "anonymous": false,
      "inputs": [
        {
          "indexed": true,
          "internalType": "address",
          "name": "sender",
          "type": "address"
        },
        {
          "components": [
            {
              "internalType": "string[]",
              "name": "ticketOptions",
              "type": "string[]"
            },
            {
              "internalType": "uint256",
              "name": "amount",
              "type": "uint256"
            }
          ],
          "indexed": false,
          "internalType": "struct ETHDubaiTicket.Discount",
          "name": "discount",
          "type": "tuple"
        },
        {
          "indexed": false,
          "internalType": "string",
          "name": "message",
          "type": "string"
        }
      ],
      "name": "LogDiscount",
      "type": "event"
    },
    {
      "anonymous": false,
      "inputs": [
        {
          "components": [
            {
              "components": [
                {
                  "internalType": "string[]",
                  "name": "ticketOptions",
                  "type": "string[]"
                },
                {
                  "internalType": "uint256",
                  "name": "amount",
                  "type": "uint256"
                }
              ],
              "internalType": "struct ETHDubaiTicket.Discount",
              "name": "discount",
              "type": "tuple"
            },
            {
              "components": [
                {
                  "internalType": "string",
                  "name": "name",
                  "type": "string"
                }
              ],
              "internalType": "struct ETHDubaiTicket.TicketSettings",
              "name": "ticketSettings",
              "type": "tuple"
            },
            {
              "internalType": "address",
              "name": "buyer",
              "type": "address"
            },
            {
              "internalType": "uint256",
              "name": "amount",
              "type": "uint256"
            },
            {
              "internalType": "uint256",
              "name": "tokenId",
              "type": "uint256"
            },
            {
              "internalType": "string",
              "name": "ticketOption",
              "type": "string"
            }
          ],
          "indexed": true,
          "internalType": "struct ETHDubaiTicket.MintLog",
          "name": "mintLog",
          "type": "tuple"
        },
        {
          "indexed": false,
          "internalType": "string",
          "name": "message",
          "type": "string"
        }
      ],
      "name": "LogMint",
      "type": "event"
    },
    {
      "anonymous": false,
      "inputs": [
        {
          "indexed": true,
          "internalType": "address",
          "name": "sender",
          "type": "address"
        },
        {
          "indexed": false,
          "internalType": "uint256",
          "name": "id",
          "type": "uint256"
        },
        {
          "indexed": false,
          "internalType": "string",
          "name": "message",
          "type": "string"
        }
      ],
      "name": "LogMintId",
      "type": "event"
    },
    {
      "anonymous": false,
      "inputs": [
        {
          "components": [
            {
              "internalType": "address",
              "name": "from",
              "type": "address"
            },
            {
              "internalType": "address",
              "name": "to",
              "type": "address"
            },
            {
              "internalType": "uint256",
              "name": "tokenId",
              "type": "uint256"
            },
            {
              "internalType": "uint256",
              "name": "amount",
              "type": "uint256"
            }
          ],
          "indexed": true,
          "internalType": "struct ETHDubaiTicket.ResellLog",
          "name": "resellLog",
          "type": "tuple"
        },
        {
          "indexed": false,
          "internalType": "string",
          "name": "message",
          "type": "string"
        }
      ],
      "name": "LogResell",
      "type": "event"
    },
    {
      "anonymous": false,
      "inputs": [
        {
          "indexed": true,
          "internalType": "uint256",
          "name": "id",
          "type": "uint256"
        },
        {
          "components": [
            {
              "internalType": "bool",
              "name": "isResellable",
              "type": "bool"
            },
            {
              "internalType": "uint256",
              "name": "price",
              "type": "uint256"
            }
          ],
          "indexed": false,
          "internalType": "struct ETHDubaiTicket.Resellable",
          "name": "resellable",
          "type": "tuple"
        },
        {
          "indexed": false,
          "internalType": "string",
          "name": "message",
          "type": "string"
        }
      ],
      "name": "LogResellable",
      "type": "event"
    },
    {
      "anonymous": false,
      "inputs": [
        {
          "indexed": true,
          "internalType": "uint256",
          "name": "id",
          "type": "uint256"
        },
        {
          "indexed": false,
          "internalType": "bool",
          "name": "value",
          "type": "bool"
        },
        {
          "indexed": false,
          "internalType": "string",
          "name": "message",
          "type": "string"
        }
      ],
      "name": "LogTicketAction",
      "type": "event"
    },
    {
      "anonymous": false,
      "inputs": [
        {
          "components": [
            {
              "internalType": "string",
              "name": "name",
              "type": "string"
            }
          ],
          "indexed": true,
          "internalType": "struct ETHDubaiTicket.TicketSettings",
          "name": "ticketSettings",
          "type": "tuple"
        },
        {
          "indexed": false,
          "internalType": "string",
          "name": "message",
          "type": "string"
        }
      ],
      "name": "LogTicketSettings",
      "type": "event"
    },
    {
      "anonymous": false,
      "inputs": [
        {
          "indexed": true,
          "internalType": "uint256",
          "name": "tokenId",
          "type": "uint256"
        },
        {
          "indexed": false,
          "internalType": "string",
          "name": "message",
          "type": "string"
        }
      ],
      "name": "LogUint",
      "type": "event"
    },
    {
      "anonymous": false,
      "inputs": [
        {
          "indexed": true,
          "internalType": "address",
          "name": "from",
          "type": "address"
        },
        {
          "indexed": true,
          "internalType": "address",
          "name": "to",
          "type": "address"
        },
        {
          "indexed": true,
          "internalType": "uint256",
          "name": "tokenId",
          "type": "uint256"
        }
      ],
      "name": "Transfer",
      "type": "event"
    },
    {
      "inputs": [
        {
          "internalType": "uint256",
          "name": "",
          "type": "uint256"
        }
      ],
      "name": "_idToAttendeeInfo",
      "outputs": [
        {
          "internalType": "string",
          "name": "email",
          "type": "string"
        },
        {
          "internalType": "string",
          "name": "fname",
          "type": "string"
        },
        {
          "internalType": "string",
          "name": "lname",
          "type": "string"
        },
        {
          "internalType": "string",
          "name": "twitter",
          "type": "string"
        },
        {
          "internalType": "string",
          "name": "bio",
          "type": "string"
        },
        {
          "internalType": "string",
          "name": "job",
          "type": "string"
        },
        {
          "internalType": "string",
          "name": "company",
          "type": "string"
        },
        {
          "internalType": "string",
          "name": "diet",
          "type": "string"
        },
        {
          "internalType": "string",
          "name": "tshirt",
          "type": "string"
        },
        {
          "internalType": "string",
          "name": "telegram",
          "type": "string"
        }
      ],
      "stateMutability": "view",
      "type": "function"
    },
    {
      "inputs": [
        {
          "internalType": "uint256",
          "name": "",
          "type": "uint256"
        }
      ],
      "name": "_idToCanceled",
      "outputs": [
        {
          "internalType": "bool",
          "name": "",
          "type": "bool"
        }
      ],
      "stateMutability": "view",
      "type": "function"
    },
    {
      "inputs": [
        {
          "internalType": "uint256",
          "name": "",
          "type": "uint256"
        }
      ],
      "name": "_idToColors",
      "outputs": [
        {
          "internalType": "bytes3",
          "name": "color1",
          "type": "bytes3"
        },
        {
          "internalType": "bytes3",
          "name": "color2",
          "type": "bytes3"
        },
        {
          "internalType": "bytes3",
          "name": "color3",
          "type": "bytes3"
        },
        {
          "internalType": "bytes3",
          "name": "color4",
          "type": "bytes3"
        },
        {
          "internalType": "bytes3",
          "name": "color5",
          "type": "bytes3"
        }
      ],
      "stateMutability": "view",
      "type": "function"
    },
    {
      "inputs": [
        {
          "internalType": "uint256",
          "name": "",
          "type": "uint256"
        }
      ],
      "name": "_idToScanned",
      "outputs": [
        {
          "internalType": "bool",
          "name": "",
          "type": "bool"
        }
      ],
      "stateMutability": "view",
      "type": "function"
    },
    {
      "inputs": [
        {
          "internalType": "uint256",
          "name": "",
          "type": "uint256"
        }
      ],
      "name": "_idToSpecialStatus",
      "outputs": [
        {
          "internalType": "string",
          "name": "",
          "type": "string"
        }
      ],
      "stateMutability": "view",
      "type": "function"
    },
    {
      "inputs": [
        {
          "internalType": "uint256",
          "name": "",
          "type": "uint256"
        }
      ],
      "name": "_idToTicketCode",
      "outputs": [
        {
          "internalType": "string",
          "name": "",
          "type": "string"
        }
      ],
      "stateMutability": "view",
      "type": "function"
    },
    {
      "inputs": [
        {
          "internalType": "uint256",
          "name": "",
          "type": "uint256"
        }
      ],
      "name": "_idToTicketOption",
      "outputs": [
        {
          "internalType": "string",
          "name": "",
          "type": "string"
        }
      ],
      "stateMutability": "view",
      "type": "function"
    },
    {
      "inputs": [
        {
          "internalType": "uint256",
          "name": "",
          "type": "uint256"
        }
      ],
      "name": "_idToTicketResellable",
      "outputs": [
        {
          "internalType": "bool",
          "name": "isResellable",
          "type": "bool"
        },
        {
          "internalType": "uint256",
          "name": "price",
          "type": "uint256"
        }
      ],
      "stateMutability": "view",
      "type": "function"
    },
    {
      "inputs": [
        {
          "internalType": "address",
          "name": "to",
          "type": "address"
        },
        {
          "internalType": "uint256",
          "name": "tokenId",
          "type": "uint256"
        }
      ],
      "name": "approve",
      "outputs": [],
      "stateMutability": "nonpayable",
      "type": "function"
    },
    {
      "inputs": [
        {
          "internalType": "address",
          "name": "owner",
          "type": "address"
        }
      ],
      "name": "balanceOf",
      "outputs": [
        {
          "internalType": "uint256",
          "name": "",
          "type": "uint256"
        }
      ],
      "stateMutability": "view",
      "type": "function"
    },
    {
      "inputs": [
        {
          "internalType": "uint256",
          "name": "id",
          "type": "uint256"
        },
        {
          "internalType": "bool",
          "name": "canceled",
          "type": "bool"
        }
      ],
      "name": "cancelTicket",
      "outputs": [
        {
          "internalType": "bool",
          "name": "",
          "type": "bool"
        }
      ],
      "stateMutability": "nonpayable",
      "type": "function"
    },
    {
      "inputs": [
        {
          "internalType": "bytes32",
          "name": "",
          "type": "bytes32"
        }
      ],
      "name": "forSale",
      "outputs": [
        {
          "internalType": "bool",
          "name": "",
          "type": "bool"
        }
      ],
      "stateMutability": "view",
      "type": "function"
    },
    {
      "inputs": [
        {
          "internalType": "uint256",
          "name": "tokenId",
          "type": "uint256"
        }
      ],
      "name": "getApproved",
      "outputs": [
        {
          "internalType": "address",
          "name": "",
          "type": "address"
        }
      ],
      "stateMutability": "view",
      "type": "function"
    },
    {
      "inputs": [
        {
          "internalType": "address",
          "name": "sender",
          "type": "address"
        },
        {
          "internalType": "string",
          "name": "ticketOption",
          "type": "string"
        }
      ],
      "name": "getPrice",
      "outputs": [
        {
          "internalType": "uint256",
          "name": "",
          "type": "uint256"
        }
      ],
      "stateMutability": "view",
      "type": "function"
    },
    {
      "inputs": [
        {
          "internalType": "address",
          "name": "owner",
          "type": "address"
        },
        {
          "internalType": "address",
          "name": "operator",
          "type": "address"
        }
      ],
      "name": "isApprovedForAll",
      "outputs": [
        {
          "internalType": "bool",
          "name": "",
          "type": "bool"
        }
      ],
      "stateMutability": "view",
      "type": "function"
    },
    {
      "inputs": [
        {
          "internalType": "uint256",
          "name": "id",
          "type": "uint256"
        },
        {
          "internalType": "bool",
          "name": "scanned",
          "type": "bool"
        }
      ],
      "name": "markAsScanned",
      "outputs": [
        {
          "internalType": "bool",
          "name": "",
          "type": "bool"
        }
      ],
      "stateMutability": "nonpayable",
      "type": "function"
    },
    {
      "inputs": [
        {
          "components": [
            {
              "components": [
                {
                  "internalType": "string",
                  "name": "email",
                  "type": "string"
                },
                {
                  "internalType": "string",
                  "name": "fname",
                  "type": "string"
                },
                {
                  "internalType": "string",
                  "name": "lname",
                  "type": "string"
                },
                {
                  "internalType": "string",
                  "name": "twitter",
                  "type": "string"
                },
                {
                  "internalType": "string",
                  "name": "bio",
                  "type": "string"
                },
                {
                  "internalType": "string",
                  "name": "job",
                  "type": "string"
                },
                {
                  "internalType": "string",
                  "name": "company",
                  "type": "string"
                },
                {
                  "internalType": "string",
                  "name": "diet",
                  "type": "string"
                },
                {
                  "internalType": "string",
                  "name": "tshirt",
                  "type": "string"
                },
                {
                  "internalType": "string",
                  "name": "telegram",
                  "type": "string"
                }
              ],
              "internalType": "struct ETHDubaiTicket.AttendeeInfo",
              "name": "attendeeInfo",
              "type": "tuple"
            },
            {
              "internalType": "string",
              "name": "ticketCode",
              "type": "string"
            },
            {
              "internalType": "string",
              "name": "ticketOption",
              "type": "string"
            },
            {
              "internalType": "string",
              "name": "specialStatus",
              "type": "string"
            },
            {
              "components": [
                {
                  "internalType": "bool",
                  "name": "isResellable",
                  "type": "bool"
                },
                {
                  "internalType": "uint256",
                  "name": "price",
                  "type": "uint256"
                }
              ],
              "internalType": "struct ETHDubaiTicket.Resellable",
              "name": "resellable",
              "type": "tuple"
            }
          ],
          "internalType": "struct ETHDubaiTicket.MintInfo[]",
          "name": "mintInfos",
          "type": "tuple[]"
        }
      ],
      "name": "mintItem",
      "outputs": [
        {
          "internalType": "string",
          "name": "",
          "type": "string"
        }
      ],
      "stateMutability": "payable",
      "type": "function"
    },
    {
      "inputs": [],
      "name": "name",
      "outputs": [
        {
          "internalType": "string",
          "name": "",
          "type": "string"
        }
      ],
      "stateMutability": "view",
      "type": "function"
    },
    {
      "inputs": [],
      "name": "owner",
      "outputs": [
        {
          "internalType": "address payable",
          "name": "",
          "type": "address"
        }
      ],
      "stateMutability": "view",
      "type": "function"
    },
    {
      "inputs": [
        {
          "internalType": "uint256",
          "name": "tokenId",
          "type": "uint256"
        }
      ],
      "name": "ownerOf",
      "outputs": [
        {
          "internalType": "address",
          "name": "",
          "type": "address"
        }
      ],
      "stateMutability": "view",
      "type": "function"
    },
    {
      "inputs": [
        {
          "internalType": "uint256",
          "name": "id",
          "type": "uint256"
        }
      ],
      "name": "renderTokenById",
      "outputs": [
        {
          "internalType": "string",
          "name": "",
          "type": "string"
        }
      ],
      "stateMutability": "view",
      "type": "function"
    },
    {
      "inputs": [
        {
          "internalType": "uint256",
          "name": "tokenId",
          "type": "uint256"
        }
      ],
      "name": "resell",
      "outputs": [],
      "stateMutability": "payable",
      "type": "function"
    },
    {
      "inputs": [
        {
          "internalType": "address",
          "name": "from",
          "type": "address"
        },
        {
          "internalType": "address",
          "name": "to",
          "type": "address"
        },
        {
          "internalType": "uint256",
          "name": "tokenId",
          "type": "uint256"
        }
      ],
      "name": "safeTransferFrom",
      "outputs": [],
      "stateMutability": "nonpayable",
      "type": "function"
    },
    {
      "inputs": [
        {
          "internalType": "address",
          "name": "from",
          "type": "address"
        },
        {
          "internalType": "address",
          "name": "to",
          "type": "address"
        },
        {
          "internalType": "uint256",
          "name": "tokenId",
          "type": "uint256"
        },
        {
          "internalType": "bytes",
          "name": "_data",
          "type": "bytes"
        }
      ],
      "name": "safeTransferFrom",
      "outputs": [],
      "stateMutability": "nonpayable",
      "type": "function"
    },
    {
      "inputs": [
        {
          "internalType": "address",
          "name": "operator",
          "type": "address"
        },
        {
          "internalType": "bool",
          "name": "approved",
          "type": "bool"
        }
      ],
      "name": "setApprovalForAll",
      "outputs": [],
      "stateMutability": "nonpayable",
      "type": "function"
    },
    {
      "inputs": [
        {
          "internalType": "address",
          "name": "buyer",
          "type": "address"
        },
        {
          "internalType": "string[]",
          "name": "ticketDiscounts",
          "type": "string[]"
        },
        {
          "internalType": "uint256",
          "name": "amount",
          "type": "uint256"
        }
      ],
      "name": "setDiscount",
      "outputs": [
        {
          "internalType": "bool",
          "name": "",
          "type": "bool"
        }
      ],
      "stateMutability": "nonpayable",
      "type": "function"
    },
    {
      "inputs": [
        {
          "internalType": "uint256",
          "name": "newMaxMint",
          "type": "uint256"
        }
      ],
      "name": "setMaxMint",
      "outputs": [
        {
          "internalType": "uint256",
          "name": "",
          "type": "uint256"
        }
      ],
      "stateMutability": "nonpayable",
      "type": "function"
    },
    {
      "inputs": [
        {
          "internalType": "uint256",
          "name": "id",
          "type": "uint256"
        },
        {
          "internalType": "bool",
          "name": "isResellable",
          "type": "bool"
        },
        {
          "internalType": "uint256",
          "name": "price",
          "type": "uint256"
        }
      ],
      "name": "setResellable",
      "outputs": [
        {
          "internalType": "bool",
          "name": "",
          "type": "bool"
        }
      ],
      "stateMutability": "nonpayable",
      "type": "function"
    },
    {
      "inputs": [
        {
          "internalType": "string",
          "name": "name",
          "type": "string"
        },
        {
          "internalType": "uint256",
          "name": "amount",
          "type": "uint256"
        }
      ],
      "name": "setTicketOption",
      "outputs": [
        {
          "internalType": "bool",
          "name": "",
          "type": "bool"
        }
      ],
      "stateMutability": "nonpayable",
      "type": "function"
    },
    {
      "inputs": [
        {
          "internalType": "string",
          "name": "name",
          "type": "string"
        }
      ],
      "name": "setTicketSettings",
      "outputs": [
        {
          "internalType": "bool",
          "name": "",
          "type": "bool"
        }
      ],
      "stateMutability": "nonpayable",
      "type": "function"
    },
    {
      "inputs": [],
      "name": "settings",
      "outputs": [
        {
          "components": [
            {
              "internalType": "string",
              "name": "name",
              "type": "string"
            }
          ],
          "internalType": "struct ETHDubaiTicket.TicketSettings",
          "name": "ticketSettings",
          "type": "tuple"
        },
        {
          "internalType": "uint256",
          "name": "maxMint",
          "type": "uint256"
        }
      ],
      "stateMutability": "view",
      "type": "function"
    },
    {
      "inputs": [
        {
          "internalType": "bytes4",
          "name": "interfaceId",
          "type": "bytes4"
        }
      ],
      "name": "supportsInterface",
      "outputs": [
        {
          "internalType": "bool",
          "name": "",
          "type": "bool"
        }
      ],
      "stateMutability": "view",
      "type": "function"
    },
    {
      "inputs": [],
      "name": "symbol",
      "outputs": [
        {
          "internalType": "string",
          "name": "",
          "type": "string"
        }
      ],
      "stateMutability": "view",
      "type": "function"
    },
    {
      "inputs": [
        {
          "internalType": "uint256",
          "name": "id",
          "type": "uint256"
        }
      ],
      "name": "tokenURI",
      "outputs": [
        {
          "internalType": "string",
          "name": "",
          "type": "string"
        }
      ],
      "stateMutability": "view",
      "type": "function"
    },
    {
      "inputs": [
        {
          "internalType": "address",
          "name": "from",
          "type": "address"
        },
        {
          "internalType": "address",
          "name": "to",
          "type": "address"
        },
        {
          "internalType": "uint256",
          "name": "tokenId",
          "type": "uint256"
        }
      ],
      "name": "transferFrom",
      "outputs": [],
      "stateMutability": "nonpayable",
      "type": "function"
    },
    {
      "inputs": [
        {
          "internalType": "uint256",
          "name": "id",
          "type": "uint256"
        },
        {
          "components": [
            {
              "internalType": "string",
              "name": "email",
              "type": "string"
            },
            {
              "internalType": "string",
              "name": "fname",
              "type": "string"
            },
            {
              "internalType": "string",
              "name": "lname",
              "type": "string"
            },
            {
              "internalType": "string",
              "name": "twitter",
              "type": "string"
            },
            {
              "internalType": "string",
              "name": "bio",
              "type": "string"
            },
            {
              "internalType": "string",
              "name": "job",
              "type": "string"
            },
            {
              "internalType": "string",
              "name": "company",
              "type": "string"
            },
            {
              "internalType": "string",
              "name": "diet",
              "type": "string"
            },
            {
              "internalType": "string",
              "name": "tshirt",
              "type": "string"
            },
            {
              "internalType": "string",
              "name": "telegram",
              "type": "string"
            }
          ],
          "internalType": "struct ETHDubaiTicket.AttendeeInfo",
          "name": "attendeeInfo",
          "type": "tuple"
        }
      ],
      "name": "updateAttendeeInfo",
      "outputs": [
        {
          "internalType": "bool",
          "name": "",
          "type": "bool"
        }
      ],
      "stateMutability": "nonpayable",
      "type": "function"
    },
    {
      "inputs": [
        {
          "internalType": "bytes32",
          "name": "",
          "type": "bytes32"
        }
      ],
      "name": "uriToTokenId",
      "outputs": [
        {
          "internalType": "uint256",
          "name": "",
          "type": "uint256"
        }
      ],
      "stateMutability": "view",
      "type": "function"
    },
    {
      "inputs": [],
      "name": "withdraw",
      "outputs": [],
      "stateMutability": "nonpayable",
      "type": "function"
    }
  ],
  "bytecode": "0x60806040523480156200001157600080fd5b50604080518082018252600e81526d115512111d58985a551a58dad95d60921b602080830191825283518085019094526008845267455448445542414960c01b90840152815191929162000068916000916200032d565b5080516200007e9060019060208401906200032d565b505050336001600160a01b03167f0738f4da267a110d810e6e89fc59e46be6de0c37b1d5cd559b267dc3688e74e0604051620000de9060208082526010908201526f10dbdb9d1c9858dd0818dc99585d195960821b604082015260600190565b60405180910390a2600880546001600160a01b031916331790556001600a90815560408051606081018252602081018381526919585c9b1e48189a5c9960b21b92820192835281529160099162000138918391906200032d565b50506040805169636f6e666572656e636560b01b8152600c600a8201819052915190819003602a01812067016345785d8a00009055670776f726b73686f760c41b8152671bc16d674ec800009250600801908152604051908190036020018120919091556702c68af0bb14000090600c90620001d7907f776f726b73686f70416e64507265506172747900000000000000000000000000815260130190565b9081526040519081900360200181209190915567011c37937e08000090600c906200020e906573616661726960d01b815260060190565b908152604051908190036020018120919091556702c68af0bb14000090600c906200024e906e686f74656c436f6e666572656e636560881b8152600f0190565b90815260405190819003602001812091909155671dd6559bdb17000090600c906200028d906d686f74656c576f726b73686f707360901b8152600e0190565b9081526040519081900360200181209190915567058d15e17628000090600c90620002db907f686f74656c576f726b73686f7073416e64507265506172747900000000000000815260190190565b9081526040519081900360200181209190915567063eb89da4ed000090600c9062000317906a686f74656c53616661726960a81b8152600b0190565b9081526040519081900360200190205562000410565b8280546200033b90620003d3565b90600052602060002090601f0160209004810192826200035f5760008555620003aa565b82601f106200037a57805160ff1916838001178555620003aa565b82800160010185558215620003aa579182015b82811115620003aa5782518255916020019190600101906200038d565b50620003b8929150620003bc565b5090565b5b80821115620003b85760008155600101620003bd565b600181811c90821680620003e857607f821691505b602082108114156200040a57634e487b7160e01b600052602260045260246000fd5b50919050565b615fe780620004206000396000f3fe6080604052600436106102245760003560e01c80639334813711610123578063b9a34d92116100ab578063e0d116041161006f578063e0d1160414610724578063e136d28c14610744578063e985e9c514610764578063f5600d08146107ad578063fc471789146107cd57600080fd5b8063b9a34d921461066b578063c87b56dd1461068b578063ca6b7cec146106ab578063d18d48ae146106cb578063e06174e41461070157600080fd5b8063a2d6c6da116100f2578063a2d6c6da146105bb578063ab756c88146105db578063ae374b99146105ee578063b7416f2a1461061e578063b88d4fde1461064b57600080fd5b806393348137146104d057806395d89b41146104f0578063a011bc1514610505578063a22cb4651461059b57600080fd5b806342842e0e116101b157806368064d1e1161017557806368064d1e1461043057806370a082311461045057806376977a3a146104705780637f7819a7146104905780638da5cb5b146104b057600080fd5b806342842e0e14610372578063512d25fd14610392578063547520fe146103b25780635bb67fb0146103e05780636352211e1461041057600080fd5b8063095ea7b3116101f8578063095ea7b3146102cd5780630defcdff146102ed57806323b872dd1461030d57806335090d3a1461032d5780633ccfd60b1461035d57600080fd5b8062746ce31461022957806301ffc9a71461023e57806306fdde0314610273578063081812fc14610295575b600080fd5b61023c610237366004614198565b61081e565b005b34801561024a57600080fd5b5061025e6102593660046141c7565b610afa565b60405190151581526020015b60405180910390f35b34801561027f57600080fd5b50610288610b4c565b60405161026a9190614243565b3480156102a157600080fd5b506102b56102b0366004614198565b610bde565b6040516001600160a01b03909116815260200161026a565b3480156102d957600080fd5b5061023c6102e836600461426b565b610c73565b3480156102f957600080fd5b50610288610308366004614198565b610d89565b34801561031957600080fd5b5061023c610328366004614297565b610e23565b34801561033957600080fd5b5061025e610348366004614198565b60136020526000908152604090205460ff1681565b34801561036957600080fd5b5061023c610e54565b34801561037e57600080fd5b5061023c61038d366004614297565b610f49565b34801561039e57600080fd5b5061025e6103ad3660046143e0565b610f64565b3480156103be57600080fd5b506103d26103cd366004614198565b61105a565b60405190815260200161026a565b3480156103ec57600080fd5b5061025e6103fb366004614198565b60126020526000908152604090205460ff1681565b34801561041c57600080fd5b506102b561042b366004614198565b611117565b34801561043c57600080fd5b5061025e61044b366004614429565b61118e565b34801561045c57600080fd5b506103d261046b36600461445e565b61130e565b34801561047c57600080fd5b506103d261048b36600461447b565b611395565b34801561049c57600080fd5b5061025e6104ab3660046144ed565b611630565b3480156104bc57600080fd5b506008546102b5906001600160a01b031681565b3480156104dc57600080fd5b506102886104eb366004614198565b611728565b3480156104fc57600080fd5b50610288611741565b34801561051157600080fd5b50610560610520366004614198565b60146020526000908152604090205460e881811b9163010000008104821b91600160301b8204811b91600160481b8104821b91600160601b909104901b85565b604080516001600160e81b0319968716815294861660208601529285169284019290925283166060830152909116608082015260a00161026a565b3480156105a757600080fd5b5061023c6105b63660046145bf565b611750565b3480156105c757600080fd5b506102886105d6366004614198565b611815565b6102886105e93660046147e5565b611946565b3480156105fa57600080fd5b5061025e610609366004614198565b600d6020526000908152604090205460ff1681565b34801561062a57600080fd5b506103d2610639366004614198565b600e6020526000908152604090205481565b34801561065757600080fd5b5061023c610666366004614952565b611bcd565b34801561067757600080fd5b5061025e6106863660046149d1565b611c05565b34801561069757600080fd5b506102886106a6366004614198565b611c99565b3480156106b757600080fd5b5061025e6106c6366004614a15565b611e3e565b3480156106d757600080fd5b506106eb6106e6366004614198565b611f20565b60405161026a9a99989796959493929190614a38565b34801561070d57600080fd5b506107166124bc565b60405161026a929190614b13565b34801561073057600080fd5b5061025e61073f366004614a15565b612569565b34801561075057600080fd5b5061025e61075f366004614b3f565b61263b565b34801561077057600080fd5b5061025e61077f366004614b7b565b6001600160a01b03918216600090815260056020908152604080832093909416825291909152205460ff1690565b3480156107b957600080fd5b506102886107c8366004614198565b61289e565b3480156107d957600080fd5b506108076107e8366004614198565b6011602052600090815260409020805460019091015460ff9091169082565b60408051921515835260208301919091520161026a565b6000818152601160209081526040918290208251808401909352805460ff161515808452600190910154918301919091526108a05760405162461bcd60e51b815260206004820152601960248201527f5469636b6574206973206e6f7420726573656c6c61626c65210000000000000060448201526064015b60405180910390fd5b80602001513410156108f45760405162461bcd60e51b815260206004820152601960248201527f50726963652062656c6f772073656c6c696e67207072696365000000000000006044820152606401610897565b346000610902600a83614be0565b905060006109108284614bf4565b905073579e8e014f5b2c6d7a3373fb840f8dafeacbfae1600061093287611117565b6040519091506001600160a01b0382169084156108fc029085906000818181858888f1935050505015801561096b573d6000803e3d6000fd5b506040516001600160a01b0383169085156108fc029086906000818181858888f193505050501580156109a2573d6000803e3d6000fd5b506109d860405180604001604052806013815260200172726573656c6c6572206164647265737320257360681b815250826128b7565b6109eb6109e488611117565b3389612900565b60008087528781526011602090815260408083208951815460ff19169015151781559189015160019092019190915580516080810190915280610a2d8a611117565b6001600160a01b03168152602001336001600160a01b0316815260200189815260200187815250905080604051610a98919081516001600160a01b03908116825260208084015190911690820152604080830151908201526060918201519181019190915260800190565b60405180910390207f86277c11bca9857bea70f1ed444239dfca5d17b35383bef78cea646d3523e34a604051610ae8906020808252600690820152651c995cd95b1b60d21b604082015260600190565b60405180910390a25050505050505050565b60006001600160e01b031982166380ac58cd60e01b1480610b2b57506001600160e01b03198216635b5e139f60e01b145b80610b4657506301ffc9a760e01b6001600160e01b03198316145b92915050565b606060008054610b5b90614c0b565b80601f0160208091040260200160405190810160405280929190818152602001828054610b8790614c0b565b8015610bd45780601f10610ba957610100808354040283529160200191610bd4565b820191906000526020600020905b815481529060010190602001808311610bb757829003601f168201915b5050505050905090565b6000818152600260205260408120546001600160a01b0316610c575760405162461bcd60e51b815260206004820152602c60248201527f4552433732313a20617070726f76656420717565727920666f72206e6f6e657860448201526b34b9ba32b73a103a37b5b2b760a11b6064820152608401610897565b506000908152600460205260409020546001600160a01b031690565b6000610c7e82611117565b9050806001600160a01b0316836001600160a01b03161415610cec5760405162461bcd60e51b815260206004820152602160248201527f4552433732313a20617070726f76616c20746f2063757272656e74206f776e656044820152603960f91b6064820152608401610897565b336001600160a01b0382161480610d085750610d08813361077f565b610d7a5760405162461bcd60e51b815260206004820152603860248201527f4552433732313a20617070726f76652063616c6c6572206973206e6f74206f7760448201527f6e6572206e6f7220617070726f76656420666f7220616c6c00000000000000006064820152608401610897565b610d848383612aa0565b505050565b60106020526000908152604090208054610da290614c0b565b80601f0160208091040260200160405190810160405280929190818152602001828054610dce90614c0b565b8015610e1b5780601f10610df057610100808354040283529160200191610e1b565b820191906000526020600020905b815481529060010190602001808311610dfe57829003601f168201915b505050505081565b610e2d3382612b0e565b610e495760405162461bcd60e51b815260040161089790614c46565b610d84838383612900565b60085460405147916000916001600160a01b039091169083908381818185875af1925050503d8060008114610ea5576040519150601f19603f3d011682016040523d82523d6000602084013e610eaa565b606091505b5050905080610ef25760405162461bcd60e51b81526020600482015260146024820152732330b4b632b2103a379039b2b7321022ba3432b960611b6044820152606401610897565b817f200ff80aa1f2bb5d6dcaab25a746593781f2eb0f6ae73f2752b0c9e134e34a2e604051610f3d90602080825260089082015267776974686472617760c01b604082015260600190565b60405180910390a25050565b610d8483838360405180602001604052806000815250611bcd565b6008546000906001600160a01b03163314610fcc5760405162461bcd60e51b815260206004820152602260248201527f6f6e6c79206f776e65722063616e20736574207469636b65742073657474696e604482015261677360f01b6064820152608401610897565b8151610fdf90600990602085019061404c565b50604051610fef90600990614c97565b60405180910390207fa3f62b3b8572cbdb11497c2e34fba62bdcf34fa05087e3ef52e926a28ebbe62460405161104a906020808252601190820152707365745469636b657453657474696e677360781b604082015260600190565b60405180910390a2506001919050565b6008546000906001600160a01b031633146110b75760405162461bcd60e51b815260206004820152601e60248201527f6f6e6c79206f776e65722063616e206d61726b206173207363616e6e656400006044820152606401610897565b600a82905560405182907f200ff80aa1f2bb5d6dcaab25a746593781f2eb0f6ae73f2752b0c9e134e34a2e9061110b906020808252600a90820152691cd95d13585e135a5b9d60b21b604082015260600190565b60405180910390a25090565b6000818152600260205260408120546001600160a01b031680610b465760405162461bcd60e51b815260206004820152602960248201527f4552433732313a206f776e657220717565727920666f72206e6f6e657869737460448201526832b73a103a37b5b2b760b91b6064820152608401610897565b6040516331a9108f60e11b8152600481018490526000903090636352211e90602401602060405180830381865afa1580156111cd573d6000803e3d6000fd5b505050506040513d601f19601f820116820180604052508101906111f19190614d08565b6001600160a01b0316336001600160a01b0316146112635760405162461bcd60e51b815260206004820152602960248201527f6f6e6c79207469636b6574206f776e65722063616e20726573657420726573656044820152686c6c2073746174757360b81b6064820152608401610897565b604080518082018252841515815260208082018581526000888152601183528490208351815490151560ff1990911681178255825160019092019190915584519081529051918101919091526060818401819052600d908201526c736574526573656c6c61626c6560981b60808201529151909186917f71dbbc22bbc8f26956cffbb603d100db996492814920d571e41c6e0510d063b59181900360a00190a2506001949350505050565b60006001600160a01b0382166113795760405162461bcd60e51b815260206004820152602a60248201527f4552433732313a2062616c616e636520717565727920666f7220746865207a65604482015269726f206164647265737360b01b6064820152608401610897565b506001600160a01b031660009081526003602052604090205490565b6001600160a01b0382166000908152600b60209081526040808320815181546060948102820185018452928101838152859491938492849190879085015b8282101561147f5783829060005260206000200180546113f290614c0b565b80601f016020809104026020016040519081016040528092919081815260200182805461141e90614c0b565b801561146b5780601f106114405761010080835404028352916020019161146b565b820191906000526020600020905b81548152906001019060200180831161144e57829003601f168201915b5050505050815260200190600101906113d3565b505050908252506001918201546020918201526001600160a01b0387166000908152600b909152604080822090920154915192935090918190600c906114c6908890614d41565b908152602001604051809103902054826114e09190614d5d565b9150821561158c5760005b84515181101561158a5760008560000151828151811061150d5761150d614d75565b6020026020010151905060008890508060405160200161152d9190614d41565b60405160208183030381529060405280519060200120826040516020016115549190614d41565b60405160208183030381529060405280519060200120141561157557600193505b5050808061158290614d8b565b9150506114eb565b505b600082116115d25760405162461bcd60e51b8152602060048201526013602482015272546f74616c2063616e2774206265207a65726f60681b6044820152606401610897565b80156115fb5760646115e48484614da6565b6115ee9190614be0565b6115f89083614bf4565b91505b611626604051806040016040528060098152602001681d1bdd185b0b9cdbdb60ba1b81525083612c05565b5095945050505050565b6008546000906001600160a01b0316331461168d5760405162461bcd60e51b815260206004820181905260248201527f6f6e6c79206f776e65722063616e20616464206e657720646973636f756e74736044820152606401610897565b6040805180820182528481526020810184905290516001600160a01b038616907f8b1723fbe6ec4f44f948afaa8abe7d5b1abe219f931beadf499a09b477dc2564906116da908490614dc5565b60405180910390a26001600160a01b0385166000908152600b602090815260409091208251805184936117119284929101906140d0565b506020919091015160019182015595945050505050565b60156020526000908152604090208054610da290614c0b565b606060018054610b5b90614c0b565b6001600160a01b0382163314156117a95760405162461bcd60e51b815260206004820152601960248201527f4552433732313a20617070726f766520746f2063616c6c6572000000000000006044820152606401610897565b3360008181526005602090815260408083206001600160a01b03871680855290835292819020805460ff191686151590811790915590519081529192917f17307eab39ab6107e8899845ad3d59bd9653f200f220920489ca2b5937696c31910160405180910390a35050565b6000818152601460205260408120546060919061183e9060e81b6001600160e81b031916612c4a565b60008481526014602052604090205461186a906301000000900460e81b6001600160e81b031916612c4a565b60008581526014602052604090205461189690600160301b900460e81b6001600160e81b031916612c4a565b6000868152601460205260409020546118c2906301000000900460e81b6001600160e81b031916612c4a565b6000878152601460205260409020546118ee90600160481b900460e81b6001600160e81b031916612c4a565b60008881526014602052604090205461191a90600160601b900460e81b6001600160e81b031916612c4a565b60405160200161192f96959493929190614e62565b60408051601f198184030181529190529392505050565b600a5460609061195560075490565b1061199b5760405162461bcd60e51b8152602060048201526016602482015275736f7272792c20776527726520736f6c64206f75742160501b6044820152606401610897565b6000805b83518110156119ed576119cf338583815181106119be576119be614d75565b602002602001015160400151611395565b6119d99083614d5d565b9150806119e581614d8b565b91505061199f565b5080341015611a485760405162461bcd60e51b815260206004820152602160248201527f4e6f7420656e6f756768204554482073656e743b20636865636b2070726963656044820152602160f81b6064820152608401610897565b604080516020810190915260008082525b8451811015611bc557604080516000815260208101918290525190208551869083908110611a8957611a89614d75565b602002602001015160600151604051602001611aa59190614d41565b604051602081830303815290604052805190602001201480611ad157506008546001600160a01b031633145b611b275760405162461bcd60e51b815260206004820152602160248201527f6f6e6c79206f776e65722063616e20736574207370656369616c2073746174756044820152607360f81b6064820152608401610897565b6000611b4c868381518110611b3e57611b3e614d75565b602002602001015133612d98565b9050336001600160a01b03167f0c07f6ebe205f35ff5fbe0cc50cc753f4bfeb30876232fe4d67168eb3349600b82604051611baa91815260406020820181905260099082015268135a5b9d195908125960ba1b606082015260800190565b60405180910390a25080611bbd81614d8b565b915050611a59565b509392505050565b611bd73383612b0e565b611bf35760405162461bcd60e51b815260040161089790614c46565b611bff848484846134df565b50505050565b6008546000906001600160a01b03163314611c6c5760405162461bcd60e51b815260206004820152602160248201527f6f6e6c79206f776e65722063616e20736574207469636b6574206f7074696f6e6044820152607360f81b6064820152608401610897565b81600960030184604051611c809190614d41565b9081526040519081900360200190205550600192915050565b6000818152600260205260409020546060906001600160a01b0316611cec5760405162461bcd60e51b81526020600482015260096024820152681b9bdd08195e1a5cdd60ba1b6044820152606401610897565b6000611cf783613512565b604051602001611d07919061512c565b60405160208183030381529060405290506000604051602001611d63907f546869732069732061207469636b657420746f20455448447562616920636f6e81526c3332b932b731b290191819189760991b6020820152602d0190565b60408051601f19818403018152828201909152600682526573766720257360d01b60208301529150611d9d90611d988661360f565b6139cd565b6000611db0611dab8661360f565b613a12565b9050611e158383611dc088613512565b6000898152601560205260409020611deb6014611ddc8c611117565b6001600160a01b031690613b77565b86604051602001611e01969594939291906151d4565b604051602081830303815290604052613a12565b604051602001611e25919061535c565b6040516020818303038152906040529350505050919050565b6008546000906001600160a01b03163314611e9b5760405162461bcd60e51b815260206004820152601c60248201527f6f6e6c79206f776e65722063616e2063616e63656c207469636b6574000000006044820152606401610897565b60008381526013602052604090819020805484151560ff199091161790555183907f62aeea8f4c88e40d6743a3f7a2ce29a971e84a7481542772564c8fbb85caf92990611f12908515158152604060208201819052600d908201526c18d85b98d95b081d1a58dad95d609a1b606082015260800190565b60405180910390a250919050565b600f60205260009081526040902080548190611f3b90614c0b565b80601f0160208091040260200160405190810160405280929190818152602001828054611f6790614c0b565b8015611fb45780601f10611f8957610100808354040283529160200191611fb4565b820191906000526020600020905b815481529060010190602001808311611f9757829003601f168201915b505050505090806001018054611fc990614c0b565b80601f0160208091040260200160405190810160405280929190818152602001828054611ff590614c0b565b80156120425780601f1061201757610100808354040283529160200191612042565b820191906000526020600020905b81548152906001019060200180831161202557829003601f168201915b50505050509080600201805461205790614c0b565b80601f016020809104026020016040519081016040528092919081815260200182805461208390614c0b565b80156120d05780601f106120a5576101008083540402835291602001916120d0565b820191906000526020600020905b8154815290600101906020018083116120b357829003601f168201915b5050505050908060030180546120e590614c0b565b80601f016020809104026020016040519081016040528092919081815260200182805461211190614c0b565b801561215e5780601f106121335761010080835404028352916020019161215e565b820191906000526020600020905b81548152906001019060200180831161214157829003601f168201915b50505050509080600401805461217390614c0b565b80601f016020809104026020016040519081016040528092919081815260200182805461219f90614c0b565b80156121ec5780601f106121c1576101008083540402835291602001916121ec565b820191906000526020600020905b8154815290600101906020018083116121cf57829003601f168201915b50505050509080600501805461220190614c0b565b80601f016020809104026020016040519081016040528092919081815260200182805461222d90614c0b565b801561227a5780601f1061224f5761010080835404028352916020019161227a565b820191906000526020600020905b81548152906001019060200180831161225d57829003601f168201915b50505050509080600601805461228f90614c0b565b80601f01602080910402602001604051908101604052809291908181526020018280546122bb90614c0b565b80156123085780601f106122dd57610100808354040283529160200191612308565b820191906000526020600020905b8154815290600101906020018083116122eb57829003601f168201915b50505050509080600701805461231d90614c0b565b80601f016020809104026020016040519081016040528092919081815260200182805461234990614c0b565b80156123965780601f1061236b57610100808354040283529160200191612396565b820191906000526020600020905b81548152906001019060200180831161237957829003601f168201915b5050505050908060080180546123ab90614c0b565b80601f01602080910402602001604051908101604052809291908181526020018280546123d790614c0b565b80156124245780601f106123f957610100808354040283529160200191612424565b820191906000526020600020905b81548152906001019060200180831161240757829003601f168201915b50505050509080600901805461243990614c0b565b80601f016020809104026020016040519081016040528092919081815260200182805461246590614c0b565b80156124b25780601f10612487576101008083540402835291602001916124b2565b820191906000526020600020905b81548152906001019060200180831161249557829003601f168201915b505050505090508a565b6009806000016040518060200160405290816000820180546124dd90614c0b565b80601f016020809104026020016040519081016040528092919081815260200182805461250990614c0b565b80156125565780601f1061252b57610100808354040283529160200191612556565b820191906000526020600020905b81548152906001019060200180831161253957829003601f168201915b5050509190925250505060019091015482565b6008546000906001600160a01b031633146125c65760405162461bcd60e51b815260206004820152601e60248201527f6f6e6c79206f776e65722063616e206d61726b206173207363616e6e656400006044820152606401610897565b60008381526012602052604090819020805484151560ff199091161790555183907f62aeea8f4c88e40d6743a3f7a2ce29a971e84a7481542772564c8fbb85caf92990611f12908515158152604060208201819052600b908201526a1cd8d85b881d1a58dad95d60aa1b606082015260800190565b6008546000906001600160a01b03163314806126c757506040516331a9108f60e11b8152600481018490523090636352211e90602401602060405180830381865afa15801561268e573d6000803e3d6000fd5b505050506040513d601f19601f820116820180604052508101906126b29190614d08565b6001600160a01b0316336001600160a01b0316145b6127395760405162461bcd60e51b815260206004820152603b60248201527f6f6e6c7920636f6e7472616374206f776e6572206f72207469636b6574206f7760448201527f6e65722063616e20726573657420726573656c6c2073746174757300000000006064820152608401610897565b6000838152600f6020908152604090912083518051859361275e92849291019061404c565b506020828101518051612777926001850192019061404c565b506040820151805161279391600284019160209091019061404c565b50606082015180516127af91600384019160209091019061404c565b50608082015180516127cb91600484019160209091019061404c565b5060a082015180516127e791600584019160209091019061404c565b5060c0820151805161280391600684019160209091019061404c565b5060e0820151805161281f91600784019160209091019061404c565b50610100820151805161283c91600884019160209091019061404c565b50610120820151805161285991600984019160209091019061404c565b50905050827f3dea8f5fa840171ea41735496c373b9fa8ec854b7b46fa2943119b14422fbe1d8360405161288d91906153a1565b60405180910390a250600192915050565b60166020526000908152604090208054610da290614c0b565b6128fc82826040516024016128cd929190615500565b60408051601f198184030181529190526020810180516001600160e01b031663319af33360e01b179052613cc3565b5050565b826001600160a01b031661291382611117565b6001600160a01b03161461297b5760405162461bcd60e51b815260206004820152602960248201527f4552433732313a207472616e73666572206f6620746f6b656e2074686174206960448201526839903737ba1037bbb760b91b6064820152608401610897565b6001600160a01b0382166129dd5760405162461bcd60e51b8152602060048201526024808201527f4552433732313a207472616e7366657220746f20746865207a65726f206164646044820152637265737360e01b6064820152608401610897565b6129e8600082612aa0565b6001600160a01b0383166000908152600360205260408120805460019290612a11908490614bf4565b90915550506001600160a01b0382166000908152600360205260408120805460019290612a3f908490614d5d565b909155505060008181526002602052604080822080546001600160a01b0319166001600160a01b0386811691821790925591518493918716917fddf252ad1be2c89b69c2b068fc378daa952ba7f163c4a11628f55a4df523b3ef91a4505050565b600081815260046020526040902080546001600160a01b0319166001600160a01b0384169081179091558190612ad582611117565b6001600160a01b03167f8c5be1e5ebec7d5bd14f71427d1e84f3dd0314c0f7b2291e5b200ac8c7c3b92560405160405180910390a45050565b6000818152600260205260408120546001600160a01b0316612b875760405162461bcd60e51b815260206004820152602c60248201527f4552433732313a206f70657261746f7220717565727920666f72206e6f6e657860448201526b34b9ba32b73a103a37b5b2b760a11b6064820152608401610897565b6000612b9283611117565b9050806001600160a01b0316846001600160a01b03161480612bcd5750836001600160a01b0316612bc284610bde565b6001600160a01b0316145b80612bfd57506001600160a01b0380821660009081526005602090815260408083209388168352929052205460ff165b949350505050565b6128fc8282604051602401612c1b92919061552a565b60408051601f198184030181529190526020810180516001600160e01b03166309710a9d60e41b179052613cc3565b6040805160068082528183019092526060916000919060208201818036833701905050905060005b6003811015612d91576f181899199a1a9b1b9c1cb0b131b232b360811b848260038110612ca157612ca1614d75565b1a600f1660108110612cb557612cb5614d75565b1a60f81b82612cc5836002614da6565b612cd0906001614d5d565b81518110612ce057612ce0614d75565b60200101906001600160f81b031916908160001a9053506f181899199a1a9b1b9c1cb0b131b232b360811b6004858360038110612d1f57612d1f614d75565b1a60f81b6001600160f81b031916901c60f81c600f1660ff1660108110612d4857612d48614d75565b1a60f81b82612d58836002614da6565b81518110612d6857612d68614d75565b60200101906001600160f81b031916908160001a90535080612d8981614d8b565b915050612c72565b5092915050565b6001600160a01b0381166000908152600b6020908152604080832081518154606094810282018501845292810183815285948594929392849291849190879085015b82821015612e86578382906000526020600020018054612df990614c0b565b80601f0160208091040260200160405190810160405280929190818152602001828054612e2590614c0b565b8015612e725780601f10612e4757610100808354040283529160200191612e72565b820191906000526020600020905b815481529060010190602001808311612e5557829003601f168201915b505050505081526020019060010190612dda565b5050505081526020016001820154815250509050612ea8600780546001019055565b6000612eb360075490565b9050612ebf8582613ce4565b6000612ecc436001614d5d565b875151604051612ee5924091899130919060200161554c565b60408051601f19818403018152918152815160209283012060008581526014909352908220805462ffffff1916600283811a60e890811b60ff60e81b16600186901a60f01b60ff60f01b166001600160f81b031987891a60f81b161717901c91909117909155909250612f59904390614d5d565b88516101200151604051612f769240918a9130919060200161554c565b60408051601f19818403018152918152815160209283012060008681526014909352908220805465ffffff00000019166301000000600284901a60e890811b60ff60e81b16600186901a60f01b60ff60f01b166001600160f81b031987891a60f81b161717901c021790559150612fee436003614d5d565b4088308b600001516020015160405160200161300d949392919061554c565b60408051601f19818403018152918152815160209283012060008781526014909352908220805468ffffff0000000000001916600160301b600284901a60e890811b60ff60e81b16600186901a60f01b60ff60f01b166001600160f81b031987891a60f81b161717901c021790559150613088436004614d5d565b4089308c60000151604001516040516020016130a7949392919061554c565b60408051601f1981840301815291815281516020928301206000888152601490935290822080546bffffff0000000000000000001916600160481b600284901a60e890811b60ff60e81b16600186901a60f01b60ff60f01b166001600160f81b031987891a60f81b161717901c021790559150613125436032614d5d565b60408051914060208301526bffffffffffffffffffffffff1960608d811b8216928401929092523090911b16605482015263666f6f3560e01b6068820152606c0160408051808303601f190181529181528151602092830120600089815260148452828120805462ffffff60601b1916600160601b84841a60f81b6001600160f81b03191660ff60f01b600187901a60f01b161760ff60e81b600287901a60e890811b9190911691909117901c021790558e51600f855292902082518051929550929390926131fa928492919091019061404c565b506020828101518051613213926001850192019061404c565b506040820151805161322f91600284019160209091019061404c565b506060820151805161324b91600384019160209091019061404c565b506080820151805161326791600484019160209091019061404c565b5060a0820151805161328391600584019160209091019061404c565b5060c0820151805161329f91600684019160209091019061404c565b5060e082015180516132bb91600784019160209091019061404c565b5061010082015180516132d891600884019160209091019061404c565b5061012082015180516132f591600984019160209091019061404c565b5050506020808c015160008881526010835260409020815161331c9391929091019061404c565b5060808b015160008781526011602090815260408083208451815490151560ff199182161782559483015160019091015560128252808320805485169055601382528083208054909416909355828e015160158252929091208251613387939192919091019061404c565b5060006040518060c0016040528089815260200160096000016040518060200160405290816000820180546133bb90614c0b565b80601f01602080910402602001604051908101604052809291908181526020018280546133e790614c0b565b80156134345780601f1061340957610100808354040283529160200191613434565b820191906000526020600020905b81548152906001019060200180831161341757829003601f168201915b50505050508152505081526020018c6001600160a01b031681526020018a81526020018881526020018d6040015181525090508060405161347591906155e2565b60405180910390207fe12ea766e04907292e1854c44a74dbc869fe9903cc5b6467b3f4c0f2b84752e26040516134c7906020808252600890820152676d696e744974656d60c01b604082015260600190565b60405180910390a250949a9950505050505050505050565b6134ea848484612900565b6134f684848484613e26565b611bff5760405162461bcd60e51b815260040161089790615690565b6060816135365750506040805180820190915260018152600360fc1b602082015290565b8160005b8115613560578061354a81614d8b565b91506135599050600a83614be0565b915061353a565b6000816001600160401b0381111561357a5761357a6142d8565b6040519080825280601f01601f1916602001820160405280156135a4576020820181803683370190505b5090505b8415612bfd576135b9600183614bf4565b91506135c6600a866156e2565b6135d1906030614d5d565b60f81b8183815181106135e6576135e6614d75565b60200101906001600160f81b031916908160001a905350613608600a86614be0565b94506135a8565b60608060606040516020016136339068776f726b73686f707360b81b815260090190565b60408051601f1981840301815282825280516020918201206000888152601583529290922091926136659291016156f6565b6040516020818303038152906040528051906020012014156136aa5760405180604001604052806009815260200168576f726b73686f707360b81b815250915061387d565b6040516d686f74656c576f726b73686f707360901b6020820152602e0160408051601f1981840301815282825280516020918201206000888152601583529290922091926136f99291016156f6565b6040516020818303038152906040528051906020012014156137375750604080518082019091526005815264121bdd195b60da1b602082015261387d565b60405173776f726b73686f7073416e64507265506172747960601b602082015260340160408051601f19818403018152828252805160209182012060008881526015835292909220919261378c9291016156f6565b6040516020818303038152906040528051906020012014156137e5576040518060400160405280601781526020017f576f726b73686f70732026262070726570617274696573000000000000000000815250915061387d565b6040517f686f74656c576f726b73686f7073416e64507265506172747900000000000000602082015260390160408051601f1981840301815282825280516020918201206000888152601583529290922091926138439291016156f6565b60405160208183030381529060405280519060200120141561387d5750604080518082019091526005815264121bdd195b60da1b60208201525b60408051600080825260208083018085528351902088835260169091529083902090926138aa92016156f6565b60405160208183030381529060405280519060200120141561397257600084815260166020526040902080546138df90614c0b565b80601f016020809104026020016040519081016040528092919081815260200182805461390b90614c0b565b80156139585780601f1061392d57610100808354040283529160200191613958565b820191906000526020600020905b81548152906001019060200180831161393b57829003601f168201915b505050505091506040518060200160405280600081525090505b600061397d85613f24565b9050600061398a86611815565b6000878152600f602090815260409182902091516139b393928892889288926009019101615702565b60408051601f198184030181529190529695505050505050565b6128fc82826040516024016139e3929190615e0d565b60408051601f198184030181529190526020810180516001600160e01b0316634b5c427760e01b179052613cc3565b6060815160001415613a3257505060408051602081019091526000815290565b6000604051806060016040528060408152602001615ef26040913990506000600384516002613a619190614d5d565b613a6b9190614be0565b613a76906004614da6565b90506000613a85826020614d5d565b6001600160401b03811115613a9c57613a9c6142d8565b6040519080825280601f01601f191660200182016040528015613ac6576020820181803683370190505b509050818152600183018586518101602084015b81831015613b32576003830192508251603f8160121c168501518253600182019150603f81600c1c168501518253600182019150603f8160061c168501518253600182019150603f8116850151825350600101613ada565b600389510660018114613b4c5760028114613b5d57613b69565b613d3d60f01b600119830152613b69565b603d60f81b6000198301525b509398975050505050505050565b60606000613b86836002614da6565b613b91906002614d5d565b6001600160401b03811115613ba857613ba86142d8565b6040519080825280601f01601f191660200182016040528015613bd2576020820181803683370190505b509050600360fc1b81600081518110613bed57613bed614d75565b60200101906001600160f81b031916908160001a905350600f60fb1b81600181518110613c1c57613c1c614d75565b60200101906001600160f81b031916908160001a9053506000613c40846002614da6565b613c4b906001614d5d565b90505b6001811115611bc5576f181899199a1a9b1b9c1cb0b131b232b360811b85600f1660108110613c7f57613c7f614d75565b1a60f81b828281518110613c9557613c95614d75565b60200101906001600160f81b031916908160001a90535060049490941c93613cbc81615e3b565b9050613c4e565b80516a636f6e736f6c652e6c6f67602083016000808483855afa5050505050565b6001600160a01b038216613d3a5760405162461bcd60e51b815260206004820181905260248201527f4552433732313a206d696e7420746f20746865207a65726f20616464726573736044820152606401610897565b6000818152600260205260409020546001600160a01b031615613d9f5760405162461bcd60e51b815260206004820152601c60248201527f4552433732313a20746f6b656e20616c7265616479206d696e746564000000006044820152606401610897565b6001600160a01b0382166000908152600360205260408120805460019290613dc8908490614d5d565b909155505060008181526002602052604080822080546001600160a01b0319166001600160a01b03861690811790915590518392907fddf252ad1be2c89b69c2b068fc378daa952ba7f163c4a11628f55a4df523b3ef908290a45050565b60006001600160a01b0384163b15613f1957604051630a85bd0160e11b81526001600160a01b0385169063150b7a0290613e6a903390899088908890600401615e52565b6020604051808303816000875af1925050508015613ea5575060408051601f3d908101601f19168201909252613ea291810190615e8f565b60015b613eff573d808015613ed3576040519150601f19603f3d011682016040523d82523d6000602084013e613ed8565b606091505b508051613ef75760405162461bcd60e51b815260040161089790615690565b805181602001fd5b6001600160e01b031916630a85bd0160e11b149050612bfd565b506001949350505050565b606081613f485750506040805180820190915260018152600360fc1b602082015290565b8160005b8115613f725780613f5c81614d8b565b9150613f6b9050600a83614be0565b9150613f4c565b6000816001600160401b03811115613f8c57613f8c6142d8565b6040519080825280601f01601f191660200182016040528015613fb6576020820181803683370190505b509050815b851561404357613fcc600182614bf4565b90506000613fdb600a88614be0565b613fe690600a614da6565b613ff09088614bf4565b613ffb906030615eac565b905060008160f81b90508084848151811061401857614018614d75565b60200101906001600160f81b031916908160001a90535061403a600a89614be0565b97505050613fbb565b50949350505050565b82805461405890614c0b565b90600052602060002090601f01602090048101928261407a57600085556140c0565b82601f1061409357805160ff19168380011785556140c0565b828001600101855582156140c0579182015b828111156140c05782518255916020019190600101906140a5565b506140cc929150614129565b5090565b82805482825590600052602060002090810192821561411d579160200282015b8281111561411d578251805161410d91849160209091019061404c565b50916020019190600101906140f0565b506140cc92915061413e565b5b808211156140cc576000815560010161412a565b808211156140cc576000614152828261415b565b5060010161413e565b50805461416790614c0b565b6000825580601f10614177575050565b601f0160209004906000526020600020908101906141959190614129565b50565b6000602082840312156141aa57600080fd5b5035919050565b6001600160e01b03198116811461419557600080fd5b6000602082840312156141d957600080fd5b81356141e4816141b1565b9392505050565b60005b838110156142065781810151838201526020016141ee565b83811115611bff5750506000910152565b6000815180845261422f8160208601602086016141eb565b601f01601f19169290920160200192915050565b6020815260006141e46020830184614217565b6001600160a01b038116811461419557600080fd5b6000806040838503121561427e57600080fd5b823561428981614256565b946020939093013593505050565b6000806000606084860312156142ac57600080fd5b83356142b781614256565b925060208401356142c781614256565b929592945050506040919091013590565b634e487b7160e01b600052604160045260246000fd5b60405161014081016001600160401b0381118282101715614311576143116142d8565b60405290565b60405160a081016001600160401b0381118282101715614311576143116142d8565b604051601f8201601f191681016001600160401b0381118282101715614361576143616142d8565b604052919050565b60006001600160401b03831115614382576143826142d8565b614395601f8401601f1916602001614339565b90508281528383830111156143a957600080fd5b828260208301376000602084830101529392505050565b600082601f8301126143d157600080fd5b6141e483833560208501614369565b6000602082840312156143f257600080fd5b81356001600160401b0381111561440857600080fd5b612bfd848285016143c0565b8035801515811461442457600080fd5b919050565b60008060006060848603121561443e57600080fd5b8335925061444e60208501614414565b9150604084013590509250925092565b60006020828403121561447057600080fd5b81356141e481614256565b6000806040838503121561448e57600080fd5b823561449981614256565b915060208301356001600160401b038111156144b457600080fd5b6144c0858286016143c0565b9150509250929050565b60006001600160401b038211156144e3576144e36142d8565b5060051b60200190565b60008060006060848603121561450257600080fd5b833561450d81614256565b92506020848101356001600160401b038082111561452a57600080fd5b818701915087601f83011261453e57600080fd5b813561455161454c826144ca565b614339565b81815260059190911b8301840190848101908a83111561457057600080fd5b8585015b838110156145a85780358581111561458c5760008081fd5b61459a8d89838a01016143c0565b845250918601918601614574565b50979a979950505050604095909501359450505050565b600080604083850312156145d257600080fd5b82356145dd81614256565b91506145eb60208401614414565b90509250929050565b6000610140828403121561460757600080fd5b61460f6142ee565b905081356001600160401b038082111561462857600080fd5b614634858386016143c0565b8352602084013591508082111561464a57600080fd5b614656858386016143c0565b6020840152604084013591508082111561466f57600080fd5b61467b858386016143c0565b6040840152606084013591508082111561469457600080fd5b6146a0858386016143c0565b606084015260808401359150808211156146b957600080fd5b6146c5858386016143c0565b608084015260a08401359150808211156146de57600080fd5b6146ea858386016143c0565b60a084015260c084013591508082111561470357600080fd5b61470f858386016143c0565b60c084015260e084013591508082111561472857600080fd5b614734858386016143c0565b60e08401526101009150818401358181111561474f57600080fd5b61475b868287016143c0565b83850152506101209150818401358181111561477657600080fd5b614782868287016143c0565b8385015250505092915050565b6000604082840312156147a157600080fd5b604051604081018181106001600160401b03821117156147c3576147c36142d8565b6040529050806147d283614414565b8152602083013560208201525092915050565b600060208083850312156147f857600080fd5b82356001600160401b038082111561480f57600080fd5b818501915085601f83011261482357600080fd5b813561483161454c826144ca565b81815260059190911b8301840190848101908883111561485057600080fd5b8585015b838110156149455780358581111561486c5760008081fd5b860160c0818c03601f190112156148835760008081fd5b61488b614317565b888201358781111561489d5760008081fd5b6148ab8d8b838601016145f4565b825250604080830135888111156148c25760008081fd5b6148d08e8c838701016143c0565b8b84015250606080840135898111156148e95760008081fd5b6148f78f8d838801016143c0565b83850152506080915081840135898111156149125760008081fd5b6149208f8d838801016143c0565b8285015250506149338d60a0850161478f565b90820152845250918601918601614854565b5098975050505050505050565b6000806000806080858703121561496857600080fd5b843561497381614256565b9350602085013561498381614256565b92506040850135915060608501356001600160401b038111156149a557600080fd5b8501601f810187136149b657600080fd5b6149c587823560208401614369565b91505092959194509250565b600080604083850312156149e457600080fd5b82356001600160401b038111156149fa57600080fd5b614a06858286016143c0565b95602094909401359450505050565b60008060408385031215614a2857600080fd5b823591506145eb60208401614414565b6000610140808352614a4c8184018e614217565b90508281036020840152614a60818d614217565b90508281036040840152614a74818c614217565b90508281036060840152614a88818b614217565b90508281036080840152614a9c818a614217565b905082810360a0840152614ab08189614217565b905082810360c0840152614ac48188614217565b905082810360e0840152614ad88187614217565b9050828103610100840152614aed8186614217565b9050828103610120840152614b028185614217565b9d9c50505050505050505050505050565b604081526000835160206040840152614b2f6060840182614217565b9150508260208301529392505050565b60008060408385031215614b5257600080fd5b8235915060208301356001600160401b03811115614b6f57600080fd5b6144c0858286016145f4565b60008060408385031215614b8e57600080fd5b8235614b9981614256565b91506020830135614ba981614256565b809150509250929050565b634e487b7160e01b600052601260045260246000fd5b634e487b7160e01b600052601160045260246000fd5b600082614bef57614bef614bb4565b500490565b600082821015614c0657614c06614bca565b500390565b600181811c90821680614c1f57607f821691505b60208210811415614c4057634e487b7160e01b600052602260045260246000fd5b50919050565b60208082526031908201527f4552433732313a207472616e736665722063616c6c6572206973206e6f74206f6040820152701ddb995c881b9bdc88185c1c1c9bdd9959607a1b606082015260800190565b6000808354614ca581614c0b565b60018281168015614cbd5760018114614ccf57614cfc565b60ff1984168752602087019450614cfc565b8760005260208060002060005b85811015614cf55781548a820152908401908201614cdc565b8901965050505b50929695505050505050565b600060208284031215614d1a57600080fd5b81516141e481614256565b60008151614d378185602086016141eb565b9290920192915050565b60008251614d538184602087016141eb565b9190910192915050565b60008219821115614d7057614d70614bca565b500190565b634e487b7160e01b600052603260045260246000fd5b6000600019821415614d9f57614d9f614bca565b5060010190565b6000816000190483118215151615614dc057614dc0614bca565b500290565b60408152600060808201835160408085015281815180845260a08601915060a08160051b87010193506020808401935060005b82811015614e2657609f19888703018452614e14868651614217565b95509381019392810192600101614df8565b5087810151606088015286850390870152505060128252507139b2ba103234b9b1b7bab73a10313abcb2b960711b602082015260408101612bfd565b60008751614e74818460208c016141eb565b80830190507f2220706f696e74733d223235352e393233312c3231322e3332203132372e393681527f31312c30203132352e313636312c392e35203132352e313636312c3238352e3160208201527f3638203132372e393631312c3238372e3935382022202f3e3c706f6c79676f6e6040820152672066696c6c3d222360c01b60608201528751614f0c816068840160208c016141eb565b7f2220706f696e74733d22302c3231322e3332203132372e3936322c3238372e39606892909101918201527f3539203132372e3936322c3135342e313538203132372e3936322c302022202f6088820152703e3c706f6c79676f6e2066696c6c3d222360781b60a88201528651614f8a8160b9840160208b016141eb565b61511e6151186150ac6150a661504361503d60b9878901017f2220706f696e74733d223235352e393939312c3233362e35383636203132372e81527f393631312c3331322e31383636203132362e333836312c3331342e313036362060208201527f3132362e333836312c3431322e33303536203132372e393631312c3431362e3960408201527f3036362022202f3e203c706f6c79676f6e2066696c6c3d222300000000000000606082015260790190565b8c614d25565b7f2220706f696e74733d223132372e3936322c3431362e39303532203132372e3981527f36322c3331322e3138353220302c3233362e353835322022202f3e3c706f6c7960208201526a676f6e2066696c6c3d222360a81b6040820152604b0190565b89614d25565b7f2220706f696e74733d223132372e393631312c3238372e39353737203235352e81527f393231312c3231322e33323037203132372e393631312c3135342e313538372060208201527322202f3e3c706f6c79676f6e2066696c6c3d222360601b604082015260540190565b86614d25565b9a9950505050505050505050565b704554484475626169205469636b6574202360781b8152600082516151588160118501602087016141eb565b9190910160110192915050565b6000815461517281614c0b565b6001828116801561518a576001811461519b576151ca565b60ff198416875282870194506151ca565b8560005260208060002060005b858110156151c15781548a8201529084019082016151a8565b50505082870194505b5050505092915050565b683d913730b6b2911d1160b91b815286516000906151f9816009850160208c016141eb565b71111610113232b9b1b934b83a34b7b7111d1160711b600991840191820152875161522b81601b840160208c016141eb565b7f222c202265787465726e616c5f75726c223a2268747470733a2f2f7777772e65601b92909101918201527574686475626169636f6e662e6f72672f746f6b656e2f60501b603b8201528651615288816051840160208b016141eb565b7f222c202261747472696275746573223a205b7b2274726169745f74797065223a6051929091019182015275101137b83a34b7b739911610113b30b63ab2911d101160511b607182015261534f6153416151186153086150a66152ee608787018c615165565b6d113eae96101137bbb732b9111d1160911b8152600e0190565b7f222c2022696d616765223a2022646174613a696d6167652f7376672b786d6c3b81526618985cd94d8d0b60ca1b602082015260270190565b61227d60f01b815260020190565b9998505050505050505050565b7f646174613a6170706c69636174696f6e2f6a736f6e3b6261736536342c00000081526000825161539481601d8501602087016141eb565b91909101601d0192915050565b60408152600082516101408060408501526153c0610180850183614217565b91506020850151603f19808685030160608701526153de8483614217565b935060408701519150808685030160808701526153fb8483614217565b935060608701519150808685030160a08701526154188483614217565b935060808701519150808685030160c08701526154358483614217565b935060a08701519150808685030160e08701526154528483614217565b935060c087015191506101008187860301818801526154718584614217565b945060e088015192506101208288870301818901526154908685614217565b95508189015193508288870301858901526154ab8685614217565b95508089015194505050808685030161016087015250506154cc8282614217565b9150508281036020840152612bfd816012815271757064617465417474656e646565496e666f60701b602082015260400190565b6040815260006155136040830185614217565b905060018060a01b03831660208301529392505050565b60408152600061553d6040830185614217565b90508260208301529392505050565b84815260006bffffffffffffffffffffffff19808660601b166020840152808560601b1660348401525082516155898160488501602087016141eb565b9190910160480195945050505050565b600081516155ab8185602086016141eb565b601f01601f19169290920192915050565b6000815180516155d08186602085016141eb565b601f01601f1916939093019392505050565b815180518051600092916020908101918591855b82811015615628578451805161560f81878685016141eb565b95830195601f01601f19169490940193506001016155f6565b5080850151835261568461567a61566d61566061564a858801868e01516155bc565b60408d01516001600160a01b0316815260200190565b60608c0151815260200190565b60808b0151815260200190565b60a08a0151615599565b98975050505050505050565b60208082526032908201527f4552433732313a207472616e7366657220746f206e6f6e20455243373231526560408201527131b2b4bb32b91034b6b83632b6b2b73a32b960711b606082015260800190565b6000826156f1576156f1614bb4565b500690565b60006141e48284615165565b7f3c7376672077696474683d2236303622206865696768743d223333342220786d81527f6c6e733d22687474703a2f2f7777772e77332e6f72672f323030302f7376672260208201527f3e3c67207472616e73666f726d3d226d617472697828302e373230363432343860408201527f2c302c302c302e37323036343234382c31372e3930363439312c31342e30303960608201527534333429223e3c706f6c79676f6e2066696c6c3d222360501b6080820152600086516157cb816096850160208b016141eb565b7f2220706f696e74733d22302e303030392c3231322e33323038203132372e39366096918401918201527f30392c3238372e39353738203132372e393630392c3135342e3135383820222060b68201527f2f3e3c2f673e3c74657874207374796c653d22666f6e742d7374796c653a6e6f60d68201527f726d616c3b666f6e742d7765696768743a6e6f726d616c3b666f6e742d73697a60f68201527f653a343070783b6c696e652d6865696768743a312e32353b666f6e742d66616d6101168201527f696c793a73616e732d73657269663b66696c6c3a233030303030303b66696c6c6101368201527f2d6f7061636974793a313b7374726f6b653a6e6f6e652220783d223234312e396101568201527f313535362220793d223134332e303131373822203e436f6e666572656e63653c6101768201527f2f746578743e203c74657874207374796c653d22666f6e742d7374796c653a6e6101968201527f6f726d616c3b666f6e742d7765696768743a6e6f726d616c3b666f6e742d73696101b68201527f7a653a343070783b6c696e652d6865696768743a312e32353b666f6e742d66616101d68201527f6d696c793a73616e732d73657269663b66696c6c3a233030303030303b66696c6101f68201527f6c2d6f7061636974793a313b7374726f6b653a6e6f6e652220783d223234312e610216820152741c989a9a9b11103c9e91189c19171a9a191c9b911f60591b610236820152615684615c86615c80615bfa6150a6615b6d61503d615a0861024b89018f614d25565b600080516020615ed28339815191528152600080516020615f528339815191526020820152600080516020615f928339815191526040820152600080516020615f728339815191526060820152600080516020615f3283398151915260808201527f2e39313535362220793d223232322e3832353834223e3c2f746578743e203c7460a08201527f657874207374796c653d22666f6e742d7374796c653a6e6f726d616c3b666f6e60c08201527f742d7765696768743a6e6f726d616c3b666f6e742d73697a653a343070783b6c60e08201527f696e652d6865696768743a312e32353b666f6e742d66616d696c793a73616e736101008201527f2d73657269663b66696c6c3a233030303030303b66696c6c2d6f7061636974796101208201527f3a313b7374726f6b653a6e6f6e652220783d223234312e39313535362220793d6101408201526b11191b1b17191c199a1a911f60a11b61016082015261016c0190565b600080516020615ed28339815191528152600080516020615f528339815191526020820152600080516020615f928339815191526040820152600080516020615f728339815191526060820152600080516020615f3283398151915260808201527f2e39313535362220793d2238372e313634363838223e2300000000000000000060a082015260b70190565b600080516020615ed28339815191528152600080516020615f528339815191526020820152600080516020615f928339815191526040820152600080516020615f728339815191526060820152600080516020615f32833981519152608082015275b8e4c4d4d4d88881e4f488ccc4d4b8e0c8e4dcc488f9604e1b60a082015260b70190565b86615165565b600080516020615ed28339815191528152600080516020615f528339815191526020820152600080516020615f928339815191526040820152600080516020615f728339815191526060820152600080516020615f3283398151915260808201527f2e39313535362220793d2233392e323933353536223e4554484475626169205460a08201527f69636b65743c2f746578743e3c72656374207374796c653d2266696c6c3a6e6f60c08201527f6e653b7374726f6b653a233030303030303b7374726f6b652d77696474683a3360e08201527f2e303537323b7374726f6b652d6d697465726c696d69743a343b7374726f6b656101008201527f2d6461736861727261793a6e6f6e65222069643d2272656374323935302220776101208201527f696474683d223630322e393734323422206865696768743d223333312e3634366101408201527f38352220783d22302220793d2230222072793d2231302e30373838343222202f610160820152661f1e17b9bb339f60c91b6101808201526101870190565b604081526000615e206040830185614217565b8281036020840152615e328185614217565b95945050505050565b600081615e4a57615e4a614bca565b506000190190565b6001600160a01b0385811682528416602082015260408101839052608060608201819052600090615e8590830184614217565b9695505050505050565b600060208284031215615ea157600080fd5b81516141e4816141b1565b600060ff821660ff84168060ff03821115615ec957615ec9614bca565b01939250505056fe3c2f746578743e203c74657874207374796c653d22666f6e742d7374796c653a4142434445464748494a4b4c4d4e4f505152535455565758595a6162636465666768696a6b6c6d6e6f707172737475767778797a303132333435363738392b2f6c6c2d6f7061636974793a313b7374726f6b653a6e6f6e652220783d223234316e6f726d616c3b666f6e742d7765696768743a6e6f726d616c3b666f6e742d73616d696c793a73616e732d73657269663b66696c6c3a233030303030303b6669697a653a343070783b6c696e652d6865696768743a312e32353b666f6e742d66a2646970667358221220db08b57a56a3c98cbefa98f74c0f8855e77d957e7c52f74504f41d55773ca3f764736f6c634300080a0033",
  "linkReferences": {},
  "deployedLinkReferences": {}
}