{
  "_format": "hh-sol-artifact-1",
  "contractName": "ETHDubaiTicket",
  "sourceName": "contracts/ETHDubaiTicket.sol",
  "abi": [
    {
      "inputs": [],
      "stateMutability": "nonpayable",
      "type": "constructor"
    },
    {
      "anonymous": false,
      "inputs": [
        {
          "indexed": true,
          "internalType": "address",
          "name": "owner",
          "type": "address"
        },
        {
          "indexed": true,
          "internalType": "address",
          "name": "approved",
          "type": "address"
        },
        {
          "indexed": true,
          "internalType": "uint256",
          "name": "tokenId",
          "type": "uint256"
        }
      ],
      "name": "Approval",
      "type": "event"
    },
    {
      "anonymous": false,
      "inputs": [
        {
          "indexed": true,
          "internalType": "address",
          "name": "owner",
          "type": "address"
        },
        {
          "indexed": true,
          "internalType": "address",
          "name": "operator",
          "type": "address"
        },
        {
          "indexed": false,
          "internalType": "bool",
          "name": "approved",
          "type": "bool"
        }
      ],
      "name": "ApprovalForAll",
      "type": "event"
    },
    {
      "anonymous": false,
      "inputs": [
        {
          "indexed": true,
          "internalType": "uint256",
          "name": "id",
          "type": "uint256"
        },
        {
          "components": [
            {
              "internalType": "string",
              "name": "email",
              "type": "string"
            },
            {
              "internalType": "string",
              "name": "fname",
              "type": "string"
            },
            {
              "internalType": "string",
              "name": "lname",
              "type": "string"
            },
            {
              "internalType": "string",
              "name": "twitter",
              "type": "string"
            },
            {
              "internalType": "string",
              "name": "bio",
              "type": "string"
            },
            {
              "internalType": "string",
              "name": "job",
              "type": "string"
            },
            {
              "internalType": "string",
              "name": "company",
              "type": "string"
            },
            {
              "internalType": "string",
              "name": "workshop",
              "type": "string"
            },
            {
              "internalType": "string",
              "name": "tshirt",
              "type": "string"
            },
            {
              "internalType": "string",
              "name": "telegram",
              "type": "string"
            }
          ],
          "indexed": false,
          "internalType": "struct ETHDubaiTicket.AttendeeInfo",
          "name": "attendeeInfo",
          "type": "tuple"
        },
        {
          "indexed": false,
          "internalType": "string",
          "name": "message",
          "type": "string"
        }
      ],
      "name": "LAttendeeInfo",
      "type": "event"
    },
    {
      "anonymous": false,
      "inputs": [
        {
          "indexed": true,
          "internalType": "address",
          "name": "sender",
          "type": "address"
        },
        {
          "components": [
            {
              "internalType": "string[]",
              "name": "ticketOptions",
              "type": "string[]"
            },
            {
              "internalType": "uint256",
              "name": "amount",
              "type": "uint256"
            }
          ],
          "indexed": false,
          "internalType": "struct ETHDubaiTicket.Discount",
          "name": "discount",
          "type": "tuple"
        },
        {
          "indexed": false,
          "internalType": "string",
          "name": "message",
          "type": "string"
        }
      ],
      "name": "LDiscount",
      "type": "event"
    },
    {
      "anonymous": false,
      "inputs": [
        {
          "components": [
            {
              "components": [
                {
                  "internalType": "string[]",
                  "name": "ticketOptions",
                  "type": "string[]"
                },
                {
                  "internalType": "uint256",
                  "name": "amount",
                  "type": "uint256"
                }
              ],
              "internalType": "struct ETHDubaiTicket.Discount",
              "name": "discount",
              "type": "tuple"
            },
            {
              "components": [
                {
                  "internalType": "string",
                  "name": "name",
                  "type": "string"
                }
              ],
              "internalType": "struct ETHDubaiTicket.TicketSettings",
              "name": "ticketSettings",
              "type": "tuple"
            },
            {
              "internalType": "address",
              "name": "buyer",
              "type": "address"
            },
            {
              "internalType": "uint256",
              "name": "amount",
              "type": "uint256"
            },
            {
              "internalType": "uint256",
              "name": "tokenId",
              "type": "uint256"
            },
            {
              "internalType": "string",
              "name": "ticketOption",
              "type": "string"
            }
          ],
          "indexed": true,
          "internalType": "struct ETHDubaiTicket.MintLog",
          "name": "mintLog",
          "type": "tuple"
        },
        {
          "indexed": false,
          "internalType": "string",
          "name": "message",
          "type": "string"
        }
      ],
      "name": "LMint",
      "type": "event"
    },
    {
      "anonymous": false,
      "inputs": [
        {
          "indexed": true,
          "internalType": "address",
          "name": "sender",
          "type": "address"
        },
        {
          "indexed": false,
          "internalType": "uint256",
          "name": "id",
          "type": "uint256"
        },
        {
          "indexed": false,
          "internalType": "string",
          "name": "message",
          "type": "string"
        }
      ],
      "name": "LMintId",
      "type": "event"
    },
    {
      "anonymous": false,
      "inputs": [
        {
          "components": [
            {
              "internalType": "address",
              "name": "from",
              "type": "address"
            },
            {
              "internalType": "address",
              "name": "to",
              "type": "address"
            },
            {
              "internalType": "uint256",
              "name": "tokenId",
              "type": "uint256"
            },
            {
              "internalType": "uint256",
              "name": "amount",
              "type": "uint256"
            }
          ],
          "indexed": true,
          "internalType": "struct ETHDubaiTicket.ResellLog",
          "name": "resellLog",
          "type": "tuple"
        },
        {
          "indexed": false,
          "internalType": "string",
          "name": "message",
          "type": "string"
        }
      ],
      "name": "LResell",
      "type": "event"
    },
    {
      "anonymous": false,
      "inputs": [
        {
          "indexed": true,
          "internalType": "uint256",
          "name": "id",
          "type": "uint256"
        },
        {
          "components": [
            {
              "internalType": "bool",
              "name": "isResellable",
              "type": "bool"
            },
            {
              "internalType": "uint256",
              "name": "price",
              "type": "uint256"
            }
          ],
          "indexed": false,
          "internalType": "struct ETHDubaiTicket.Resellable",
          "name": "resellable",
          "type": "tuple"
        },
        {
          "indexed": false,
          "internalType": "string",
          "name": "message",
          "type": "string"
        }
      ],
      "name": "LResellable",
      "type": "event"
    },
    {
      "anonymous": false,
      "inputs": [
        {
          "indexed": true,
          "internalType": "uint256",
          "name": "id",
          "type": "uint256"
        },
        {
          "indexed": false,
          "internalType": "bool",
          "name": "value",
          "type": "bool"
        },
        {
          "indexed": false,
          "internalType": "string",
          "name": "message",
          "type": "string"
        }
      ],
      "name": "LTicketAction",
      "type": "event"
    },
    {
      "anonymous": false,
      "inputs": [
        {
          "components": [
            {
              "internalType": "string",
              "name": "name",
              "type": "string"
            }
          ],
          "indexed": true,
          "internalType": "struct ETHDubaiTicket.TicketSettings",
          "name": "ticketSettings",
          "type": "tuple"
        },
        {
          "indexed": false,
          "internalType": "string",
          "name": "message",
          "type": "string"
        }
      ],
      "name": "LTicketSettings",
      "type": "event"
    },
    {
      "anonymous": false,
      "inputs": [
        {
          "indexed": true,
          "internalType": "uint256",
          "name": "tokenId",
          "type": "uint256"
        },
        {
          "indexed": false,
          "internalType": "string",
          "name": "message",
          "type": "string"
        }
      ],
      "name": "Lint",
      "type": "event"
    },
    {
      "anonymous": false,
      "inputs": [
        {
          "indexed": true,
          "internalType": "address",
          "name": "sender",
          "type": "address"
        },
        {
          "indexed": false,
          "internalType": "string",
          "name": "message",
          "type": "string"
        }
      ],
      "name": "Log",
      "type": "event"
    },
    {
      "anonymous": false,
      "inputs": [
        {
          "indexed": true,
          "internalType": "address",
          "name": "from",
          "type": "address"
        },
        {
          "indexed": true,
          "internalType": "address",
          "name": "to",
          "type": "address"
        },
        {
          "indexed": true,
          "internalType": "uint256",
          "name": "tokenId",
          "type": "uint256"
        }
      ],
      "name": "Transfer",
      "type": "event"
    },
    {
      "inputs": [
        {
          "internalType": "uint256",
          "name": "",
          "type": "uint256"
        }
      ],
      "name": "_idToAttendeeInfo",
      "outputs": [
        {
          "internalType": "string",
          "name": "email",
          "type": "string"
        },
        {
          "internalType": "string",
          "name": "fname",
          "type": "string"
        },
        {
          "internalType": "string",
          "name": "lname",
          "type": "string"
        },
        {
          "internalType": "string",
          "name": "twitter",
          "type": "string"
        },
        {
          "internalType": "string",
          "name": "bio",
          "type": "string"
        },
        {
          "internalType": "string",
          "name": "job",
          "type": "string"
        },
        {
          "internalType": "string",
          "name": "company",
          "type": "string"
        },
        {
          "internalType": "string",
          "name": "workshop",
          "type": "string"
        },
        {
          "internalType": "string",
          "name": "tshirt",
          "type": "string"
        },
        {
          "internalType": "string",
          "name": "telegram",
          "type": "string"
        }
      ],
      "stateMutability": "view",
      "type": "function"
    },
    {
      "inputs": [
        {
          "internalType": "uint256",
          "name": "",
          "type": "uint256"
        }
      ],
      "name": "_idToCanceled",
      "outputs": [
        {
          "internalType": "bool",
          "name": "",
          "type": "bool"
        }
      ],
      "stateMutability": "view",
      "type": "function"
    },
    {
      "inputs": [
        {
          "internalType": "uint256",
          "name": "",
          "type": "uint256"
        }
      ],
      "name": "_idToColors",
      "outputs": [
        {
          "internalType": "bytes3",
          "name": "color1",
          "type": "bytes3"
        },
        {
          "internalType": "bytes3",
          "name": "color2",
          "type": "bytes3"
        },
        {
          "internalType": "bytes3",
          "name": "color3",
          "type": "bytes3"
        },
        {
          "internalType": "bytes3",
          "name": "color4",
          "type": "bytes3"
        },
        {
          "internalType": "bytes3",
          "name": "color5",
          "type": "bytes3"
        }
      ],
      "stateMutability": "view",
      "type": "function"
    },
    {
      "inputs": [
        {
          "internalType": "uint256",
          "name": "",
          "type": "uint256"
        }
      ],
      "name": "_idToScanned",
      "outputs": [
        {
          "internalType": "bool",
          "name": "",
          "type": "bool"
        }
      ],
      "stateMutability": "view",
      "type": "function"
    },
    {
      "inputs": [
        {
          "internalType": "uint256",
          "name": "",
          "type": "uint256"
        }
      ],
      "name": "_idToSpecialStatus",
      "outputs": [
        {
          "internalType": "string",
          "name": "",
          "type": "string"
        }
      ],
      "stateMutability": "view",
      "type": "function"
    },
    {
      "inputs": [
        {
          "internalType": "uint256",
          "name": "",
          "type": "uint256"
        }
      ],
      "name": "_idToTicketCode",
      "outputs": [
        {
          "internalType": "string",
          "name": "",
          "type": "string"
        }
      ],
      "stateMutability": "view",
      "type": "function"
    },
    {
      "inputs": [
        {
          "internalType": "uint256",
          "name": "",
          "type": "uint256"
        }
      ],
      "name": "_idToTicketOption",
      "outputs": [
        {
          "internalType": "string",
          "name": "",
          "type": "string"
        }
      ],
      "stateMutability": "view",
      "type": "function"
    },
    {
      "inputs": [
        {
          "internalType": "uint256",
          "name": "",
          "type": "uint256"
        }
      ],
      "name": "_idToTicketResellable",
      "outputs": [
        {
          "internalType": "bool",
          "name": "isResellable",
          "type": "bool"
        },
        {
          "internalType": "uint256",
          "name": "price",
          "type": "uint256"
        }
      ],
      "stateMutability": "view",
      "type": "function"
    },
    {
      "inputs": [
        {
          "internalType": "address",
          "name": "to",
          "type": "address"
        },
        {
          "internalType": "uint256",
          "name": "tokenId",
          "type": "uint256"
        }
      ],
      "name": "approve",
      "outputs": [],
      "stateMutability": "nonpayable",
      "type": "function"
    },
    {
      "inputs": [
        {
          "internalType": "address",
          "name": "owner",
          "type": "address"
        }
      ],
      "name": "balanceOf",
      "outputs": [
        {
          "internalType": "uint256",
          "name": "",
          "type": "uint256"
        }
      ],
      "stateMutability": "view",
      "type": "function"
    },
    {
      "inputs": [],
      "name": "dao1",
      "outputs": [
        {
          "internalType": "address",
          "name": "",
          "type": "address"
        }
      ],
      "stateMutability": "view",
      "type": "function"
    },
    {
      "inputs": [],
      "name": "dao2",
      "outputs": [
        {
          "internalType": "address",
          "name": "",
          "type": "address"
        }
      ],
      "stateMutability": "view",
      "type": "function"
    },
    {
      "inputs": [],
      "name": "dao3",
      "outputs": [
        {
          "internalType": "address",
          "name": "",
          "type": "address"
        }
      ],
      "stateMutability": "view",
      "type": "function"
    },
    {
      "inputs": [],
      "name": "daoa",
      "outputs": [
        {
          "internalType": "uint256",
          "name": "",
          "type": "uint256"
        }
      ],
      "stateMutability": "view",
      "type": "function"
    },
    {
      "inputs": [],
      "name": "erc20",
      "outputs": [
        {
          "internalType": "contract ERC20",
          "name": "",
          "type": "address"
        }
      ],
      "stateMutability": "view",
      "type": "function"
    },
    {
      "inputs": [
        {
          "internalType": "uint256",
          "name": "tokenId",
          "type": "uint256"
        }
      ],
      "name": "getApproved",
      "outputs": [
        {
          "internalType": "address",
          "name": "",
          "type": "address"
        }
      ],
      "stateMutability": "view",
      "type": "function"
    },
    {
      "inputs": [
        {
          "internalType": "address",
          "name": "sender",
          "type": "address"
        },
        {
          "internalType": "string",
          "name": "ticketOption",
          "type": "string"
        }
      ],
      "name": "getPrice",
      "outputs": [
        {
          "internalType": "uint256",
          "name": "",
          "type": "uint256"
        }
      ],
      "stateMutability": "view",
      "type": "function"
    },
    {
      "inputs": [
        {
          "internalType": "address",
          "name": "owner",
          "type": "address"
        },
        {
          "internalType": "address",
          "name": "operator",
          "type": "address"
        }
      ],
      "name": "isApprovedForAll",
      "outputs": [
        {
          "internalType": "bool",
          "name": "",
          "type": "bool"
        }
      ],
      "stateMutability": "view",
      "type": "function"
    },
    {
      "inputs": [
        {
          "internalType": "uint256",
          "name": "id",
          "type": "uint256"
        },
        {
          "internalType": "bool",
          "name": "scan",
          "type": "bool"
        },
        {
          "internalType": "bool",
          "name": "canceled",
          "type": "bool"
        }
      ],
      "name": "markAsScannedCanceld",
      "outputs": [
        {
          "internalType": "bool",
          "name": "",
          "type": "bool"
        }
      ],
      "stateMutability": "nonpayable",
      "type": "function"
    },
    {
      "inputs": [
        {
          "components": [
            {
              "components": [
                {
                  "internalType": "string",
                  "name": "email",
                  "type": "string"
                },
                {
                  "internalType": "string",
                  "name": "fname",
                  "type": "string"
                },
                {
                  "internalType": "string",
                  "name": "lname",
                  "type": "string"
                },
                {
                  "internalType": "string",
                  "name": "twitter",
                  "type": "string"
                },
                {
                  "internalType": "string",
                  "name": "bio",
                  "type": "string"
                },
                {
                  "internalType": "string",
                  "name": "job",
                  "type": "string"
                },
                {
                  "internalType": "string",
                  "name": "company",
                  "type": "string"
                },
                {
                  "internalType": "string",
                  "name": "workshop",
                  "type": "string"
                },
                {
                  "internalType": "string",
                  "name": "tshirt",
                  "type": "string"
                },
                {
                  "internalType": "string",
                  "name": "telegram",
                  "type": "string"
                }
              ],
              "internalType": "struct ETHDubaiTicket.AttendeeInfo",
              "name": "attendeeInfo",
              "type": "tuple"
            },
            {
              "internalType": "string",
              "name": "ticketCode",
              "type": "string"
            },
            {
              "internalType": "string",
              "name": "ticketOption",
              "type": "string"
            },
            {
              "internalType": "string",
              "name": "specialStatus",
              "type": "string"
            },
            {
              "components": [
                {
                  "internalType": "bool",
                  "name": "isResellable",
                  "type": "bool"
                },
                {
                  "internalType": "uint256",
                  "name": "price",
                  "type": "uint256"
                }
              ],
              "internalType": "struct ETHDubaiTicket.Resellable",
              "name": "resellable",
              "type": "tuple"
            }
          ],
          "internalType": "struct ETHDubaiTicket.MintInfo[]",
          "name": "mintInfos",
          "type": "tuple[]"
        }
      ],
      "name": "mintItem",
      "outputs": [
        {
          "internalType": "string",
          "name": "",
          "type": "string"
        }
      ],
      "stateMutability": "payable",
      "type": "function"
    },
    {
      "inputs": [],
      "name": "name",
      "outputs": [
        {
          "internalType": "string",
          "name": "",
          "type": "string"
        }
      ],
      "stateMutability": "view",
      "type": "function"
    },
    {
      "inputs": [],
      "name": "owner",
      "outputs": [
        {
          "internalType": "address payable",
          "name": "",
          "type": "address"
        }
      ],
      "stateMutability": "view",
      "type": "function"
    },
    {
      "inputs": [
        {
          "internalType": "uint256",
          "name": "tokenId",
          "type": "uint256"
        }
      ],
      "name": "ownerOf",
      "outputs": [
        {
          "internalType": "address",
          "name": "",
          "type": "address"
        }
      ],
      "stateMutability": "view",
      "type": "function"
    },
    {
      "inputs": [
        {
          "internalType": "uint256",
          "name": "id",
          "type": "uint256"
        }
      ],
      "name": "renderTokenById",
      "outputs": [
        {
          "internalType": "string",
          "name": "",
          "type": "string"
        }
      ],
      "stateMutability": "view",
      "type": "function"
    },
    {
      "inputs": [
        {
          "internalType": "uint256",
          "name": "tokenId",
          "type": "uint256"
        }
      ],
      "name": "resell",
      "outputs": [],
      "stateMutability": "payable",
      "type": "function"
    },
    {
      "inputs": [
        {
          "internalType": "address",
          "name": "from",
          "type": "address"
        },
        {
          "internalType": "address",
          "name": "to",
          "type": "address"
        },
        {
          "internalType": "uint256",
          "name": "tokenId",
          "type": "uint256"
        }
      ],
      "name": "safeTransferFrom",
      "outputs": [],
      "stateMutability": "nonpayable",
      "type": "function"
    },
    {
      "inputs": [
        {
          "internalType": "address",
          "name": "from",
          "type": "address"
        },
        {
          "internalType": "address",
          "name": "to",
          "type": "address"
        },
        {
          "internalType": "uint256",
          "name": "tokenId",
          "type": "uint256"
        },
        {
          "internalType": "bytes",
          "name": "_data",
          "type": "bytes"
        }
      ],
      "name": "safeTransferFrom",
      "outputs": [],
      "stateMutability": "nonpayable",
      "type": "function"
    },
    {
      "inputs": [
        {
          "internalType": "address",
          "name": "operator",
          "type": "address"
        },
        {
          "internalType": "bool",
          "name": "approved",
          "type": "bool"
        }
      ],
      "name": "setApprovalForAll",
      "outputs": [],
      "stateMutability": "nonpayable",
      "type": "function"
    },
    {
      "inputs": [
        {
          "internalType": "address",
          "name": "d1",
          "type": "address"
        },
        {
          "internalType": "address",
          "name": "d2",
          "type": "address"
        },
        {
          "internalType": "address",
          "name": "d3",
          "type": "address"
        },
        {
          "internalType": "uint256",
          "name": "a",
          "type": "uint256"
        }
      ],
      "name": "setDaos",
      "outputs": [
        {
          "internalType": "bool",
          "name": "",
          "type": "bool"
        }
      ],
      "stateMutability": "nonpayable",
      "type": "function"
    },
    {
      "inputs": [
        {
          "internalType": "address",
          "name": "buyer",
          "type": "address"
        },
        {
          "internalType": "string[]",
          "name": "discounts",
          "type": "string[]"
        },
        {
          "internalType": "uint256",
          "name": "amount",
          "type": "uint256"
        }
      ],
      "name": "setDiscount",
      "outputs": [
        {
          "internalType": "bool",
          "name": "",
          "type": "bool"
        }
      ],
      "stateMutability": "nonpayable",
      "type": "function"
    },
    {
      "inputs": [
        {
          "internalType": "uint256",
          "name": "max",
          "type": "uint256"
        }
      ],
      "name": "setMaxMint",
      "outputs": [
        {
          "internalType": "uint256",
          "name": "",
          "type": "uint256"
        }
      ],
      "stateMutability": "nonpayable",
      "type": "function"
    },
    {
      "inputs": [
        {
          "internalType": "uint256",
          "name": "id",
          "type": "uint256"
        },
        {
          "internalType": "bool",
          "name": "isResellable",
          "type": "bool"
        },
        {
          "internalType": "uint256",
          "name": "price",
          "type": "uint256"
        }
      ],
      "name": "setResellable",
      "outputs": [
        {
          "internalType": "bool",
          "name": "",
          "type": "bool"
        }
      ],
      "stateMutability": "nonpayable",
      "type": "function"
    },
    {
      "inputs": [
        {
          "internalType": "string",
          "name": "name",
          "type": "string"
        },
        {
          "internalType": "uint256",
          "name": "amount",
          "type": "uint256"
        }
      ],
      "name": "setTicketOption",
      "outputs": [
        {
          "internalType": "bool",
          "name": "",
          "type": "bool"
        }
      ],
      "stateMutability": "nonpayable",
      "type": "function"
    },
    {
      "inputs": [
        {
          "internalType": "string",
          "name": "name",
          "type": "string"
        },
        {
          "internalType": "address",
          "name": "e2",
          "type": "address"
        }
      ],
      "name": "setTicketSettings",
      "outputs": [
        {
          "internalType": "bool",
          "name": "",
          "type": "bool"
        }
      ],
      "stateMutability": "nonpayable",
      "type": "function"
    },
    {
      "inputs": [],
      "name": "settings",
      "outputs": [
        {
          "components": [
            {
              "internalType": "string",
              "name": "name",
              "type": "string"
            }
          ],
          "internalType": "struct ETHDubaiTicket.TicketSettings",
          "name": "ticketSettings",
          "type": "tuple"
        },
        {
          "internalType": "uint256",
          "name": "maxMint",
          "type": "uint256"
        }
      ],
      "stateMutability": "view",
      "type": "function"
    },
    {
      "inputs": [
        {
          "internalType": "bytes4",
          "name": "interfaceId",
          "type": "bytes4"
        }
      ],
      "name": "supportsInterface",
      "outputs": [
        {
          "internalType": "bool",
          "name": "",
          "type": "bool"
        }
      ],
      "stateMutability": "view",
      "type": "function"
    },
    {
      "inputs": [],
      "name": "symbol",
      "outputs": [
        {
          "internalType": "string",
          "name": "",
          "type": "string"
        }
      ],
      "stateMutability": "view",
      "type": "function"
    },
    {
      "inputs": [
        {
          "internalType": "uint256",
          "name": "id",
          "type": "uint256"
        }
      ],
      "name": "tokenURI",
      "outputs": [
        {
          "internalType": "string",
          "name": "",
          "type": "string"
        }
      ],
      "stateMutability": "view",
      "type": "function"
    },
    {
      "inputs": [
        {
          "components": [
            {
              "components": [
                {
                  "internalType": "string",
                  "name": "email",
                  "type": "string"
                },
                {
                  "internalType": "string",
                  "name": "fname",
                  "type": "string"
                },
                {
                  "internalType": "string",
                  "name": "lname",
                  "type": "string"
                },
                {
                  "internalType": "string",
                  "name": "twitter",
                  "type": "string"
                },
                {
                  "internalType": "string",
                  "name": "bio",
                  "type": "string"
                },
                {
                  "internalType": "string",
                  "name": "job",
                  "type": "string"
                },
                {
                  "internalType": "string",
                  "name": "company",
                  "type": "string"
                },
                {
                  "internalType": "string",
                  "name": "workshop",
                  "type": "string"
                },
                {
                  "internalType": "string",
                  "name": "tshirt",
                  "type": "string"
                },
                {
                  "internalType": "string",
                  "name": "telegram",
                  "type": "string"
                }
              ],
              "internalType": "struct ETHDubaiTicket.AttendeeInfo",
              "name": "attendeeInfo",
              "type": "tuple"
            },
            {
              "internalType": "string",
              "name": "ticketCode",
              "type": "string"
            },
            {
              "internalType": "string",
              "name": "ticketOption",
              "type": "string"
            },
            {
              "internalType": "string",
              "name": "specialStatus",
              "type": "string"
            },
            {
              "components": [
                {
                  "internalType": "bool",
                  "name": "isResellable",
                  "type": "bool"
                },
                {
                  "internalType": "uint256",
                  "name": "price",
                  "type": "uint256"
                }
              ],
              "internalType": "struct ETHDubaiTicket.Resellable",
              "name": "resellable",
              "type": "tuple"
            }
          ],
          "internalType": "struct ETHDubaiTicket.MintInfo[]",
          "name": "mIs",
          "type": "tuple[]"
        }
      ],
      "name": "totalPrice",
      "outputs": [
        {
          "internalType": "uint256",
          "name": "",
          "type": "uint256"
        }
      ],
      "stateMutability": "view",
      "type": "function"
    },
    {
      "inputs": [
        {
          "internalType": "address",
          "name": "from",
          "type": "address"
        },
        {
          "internalType": "address",
          "name": "to",
          "type": "address"
        },
        {
          "internalType": "uint256",
          "name": "tokenId",
          "type": "uint256"
        }
      ],
      "name": "transferFrom",
      "outputs": [],
      "stateMutability": "nonpayable",
      "type": "function"
    },
    {
      "inputs": [
        {
          "internalType": "uint256",
          "name": "id",
          "type": "uint256"
        },
        {
          "components": [
            {
              "internalType": "string",
              "name": "email",
              "type": "string"
            },
            {
              "internalType": "string",
              "name": "fname",
              "type": "string"
            },
            {
              "internalType": "string",
              "name": "lname",
              "type": "string"
            },
            {
              "internalType": "string",
              "name": "twitter",
              "type": "string"
            },
            {
              "internalType": "string",
              "name": "bio",
              "type": "string"
            },
            {
              "internalType": "string",
              "name": "job",
              "type": "string"
            },
            {
              "internalType": "string",
              "name": "company",
              "type": "string"
            },
            {
              "internalType": "string",
              "name": "workshop",
              "type": "string"
            },
            {
              "internalType": "string",
              "name": "tshirt",
              "type": "string"
            },
            {
              "internalType": "string",
              "name": "telegram",
              "type": "string"
            }
          ],
          "internalType": "struct ETHDubaiTicket.AttendeeInfo",
          "name": "attendeeInfo",
          "type": "tuple"
        }
      ],
      "name": "updateAttendeeInfo",
      "outputs": [
        {
          "internalType": "bool",
          "name": "",
          "type": "bool"
        }
      ],
      "stateMutability": "nonpayable",
      "type": "function"
    },
    {
      "inputs": [],
      "name": "withdraw",
      "outputs": [],
      "stateMutability": "nonpayable",
      "type": "function"
    }
  ],
  "bytecode": "0x60806040523480156200001157600080fd5b50604080518082018252600e81526d115512111d58985a551a58dad95d60921b602080830191825283518085019094526008845267455448445542414960c01b908401528151919291620000689160009162000316565b5080516200007e90600190602084019062000316565b505050336001600160a01b03167f0738f4da267a110d810e6e89fc59e46be6de0c37b1d5cd559b267dc3688e74e0604051620000d59060208082526007908201526618dc99585d195960ca1b604082015260600190565b60405180910390a2600880546001600160a01b031990811633179091556032600f55600d805490911673bb4c52e21b2f7a7b620253560c3dedb7fc67d80617905560408051606081018252600a602082018181526919585c9b1e48189a5c9960b21b93830193845282529091600e916200015191839162000316565b50506040805169636f6e666572656e636560b01b81526012600a8201819052915190819003602a01812067016345785d8a00009055670776f726b73686f760c41b8152671bc16d674ec800009250600801908152604051908190036020018120919091556702c68af0bb14000090601290620001e69072776f726b73686f70416e64507265506172747960681b815260130190565b908152604051908190036020018120919091556702c68af0bb1400009060129062000226906e686f74656c436f6e666572656e636560881b8152600f0190565b90815260405190819003602001812091909155671dd6559bdb1700009060129062000265906d686f74656c576f726b73686f707360901b8152600e0190565b9081526040519081900360200181209190915567058d15e17628000090601290620002b3907f686f74656c576f726b73686f7073416e64507265506172747900000000000000815260190190565b90815260405190819003602001812091909155600190601190620002f09072776f726b73686f70416e64507265506172747960681b815260130190565b908152604051908190036020019020805491151560ff19909216919091179055620003f9565b8280546200032490620003bc565b90600052602060002090601f01602090048101928262000348576000855562000393565b82601f106200036357805160ff191683800117855562000393565b8280016001018555821562000393579182015b828111156200039357825182559160200191906001019062000376565b50620003a1929150620003a5565b5090565b5b80821115620003a15760008155600101620003a6565b600181811c90821680620003d157607f821691505b60208210811415620003f357634e487b7160e01b600052602260045260246000fd5b50919050565b615eb180620004096000396000f3fe6080604052600436106102505760003560e01c8063785e9e8611610139578063a2d6c6da116100b6578063d18d48ae1161007a578063d18d48ae14610770578063e06174e4146107a6578063e136d28c146107c9578063e985e9c5146107e9578063f5600d0814610832578063fc4717891461085257600080fd5b8063a2d6c6da146106dd578063ab756c88146106fd578063b88d4fde14610710578063b9a34d9214610730578063c87b56dd1461075057600080fd5b806391effe76116100fd57806391effe76146105d257806393348137146105f257806395d89b4114610612578063a011bc1514610627578063a22cb465146106bd57600080fd5b8063785e9e861461053c5780637f7819a71461055c57806383b466d61461057c57806387f4f4e4146105925780638da5cb5b146105b257600080fd5b806342842e0e116101d25780635bb67fb0116101965780635bb67fb01461046c5780635e6b120f1461049c5780636352211e146104bc57806368064d1e146104dc57806370a08231146104fc57806376977a3a1461051c57600080fd5b806342842e0e146103cc57806349b79f91146103ec57806353716f911461040c578063547520fe1461042c57806357aed4011461044c57600080fd5b80630defcdff116102195780630defcdff14610319578063207a73051461033957806323b872dd1461036757806335090d3a146103875780633ccfd60b146103b757600080fd5b8062746ce31461025557806301ffc9a71461026a57806306fdde031461029f578063081812fc146102c1578063095ea7b3146102f9575b600080fd5b610268610263366004614336565b6108a3565b005b34801561027657600080fd5b5061028a610285366004614365565b610b6e565b60405190151581526020015b60405180910390f35b3480156102ab57600080fd5b506102b4610bc0565b60405161029691906143e1565b3480156102cd57600080fd5b506102e16102dc366004614336565b610c52565b6040516001600160a01b039091168152602001610296565b34801561030557600080fd5b50610268610314366004614409565b610ce7565b34801561032557600080fd5b506102b4610334366004614336565b610dfd565b34801561034557600080fd5b50610359610354366004614761565b610e97565b604051908152602001610296565b34801561037357600080fd5b506102686103823660046148d3565b610ef1565b34801561039357600080fd5b5061028a6103a2366004614336565b60176020526000908152604090205460ff1681565b3480156103c357600080fd5b50610268610f22565b3480156103d857600080fd5b506102686103e73660046148d3565b61112a565b3480156103f857600080fd5b50600b546102e1906001600160a01b031681565b34801561041857600080fd5b5061028a610427366004614914565b611145565b34801561043857600080fd5b50610359610447366004614336565b611257565b34801561045857600080fd5b5061028a610467366004614956565b6112e4565b34801561047857600080fd5b5061028a610487366004614336565b60166020526000908152604090205460ff1681565b3480156104a857600080fd5b5061028a6104b73660046149a7565b61135f565b3480156104c857600080fd5b506102e16104d7366004614336565b611436565b3480156104e857600080fd5b5061028a6104f73660046149f8565b6114ad565b34801561050857600080fd5b50610359610517366004614a1f565b6115eb565b34801561052857600080fd5b50610359610537366004614a3c565b611672565b34801561054857600080fd5b50600d546102e1906001600160a01b031681565b34801561056857600080fd5b5061028a610577366004614a8b565b611acd565b34801561058857600080fd5b50610359600c5481565b34801561059e57600080fd5b50600a546102e1906001600160a01b031681565b3480156105be57600080fd5b506008546102e1906001600160a01b031681565b3480156105de57600080fd5b506009546102e1906001600160a01b031681565b3480156105fe57600080fd5b506102b461060d366004614336565b611b95565b34801561061e57600080fd5b506102b4611bae565b34801561063357600080fd5b50610682610642366004614336565b60186020526000908152604090205460e881811b9163010000008104821b91600160301b8204811b91600160481b8104821b91600160601b909104901b85565b604080516001600160e81b0319968716815294861660208601529285169284019290925283166060830152909116608082015260a001610296565b3480156106c957600080fd5b506102686106d8366004614b58565b611bbd565b3480156106e957600080fd5b506102b46106f8366004614336565b611c82565b6102b461070b366004614761565b611db3565b34801561071c57600080fd5b5061026861072b366004614b86565b61200c565b34801561073c57600080fd5b5061028a61074b366004614c05565b612044565b34801561075c57600080fd5b506102b461076b366004614336565b61209e565b34801561077c57600080fd5b5061079061078b366004614336565b612210565b6040516102969a99989796959493929190614c49565b3480156107b257600080fd5b506107bb6127ac565b604051610296929190614d24565b3480156107d557600080fd5b5061028a6107e4366004614d50565b612859565b3480156107f557600080fd5b5061028a610804366004614d8c565b6001600160a01b03918216600090815260056020908152604080832093909416825291909152205460ff1690565b34801561083e57600080fd5b506102b461084d366004614336565b612a85565b34801561085e57600080fd5b5061088c61086d366004614336565b6015602052600090815260409020805460019091015460ff9091169082565b604080519215158352602083019190915201610296565b6000818152601560209081526040918290208251808401909352805460ff161515808452600190910154918301919091526109145760405162461bcd60e51b815260206004820152600c60248201526b6e6f7420666f722073616c6560a01b60448201526064015b60405180910390fd5b60208101516000610926601483614de6565b905060006109348284614dfa565b9050600061094186611436565b600d546040516323b872dd60e01b81523360048201526001600160a01b038084166024830152604482018690529293509116906323b872dd906064016020604051808303816000875af115801561099c573d6000803e3d6000fd5b505050506040513d601f19601f820116820180604052508101906109c09190614e11565b6109c957600080fd5b600d546040516323b872dd60e01b8152336004820152306024820152604481018590526001600160a01b03909116906323b872dd906064016020604051808303816000875af1158015610a20573d6000803e3d6000fd5b505050506040513d601f19601f82011682018060405250810190610a449190614e11565b610a4d57600080fd5b610a60610a5987611436565b3388612a9e565b60008086528681526015602090815260408083208851815460ff19169015151781559188015160019092019190915580516080810190915280610aa289611436565b6001600160a01b03168152602001336001600160a01b0316815260200188815260200186815250905080604051610b0d919081516001600160a01b03908116825260208084015190911690820152604080830151908201526060918201519181019190915260800190565b60405180910390207f60495e8f84637280bfda279215ab8a212d6be2f484c771235260c1def06ac9dc604051610b5d906020808252600690820152651c995cd95b1b60d21b604082015260600190565b60405180910390a250505050505050565b60006001600160e01b031982166380ac58cd60e01b1480610b9f57506001600160e01b03198216635b5e139f60e01b145b80610bba57506301ffc9a760e01b6001600160e01b03198316145b92915050565b606060008054610bcf90614e2e565b80601f0160208091040260200160405190810160405280929190818152602001828054610bfb90614e2e565b8015610c485780601f10610c1d57610100808354040283529160200191610c48565b820191906000526020600020905b815481529060010190602001808311610c2b57829003601f168201915b5050505050905090565b6000818152600260205260408120546001600160a01b0316610ccb5760405162461bcd60e51b815260206004820152602c60248201527f4552433732313a20617070726f76656420717565727920666f72206e6f6e657860448201526b34b9ba32b73a103a37b5b2b760a11b606482015260840161090b565b506000908152600460205260409020546001600160a01b031690565b6000610cf282611436565b9050806001600160a01b0316836001600160a01b03161415610d605760405162461bcd60e51b815260206004820152602160248201527f4552433732313a20617070726f76616c20746f2063757272656e74206f776e656044820152603960f91b606482015260840161090b565b336001600160a01b0382161480610d7c5750610d7c8133610804565b610dee5760405162461bcd60e51b815260206004820152603860248201527f4552433732313a20617070726f76652063616c6c6572206973206e6f74206f7760448201527f6e6572206e6f7220617070726f76656420666f7220616c6c0000000000000000606482015260840161090b565b610df88383612c3e565b505050565b60146020526000908152604090208054610e1690614e2e565b80601f0160208091040260200160405190810160405280929190818152602001828054610e4290614e2e565b8015610e8f5780601f10610e6457610100808354040283529160200191610e8f565b820191906000526020600020905b815481529060010190602001808311610e7257829003601f168201915b505050505081565b600080805b8351811015610eea57610ecc33858381518110610ebb57610ebb614e69565b602002602001015160400151611672565b610ed69083614e7f565b915080610ee281614e97565b915050610e9c565b5092915050565b610efb3382612cac565b610f175760405162461bcd60e51b815260040161090b90614eb2565b610df8838383612a9e565b60085460405147916000916001600160a01b039091169083908381818185875af1925050503d8060008114610f73576040519150601f19603f3d011682016040523d82523d6000602084013e610f78565b606091505b5050600d546040516370a0823160e01b81523060048201529192506000916001600160a01b03909116906370a0823190602401602060405180830381865afa158015610fc8573d6000803e3d6000fd5b505050506040513d601f19601f82011682018060405250810190610fec9190614f03565b600d5460085460405163a9059cbb60e01b81526001600160a01b03918216600482015260248101849052929350169063a9059cbb906044016020604051808303816000875af1158015611043573d6000803e3d6000fd5b505050506040513d601f19601f820116820180604052508101906110679190614e11565b61109c5760405162461bcd60e51b815260206004820152600660248201526511985a5b195960d21b604482015260640161090b565b816110d25760405162461bcd60e51b815260206004820152600660248201526511985a5b195960d21b604482015260640161090b565b827f8357d8ab35f23e88ce565d8adf95e902661648acccc23d68dafcbdd1eca6764c60405161111d90602080825260089082015267776974686472617760c01b604082015260600190565b60405180910390a2505050565b610df88383836040518060200160405280600081525061200c565b6008546000906001600160a01b031633146111725760405162461bcd60e51b815260040161090b90614f1c565b6000848152601660209081526040808320805460ff19908116881515908117909255601784529382902080549094168615151790935580519283529082018190526004908201526339b1b0b760e11b606082015284907f40468798b83ac9e30fa77473fd728c43883657f2365f0cb2bd9dbf4657ad4d619060800160405180910390a2837f40468798b83ac9e30fa77473fd728c43883657f2365f0cb2bd9dbf4657ad4d618360405161124791151581526040602082018190526006908201526518d85b98d95b60d21b606082015260800190565b60405180910390a2509092915050565b6008546000906001600160a01b031633146112845760405162461bcd60e51b815260040161090b90614f1c565b600f82905560405182907f8357d8ab35f23e88ce565d8adf95e902661648acccc23d68dafcbdd1eca6764c906112d8906020808252600a90820152691cd95d13585e135a5b9d60b21b604082015260600190565b60405180910390a25090565b6008546000906001600160a01b031633146113115760405162461bcd60e51b815260040161090b90614f1c565b50600980546001600160a01b038087166001600160a01b031992831617909255600a8054868416908316179055600b805492851692909116919091179055600c81905560015b949350505050565b6008546000906001600160a01b0316331461138c5760405162461bcd60e51b815260040161090b90614f1c565b825161139f90600e9060208601906141ea565b50600d80546001600160a01b0319166001600160a01b0384161790556040516113ca90600e90614f40565b60405180910390207f91adaaa32f8e275893e2f8dc786e170fdb9de662a8caaaf89974339ba9a777d5604051611425906020808252601190820152707365745469636b657453657474696e677360781b604082015260600190565b60405180910390a250600192915050565b6000818152600260205260408120546001600160a01b031680610bba5760405162461bcd60e51b815260206004820152602960248201527f4552433732313a206f776e657220717565727920666f72206e6f6e657869737460448201526832b73a103a37b5b2b760b91b606482015260840161090b565b6040516331a9108f60e11b8152600481018490526000903090636352211e90602401602060405180830381865afa1580156114ec573d6000803e3d6000fd5b505050506040513d601f19601f820116820180604052508101906115109190614fb1565b6001600160a01b0316336001600160a01b0316146115405760405162461bcd60e51b815260040161090b90614f1c565b604080518082018252841515815260208082018581526000888152601583528490208351815490151560ff1990911681178255825160019092019190915584519081529051918101919091526060818401819052600d908201526c736574526573656c6c61626c6560981b60808201529151909186917fc719d0dddd8df14e3e631a3138b5a3c9cde19770ceec3c72c9375f60e179e8e19181900360a00190a2506001949350505050565b60006001600160a01b0382166116565760405162461bcd60e51b815260206004820152602a60248201527f4552433732313a2062616c616e636520717565727920666f7220746865207a65604482015269726f206164647265737360b01b606482015260840161090b565b506001600160a01b031660009081526003602052604090205490565b6001600160a01b0382166000908152601060209081526040808320815181546060948102820185018452928101838152859491938492849190879085015b8282101561175c5783829060005260206000200180546116cf90614e2e565b80601f01602080910402602001604051908101604052809291908181526020018280546116fb90614e2e565b80156117485780601f1061171d57610100808354040283529160200191611748565b820191906000526020600020905b81548152906001019060200180831161172b57829003601f168201915b5050505050815260200190600101906116b0565b505050908252506001918201546020918201526001600160a01b038716600090815260109091526040808220909201549151929350909181906012906117a3908890614fea565b908152602001604051809103902054826117bd9190614e7f565b915082156118775760005b845151811015611867576000856000015182815181106117ea576117ea614e69565b6020026020010151905060008890508060405160200161180a9190614fea565b60405160208183030381529060405280519060200120826040516020016118319190614fea565b60405160208183030381529060405280519060200120141561185257600193505b5050808061185f90614e97565b9150506117c8565b508061187257600092505b611a4c565b60095460009081906001600160a01b03161561190b576009546040516370a0823160e01b81523360048201526001600160a01b039091169081906370a0823190602401602060405180830381865afa1580156118d7573d6000803e3d6000fd5b505050506040513d601f19601f820116820180604052508101906118fb9190614f03565b9150811561190957600c5495505b505b841580156119275750600a546001600160a01b03838116911614155b156119aa57600a546040516370a0823160e01b81523360048201526001600160a01b039091169081906370a0823190602401602060405180830381865afa158015611976573d6000803e3d6000fd5b505050506040513d601f19601f8201168201806040525081019061199a9190614f03565b915081156119a857600c5495505b505b841580156119c65750600b546001600160a01b03838116911614155b15611a4957600b546040516370a0823160e01b81523360048201526001600160a01b039091169081906370a0823190602401602060405180830381865afa158015611a15573d6000803e3d6000fd5b505050506040513d601f19601f82011682018060405250810190611a399190614f03565b91508115611a4757600c5495505b505b50505b60008211611a8f5760405162461bcd60e51b815260206004820152601060248201526f0546f74616c2063616e277420626520360841b604482015260640161090b565b8080611a9b5750600083115b15611ac3576064611aac8484615006565b611ab69190614de6565b611ac09083614dfa565b91505b5095945050505050565b6008546000906001600160a01b03163314611afa5760405162461bcd60e51b815260040161090b90614f1c565b6040805180820182528481526020810184905290516001600160a01b038616907f178a9f003387b45d102f3acfac1899591ad2260290718874e3492928b77e78e790611b47908490615025565b60405180910390a26001600160a01b0385166000908152601060209081526040909120825180518493611b7e92849291019061426e565b506020919091015160019182015595945050505050565b60196020526000908152604090208054610e1690614e2e565b606060018054610bcf90614e2e565b6001600160a01b038216331415611c165760405162461bcd60e51b815260206004820152601960248201527f4552433732313a20617070726f766520746f2063616c6c657200000000000000604482015260640161090b565b3360008181526005602090815260408083206001600160a01b03871680855290835292819020805460ff191686151590811790915590519081529192917f17307eab39ab6107e8899845ad3d59bd9653f200f220920489ca2b5937696c31910160405180910390a35050565b60008181526018602052604081205460609190611cab9060e81b6001600160e81b031916612d9f565b600084815260186020526040902054611cd7906301000000900460e81b6001600160e81b031916612d9f565b600085815260186020526040902054611d0390600160301b900460e81b6001600160e81b031916612d9f565b600086815260186020526040902054611d2f906301000000900460e81b6001600160e81b031916612d9f565b600087815260186020526040902054611d5b90600160481b900460e81b6001600160e81b031916612d9f565b600088815260186020526040902054611d8790600160601b900460e81b6001600160e81b031916612d9f565b604051602001611d9c969594939291906150c2565b60408051601f198184030181529190529392505050565b600f54606090611dc260075490565b10611dfa5760405162461bcd60e51b81526020600482015260086024820152671cdbdb19081bdd5d60c21b604482015260640161090b565b6000611e0583610e97565b600d546040516323b872dd60e01b8152336004820152306024820152604481018390529192506001600160a01b0316906323b872dd906064016020604051808303816000875af1158015611e5d573d6000803e3d6000fd5b505050506040513d601f19601f82011682018060405250810190611e819190614e11565b611ec15760405162461bcd60e51b81526020600482015260116024820152701d1c985b9cd9995c919c9bdb4819985a5b607a1b604482015260640161090b565b604080516020810190915260008082525b845181101561200457604080516000815260208101918290525190208551869083908110611f0257611f02614e69565b602002602001015160600151604051602001611f1e9190614fea565b604051602081830303815290604052805190602001201480611f4a57506008546001600160a01b031633145b611f665760405162461bcd60e51b815260040161090b90614f1c565b6000611f8b868381518110611f7d57611f7d614e69565b602002602001015133612ee6565b9050336001600160a01b03167f632d98bca08ade3a45aae4221e31316ffd5993820d60db7bd3d986788cf0932a82604051611fe991815260406020820181905260099082015268135a5b9d195908125960ba1b606082015260800190565b60405180910390a25080611ffc81614e97565b915050611ed2565b509392505050565b6120163383612cac565b6120325760405162461bcd60e51b815260040161090b90614eb2565b61203e848484846134dd565b50505050565b6008546000906001600160a01b031633146120715760405162461bcd60e51b815260040161090b90614f1c565b81600e600401846040516120859190614fea565b9081526040519081900360200190205550600192915050565b6000818152600260205260409020546060906001600160a01b03166120f15760405162461bcd60e51b81526020600482015260096024820152681b9bdd08195e1a5cdd60ba1b604482015260640161090b565b60006120fc83613510565b60405160200161210c919061538c565b6040516020818303038152906040529050600060405160200161215e907f5469636b657420746f20455448447562616920636f6e666572656e636520323081526219189760e91b602082015260230190565b6040516020818303038152906040529050600061218261217d8661360d565b613b0b565b90506121e7838361219288613510565b60008981526019602052604090206121bd60146121ae8c611436565b6001600160a01b031690613c70565b866040516020016121d396959493929190615434565b604051602081830303815290604052613b0b565b6040516020016121f791906155bc565b6040516020818303038152906040529350505050919050565b60136020526000908152604090208054819061222b90614e2e565b80601f016020809104026020016040519081016040528092919081815260200182805461225790614e2e565b80156122a45780601f10612279576101008083540402835291602001916122a4565b820191906000526020600020905b81548152906001019060200180831161228757829003601f168201915b5050505050908060010180546122b990614e2e565b80601f01602080910402602001604051908101604052809291908181526020018280546122e590614e2e565b80156123325780601f1061230757610100808354040283529160200191612332565b820191906000526020600020905b81548152906001019060200180831161231557829003601f168201915b50505050509080600201805461234790614e2e565b80601f016020809104026020016040519081016040528092919081815260200182805461237390614e2e565b80156123c05780601f10612395576101008083540402835291602001916123c0565b820191906000526020600020905b8154815290600101906020018083116123a357829003601f168201915b5050505050908060030180546123d590614e2e565b80601f016020809104026020016040519081016040528092919081815260200182805461240190614e2e565b801561244e5780601f106124235761010080835404028352916020019161244e565b820191906000526020600020905b81548152906001019060200180831161243157829003601f168201915b50505050509080600401805461246390614e2e565b80601f016020809104026020016040519081016040528092919081815260200182805461248f90614e2e565b80156124dc5780601f106124b1576101008083540402835291602001916124dc565b820191906000526020600020905b8154815290600101906020018083116124bf57829003601f168201915b5050505050908060050180546124f190614e2e565b80601f016020809104026020016040519081016040528092919081815260200182805461251d90614e2e565b801561256a5780601f1061253f5761010080835404028352916020019161256a565b820191906000526020600020905b81548152906001019060200180831161254d57829003601f168201915b50505050509080600601805461257f90614e2e565b80601f01602080910402602001604051908101604052809291908181526020018280546125ab90614e2e565b80156125f85780601f106125cd576101008083540402835291602001916125f8565b820191906000526020600020905b8154815290600101906020018083116125db57829003601f168201915b50505050509080600701805461260d90614e2e565b80601f016020809104026020016040519081016040528092919081815260200182805461263990614e2e565b80156126865780601f1061265b57610100808354040283529160200191612686565b820191906000526020600020905b81548152906001019060200180831161266957829003601f168201915b50505050509080600801805461269b90614e2e565b80601f01602080910402602001604051908101604052809291908181526020018280546126c790614e2e565b80156127145780601f106126e957610100808354040283529160200191612714565b820191906000526020600020905b8154815290600101906020018083116126f757829003601f168201915b50505050509080600901805461272990614e2e565b80601f016020809104026020016040519081016040528092919081815260200182805461275590614e2e565b80156127a25780601f10612777576101008083540402835291602001916127a2565b820191906000526020600020905b81548152906001019060200180831161278557829003601f168201915b505050505090508a565b600e806000016040518060200160405290816000820180546127cd90614e2e565b80601f01602080910402602001604051908101604052809291908181526020018280546127f990614e2e565b80156128465780601f1061281b57610100808354040283529160200191612846565b820191906000526020600020905b81548152906001019060200180831161282957829003601f168201915b5050509190925250505060019091015482565b6008546000906001600160a01b03163314806128e557506040516331a9108f60e11b8152600481018490523090636352211e90602401602060405180830381865afa1580156128ac573d6000803e3d6000fd5b505050506040513d601f19601f820116820180604052508101906128d09190614fb1565b6001600160a01b0316336001600160a01b0316145b6129315760405162461bcd60e51b815260206004820152601d60248201527f6f6e6c7920636f6e7472616374206f72207469636b6574206f776e6572000000604482015260640161090b565b60008381526013602090815260409091208351805185936129569284929101906141ea565b50602082810151805161296f92600185019201906141ea565b506040820151805161298b9160028401916020909101906141ea565b50606082015180516129a79160038401916020909101906141ea565b50608082015180516129c39160048401916020909101906141ea565b5060a082015180516129df9160058401916020909101906141ea565b5060c082015180516129fb9160068401916020909101906141ea565b5060e08201518051612a179160078401916020909101906141ea565b506101008201518051612a349160088401916020909101906141ea565b506101208201518051612a519160098401916020909101906141ea565b50905050827f8a4ca1200428c686f2b84bcf478a36282e84ddf0c7198163243e5ef0422129c4836040516114259190615601565b601a6020526000908152604090208054610e1690614e2e565b826001600160a01b0316612ab182611436565b6001600160a01b031614612b195760405162461bcd60e51b815260206004820152602960248201527f4552433732313a207472616e73666572206f6620746f6b656e2074686174206960448201526839903737ba1037bbb760b91b606482015260840161090b565b6001600160a01b038216612b7b5760405162461bcd60e51b8152602060048201526024808201527f4552433732313a207472616e7366657220746f20746865207a65726f206164646044820152637265737360e01b606482015260840161090b565b612b86600082612c3e565b6001600160a01b0383166000908152600360205260408120805460019290612baf908490614dfa565b90915550506001600160a01b0382166000908152600360205260408120805460019290612bdd908490614e7f565b909155505060008181526002602052604080822080546001600160a01b0319166001600160a01b0386811691821790925591518493918716917fddf252ad1be2c89b69c2b068fc378daa952ba7f163c4a11628f55a4df523b3ef91a4505050565b600081815260046020526040902080546001600160a01b0319166001600160a01b0384169081179091558190612c7382611436565b6001600160a01b03167f8c5be1e5ebec7d5bd14f71427d1e84f3dd0314c0f7b2291e5b200ac8c7c3b92560405160405180910390a45050565b6000818152600260205260408120546001600160a01b0316612d255760405162461bcd60e51b815260206004820152602c60248201527f4552433732313a206f70657261746f7220717565727920666f72206e6f6e657860448201526b34b9ba32b73a103a37b5b2b760a11b606482015260840161090b565b6000612d3083611436565b9050806001600160a01b0316846001600160a01b03161480612d6b5750836001600160a01b0316612d6084610c52565b6001600160a01b0316145b8061135757506001600160a01b0380821660009081526005602090815260408083209388168352929052205460ff16611357565b6040805160068082528183019092526060916000919060208201818036833701905050905060005b6003811015610eea576f181899199a1a9b1b9c1cb0b131b232b360811b848260038110612df657612df6614e69565b1a600f1660108110612e0a57612e0a614e69565b1a60f81b82612e1a836002615006565b612e25906001614e7f565b81518110612e3557612e35614e69565b60200101906001600160f81b031916908160001a9053506f181899199a1a9b1b9c1cb0b131b232b360811b6004858360038110612e7457612e74614e69565b1a60f81b6001600160f81b031916901c60f81c600f1660ff1660108110612e9d57612e9d614e69565b1a60f81b82612ead836002615006565b81518110612ebd57612ebd614e69565b60200101906001600160f81b031916908160001a90535080612ede81614e97565b915050612dc7565b6001600160a01b038116600090815260106020908152604080832081518154606094810282018501845292810183815285948594929392849291849190879085015b82821015612fd4578382906000526020600020018054612f4790614e2e565b80601f0160208091040260200160405190810160405280929190818152602001828054612f7390614e2e565b8015612fc05780601f10612f9557610100808354040283529160200191612fc0565b820191906000526020600020905b815481529060010190602001808311612fa357829003601f168201915b505050505081526020019060010190612f28565b5050505081526020016001820154815250509050612ff6600780546001019055565b600061300160075490565b905061300d8582613dbc565b600061302a863061301f436001614e7f565b8a5151904090613efe565b905061303581613f37565b6000838152601860205260408120805462ffffff191660e89390931c929092179091556130788730613068436002614e7f565b408b600001516101200151613efe565b905061308381613f37565b6000848152601860205260408120805460e89390931c63010000000265ffffff00000019909316929092179091556130d088306130c1436003614e7f565b408c6000015160200151613efe565b90506130db81613f37565b6000858152601860205260408120805460e89390931c600160301b0268ffffff000000000000199093169290921790915561312b893061311c436004614e7f565b408d6000015160400151613efe565b905061313681613f37565b6000868152601860205260408120805460e89390931c600160481b026bffffff000000000000000000199093169290921790915561319d8a3061317a436032614e7f565b4060405180604001604052806004815260200163666f6f3560e01b815250613efe565b90506131a881613f37565b6000878152601860209081526040808320805460e89590951c600160601b0262ffffff60601b19909516949094179093558d5160138252929091208251805191926131f8928492909101906141ea565b50602082810151805161321192600185019201906141ea565b506040820151805161322d9160028401916020909101906141ea565b50606082015180516132499160038401916020909101906141ea565b50608082015180516132659160048401916020909101906141ea565b5060a082015180516132819160058401916020909101906141ea565b5060c0820151805161329d9160068401916020909101906141ea565b5060e082015180516132b99160078401916020909101906141ea565b5061010082015180516132d69160088401916020909101906141ea565b5061012082015180516132f39160098401916020909101906141ea565b5050506020808c015160008881526014835260409020815161331a939192909101906141ea565b5060808b015160008781526015602090815260408083208451815490151560ff199182161782559483015160019091015560168252808320805485169055601782528083208054909416909355828e01516019825292909120825161338593919291909101906141ea565b5060006040518060c00160405280898152602001600e6000016040518060200160405290816000820180546133b990614e2e565b80601f01602080910402602001604051908101604052809291908181526020018280546133e590614e2e565b80156134325780601f1061340757610100808354040283529160200191613432565b820191906000526020600020905b81548152906001019060200180831161341557829003601f168201915b50505050508152505081526020018c6001600160a01b031681526020018a81526020018881526020018d6040015181525090508060405161347391906157a9565b60405180910390207fd51300a08f780182a771828f81667b7b6de8e3d3eb5eff9e8b8ea0c49a980db46040516134c5906020808252600890820152676d696e744974656d60c01b604082015260600190565b60405180910390a250949a9950505050505050505050565b6134e8848484612a9e565b6134f484848484613f6e565b61203e5760405162461bcd60e51b815260040161090b90615857565b6060816135345750506040805180820190915260018152600360fc1b602082015290565b8160005b811561355e578061354881614e97565b91506135579050600a83614de6565b9150613538565b6000816001600160401b0381111561357857613578614435565b6040519080825280601f01601f1916602001820160405280156135a2576020820181803683370190505b5090505b8415611357576135b7600183614dfa565b91506135c4600a866158a9565b6135cf906030614e7f565b60f81b8183815181106135e4576135e4614e69565b60200101906001600160f81b031916908160001a905350613606600a86614de6565b94506135a6565b60608060606136d760196000868152602001908152602001600020805461363390614e2e565b80601f016020809104026020016040519081016040528092919081815260200182805461365f90614e2e565b80156136ac5780601f10613681576101008083540402835291602001916136ac565b820191906000526020600020905b81548152906001019060200180831161368f57829003601f168201915b5050505050604051806040016040528060088152602001670776f726b73686f760c41b815250614069565b156137055760405180604001604052806009815260200168576f726b73686f707360b81b8152509150613961565b600084815260196020526040902080546137cd919061372390614e2e565b80601f016020809104026020016040519081016040528092919081815260200182805461374f90614e2e565b801561379c5780601f106137715761010080835404028352916020019161379c565b820191906000526020600020905b81548152906001019060200180831161377f57829003601f168201915b50505050506040518060400160405280600e81526020016d686f74656c576f726b73686f707360901b815250614069565b156137f45750604080518082019091526005815264121bdd195b60da1b6020820152613961565b600084815260196020526040908190209051601191613812916158bd565b9081526040519081900360200190205460ff1615613867576040518060400160405280601781526020017f576f726b73686f707320262620707265706172746965730000000000000000008152509150613961565b6000848152601960205260409020805461393e919061388590614e2e565b80601f01602080910402602001604051908101604052809291908181526020018280546138b190614e2e565b80156138fe5780601f106138d3576101008083540402835291602001916138fe565b820191906000526020600020905b8154815290600101906020018083116138e157829003601f168201915b50505050506040518060400160405280601981526020017f686f74656c576f726b73686f7073416e64507265506172747900000000000000815250614069565b156139615750604080518082019091526005815264121bdd195b60da1b60208201525b6000848152601a602052604090208054613a12919061397f90614e2e565b80601f01602080910402602001604051908101604052809291908181526020018280546139ab90614e2e565b80156139f85780601f106139cd576101008083540402835291602001916139f8565b820191906000526020600020905b8154815290600101906020018083116139db57829003601f168201915b505050505060405180602001604052806000815250614069565b613ab0576000848152601a602052604090208054613a2f90614e2e565b80601f0160208091040260200160405190810160405280929190818152602001828054613a5b90614e2e565b8015613aa85780601f10613a7d57610100808354040283529160200191613aa8565b820191906000526020600020905b815481529060010190602001808311613a8b57829003601f168201915b505050505091505b6000613abb856140c2565b90506000613ac886611c82565b6000878152601360209081526040918290209151613af1939288928892889260090191016158c9565b60408051601f198184030181529190529695505050505050565b6060815160001415613b2b57505060408051602081019091526000815290565b6000604051806060016040528060408152602001615e3c6040913990506000600384516002613b5a9190614e7f565b613b649190614de6565b613b6f906004615006565b90506000613b7e826020614e7f565b6001600160401b03811115613b9557613b95614435565b6040519080825280601f01601f191660200182016040528015613bbf576020820181803683370190505b509050818152600183018586518101602084015b81831015613c2b576003830192508251603f8160121c168501518253600182019150603f81600c1c168501518253600182019150603f8160061c168501518253600182019150603f8116850151825350600101613bd3565b600389510660018114613c455760028114613c5657613c62565b613d3d60f01b600119830152613c62565b603d60f81b6000198301525b509398975050505050505050565b60606000613c7f836002615006565b613c8a906002614e7f565b6001600160401b03811115613ca157613ca1614435565b6040519080825280601f01601f191660200182016040528015613ccb576020820181803683370190505b509050600360fc1b81600081518110613ce657613ce6614e69565b60200101906001600160f81b031916908160001a905350600f60fb1b81600181518110613d1557613d15614e69565b60200101906001600160f81b031916908160001a9053506000613d39846002615006565b613d44906001614e7f565b90505b6001811115612004576f181899199a1a9b1b9c1cb0b131b232b360811b85600f1660108110613d7857613d78614e69565b1a60f81b828281518110613d8e57613d8e614e69565b60200101906001600160f81b031916908160001a90535060049490941c93613db581615d18565b9050613d47565b6001600160a01b038216613e125760405162461bcd60e51b815260206004820181905260248201527f4552433732313a206d696e7420746f20746865207a65726f2061646472657373604482015260640161090b565b6000818152600260205260409020546001600160a01b031615613e775760405162461bcd60e51b815260206004820152601c60248201527f4552433732313a20746f6b656e20616c7265616479206d696e74656400000000604482015260640161090b565b6001600160a01b0382166000908152600360205260408120805460019290613ea0908490614e7f565b909155505060008181526002602052604080822080546001600160a01b0319166001600160a01b03861690811790915590518392907fddf252ad1be2c89b69c2b068fc378daa952ba7f163c4a11628f55a4df523b3ef908290a45050565b600082858584604051602001613f179493929190615d2f565b604051602081830303815290604052805190602001209050949350505050565b600081901a60f81b6001600160f81b03191660ff60f01b600183901a60f01b161760ff60e81b60029290921a60e81b919091161790565b60006001600160a01b0384163b1561406157604051630a85bd0160e11b81526001600160a01b0385169063150b7a0290613fb2903390899088908890600401615d7c565b6020604051808303816000875af1925050508015613fed575060408051601f3d908101601f19168201909252613fea91810190615db9565b60015b614047573d80801561401b576040519150601f19603f3d011682016040523d82523d6000602084013e614020565b606091505b50805161403f5760405162461bcd60e51b815260040161090b90615857565b805181602001fd5b6001600160e01b031916630a85bd0160e11b149050611357565b506001611357565b60008160405160200161407c9190614fea565b60405160208183030381529060405280519060200120836040516020016140a39190614fea565b6040516020818303038152906040528051906020012014905092915050565b6060816140e65750506040805180820190915260018152600360fc1b602082015290565b8160005b811561411057806140fa81614e97565b91506141099050600a83614de6565b91506140ea565b6000816001600160401b0381111561412a5761412a614435565b6040519080825280601f01601f191660200182016040528015614154576020820181803683370190505b509050815b85156141e15761416a600182614dfa565b90506000614179600a88614de6565b61418490600a615006565b61418e9088614dfa565b614199906030615dd6565b905060008160f81b9050808484815181106141b6576141b6614e69565b60200101906001600160f81b031916908160001a9053506141d8600a89614de6565b97505050614159565b50949350505050565b8280546141f690614e2e565b90600052602060002090601f016020900481019282614218576000855561425e565b82601f1061423157805160ff191683800117855561425e565b8280016001018555821561425e579182015b8281111561425e578251825591602001919060010190614243565b5061426a9291506142c7565b5090565b8280548282559060005260206000209081019282156142bb579160200282015b828111156142bb57825180516142ab9184916020909101906141ea565b509160200191906001019061428e565b5061426a9291506142dc565b5b8082111561426a57600081556001016142c8565b8082111561426a5760006142f082826142f9565b506001016142dc565b50805461430590614e2e565b6000825580601f10614315575050565b601f01602090049060005260206000209081019061433391906142c7565b50565b60006020828403121561434857600080fd5b5035919050565b6001600160e01b03198116811461433357600080fd5b60006020828403121561437757600080fd5b81356143828161434f565b9392505050565b60005b838110156143a457818101518382015260200161438c565b8381111561203e5750506000910152565b600081518084526143cd816020860160208601614389565b601f01601f19169290920160200192915050565b60208152600061438260208301846143b5565b6001600160a01b038116811461433357600080fd5b6000806040838503121561441c57600080fd5b8235614427816143f4565b946020939093013593505050565b634e487b7160e01b600052604160045260246000fd5b60405161014081016001600160401b038111828210171561446e5761446e614435565b60405290565b60405160a081016001600160401b038111828210171561446e5761446e614435565b604051601f8201601f191681016001600160401b03811182821017156144be576144be614435565b604052919050565b60006001600160401b038211156144df576144df614435565b5060051b60200190565b60006001600160401b0383111561450257614502614435565b614515601f8401601f1916602001614496565b905082815283838301111561452957600080fd5b828260208301376000602084830101529392505050565b600082601f83011261455157600080fd5b614382838335602085016144e9565b6000610140828403121561457357600080fd5b61457b61444b565b905081356001600160401b038082111561459457600080fd5b6145a085838601614540565b835260208401359150808211156145b657600080fd5b6145c285838601614540565b602084015260408401359150808211156145db57600080fd5b6145e785838601614540565b6040840152606084013591508082111561460057600080fd5b61460c85838601614540565b6060840152608084013591508082111561462557600080fd5b61463185838601614540565b608084015260a084013591508082111561464a57600080fd5b61465685838601614540565b60a084015260c084013591508082111561466f57600080fd5b61467b85838601614540565b60c084015260e084013591508082111561469457600080fd5b6146a085838601614540565b60e0840152610100915081840135818111156146bb57600080fd5b6146c786828701614540565b8385015250610120915081840135818111156146e257600080fd5b6146ee86828701614540565b8385015250505092915050565b801515811461433357600080fd5b60006040828403121561471b57600080fd5b604051604081018181106001600160401b038211171561473d5761473d614435565b604052905080823561474e816146fb565b8152602092830135920191909152919050565b6000602080838503121561477457600080fd5b82356001600160401b038082111561478b57600080fd5b818501915085601f83011261479f57600080fd5b81356147b26147ad826144c6565b614496565b81815260059190911b830184019084810190888311156147d157600080fd5b8585015b838110156148c6578035858111156147ed5760008081fd5b860160c0818c03601f190112156148045760008081fd5b61480c614474565b888201358781111561481e5760008081fd5b61482c8d8b83860101614560565b825250604080830135888111156148435760008081fd5b6148518e8c83870101614540565b8b840152506060808401358981111561486a5760008081fd5b6148788f8d83880101614540565b83850152506080915081840135898111156148935760008081fd5b6148a18f8d83880101614540565b8285015250506148b48d60a08501614709565b908201528452509186019186016147d5565b5098975050505050505050565b6000806000606084860312156148e857600080fd5b83356148f3816143f4565b92506020840135614903816143f4565b929592945050506040919091013590565b60008060006060848603121561492957600080fd5b83359250602084013561493b816146fb565b9150604084013561494b816146fb565b809150509250925092565b6000806000806080858703121561496c57600080fd5b8435614977816143f4565b93506020850135614987816143f4565b92506040850135614997816143f4565b9396929550929360600135925050565b600080604083850312156149ba57600080fd5b82356001600160401b038111156149d057600080fd5b6149dc85828601614540565b92505060208301356149ed816143f4565b809150509250929050565b600080600060608486031215614a0d57600080fd5b833592506020840135614903816146fb565b600060208284031215614a3157600080fd5b8135614382816143f4565b60008060408385031215614a4f57600080fd5b8235614a5a816143f4565b915060208301356001600160401b03811115614a7557600080fd5b614a8185828601614540565b9150509250929050565b600080600060608486031215614aa057600080fd5b8335614aab816143f4565b92506020848101356001600160401b0380821115614ac857600080fd5b818701915087601f830112614adc57600080fd5b8135614aea6147ad826144c6565b81815260059190911b8301840190848101908a831115614b0957600080fd5b8585015b83811015614b4157803585811115614b255760008081fd5b614b338d89838a0101614540565b845250918601918601614b0d565b50979a979950505050604095909501359450505050565b60008060408385031215614b6b57600080fd5b8235614b76816143f4565b915060208301356149ed816146fb565b60008060008060808587031215614b9c57600080fd5b8435614ba7816143f4565b93506020850135614bb7816143f4565b92506040850135915060608501356001600160401b03811115614bd957600080fd5b8501601f81018713614bea57600080fd5b614bf9878235602084016144e9565b91505092959194509250565b60008060408385031215614c1857600080fd5b82356001600160401b03811115614c2e57600080fd5b614c3a85828601614540565b95602094909401359450505050565b6000610140808352614c5d8184018e6143b5565b90508281036020840152614c71818d6143b5565b90508281036040840152614c85818c6143b5565b90508281036060840152614c99818b6143b5565b90508281036080840152614cad818a6143b5565b905082810360a0840152614cc181896143b5565b905082810360c0840152614cd581886143b5565b905082810360e0840152614ce981876143b5565b9050828103610100840152614cfe81866143b5565b9050828103610120840152614d1381856143b5565b9d9c50505050505050505050505050565b604081526000835160206040840152614d4060608401826143b5565b9150508260208301529392505050565b60008060408385031215614d6357600080fd5b8235915060208301356001600160401b03811115614d8057600080fd5b614a8185828601614560565b60008060408385031215614d9f57600080fd5b8235614daa816143f4565b915060208301356149ed816143f4565b634e487b7160e01b600052601260045260246000fd5b634e487b7160e01b600052601160045260246000fd5b600082614df557614df5614dba565b500490565b600082821015614e0c57614e0c614dd0565b500390565b600060208284031215614e2357600080fd5b8151614382816146fb565b600181811c90821680614e4257607f821691505b60208210811415614e6357634e487b7160e01b600052602260045260246000fd5b50919050565b634e487b7160e01b600052603260045260246000fd5b60008219821115614e9257614e92614dd0565b500190565b6000600019821415614eab57614eab614dd0565b5060010190565b60208082526031908201527f4552433732313a207472616e736665722063616c6c6572206973206e6f74206f6040820152701ddb995c881b9bdc88185c1c1c9bdd9959607a1b606082015260800190565b600060208284031215614f1557600080fd5b5051919050565b6020808252600a908201526937b7363c9037bbb732b960b11b604082015260600190565b6000808354614f4e81614e2e565b60018281168015614f665760018114614f7857614fa5565b60ff1984168752602087019450614fa5565b8760005260208060002060005b85811015614f9e5781548a820152908401908201614f85565b8901965050505b50929695505050505050565b600060208284031215614fc357600080fd5b8151614382816143f4565b60008151614fe0818560208601614389565b9290920192915050565b60008251614ffc818460208701614389565b9190910192915050565b600081600019048311821515161561502057615020614dd0565b500290565b60408152600060808201835160408085015281815180845260a08601915060a08160051b87010193506020808401935060005b8281101561508657609f198887030184526150748686516143b5565b95509381019392810192600101615058565b5087810151606088015286850390870152505060128252507139b2ba103234b9b1b7bab73a10313abcb2b960711b602082015260408101611357565b600087516150d4818460208c01614389565b80830190507f2220706f696e74733d223235352e393233312c3231322e3332203132372e393681527f31312c30203132352e313636312c392e35203132352e313636312c3238352e3160208201527f3638203132372e393631312c3238372e3935382022202f3e3c706f6c79676f6e6040820152672066696c6c3d222360c01b6060820152875161516c816068840160208c01614389565b7f2220706f696e74733d22302c3231322e3332203132372e3936322c3238372e39606892909101918201527f3539203132372e3936322c3135342e313538203132372e3936322c302022202f6088820152703e3c706f6c79676f6e2066696c6c3d222360781b60a882015286516151ea8160b9840160208b01614389565b61537e61537861530c6153066152a361529d60b9878901017f2220706f696e74733d223235352e393939312c3233362e35383636203132372e81527f393631312c3331322e31383636203132362e333836312c3331342e313036362060208201527f3132362e333836312c3431322e33303536203132372e393631312c3431362e3960408201527f3036362022202f3e203c706f6c79676f6e2066696c6c3d222300000000000000606082015260790190565b8c614fce565b7f2220706f696e74733d223132372e3936322c3431362e39303532203132372e3981527f36322c3331322e3138353220302c3233362e353835322022202f3e3c706f6c7960208201526a676f6e2066696c6c3d222360a81b6040820152604b0190565b89614fce565b7f2220706f696e74733d223132372e393631312c3238372e39353737203235352e81527f393231312c3231322e33323037203132372e393631312c3135342e313538372060208201527322202f3e3c706f6c79676f6e2066696c6c3d222360601b604082015260540190565b86614fce565b9a9950505050505050505050565b704554484475626169205469636b6574202360781b8152600082516153b8816011850160208701614389565b9190910160110192915050565b600081546153d281614e2e565b600182811680156153ea57600181146153fb5761542a565b60ff1984168752828701945061542a565b8560005260208060002060005b858110156154215781548a820152908401908201615408565b50505082870194505b5050505092915050565b683d913730b6b2911d1160b91b81528651600090615459816009850160208c01614389565b71111610113232b9b1b934b83a34b7b7111d1160711b600991840191820152875161548b81601b840160208c01614389565b7f222c202265787465726e616c5f75726c223a2268747470733a2f2f7777772e65601b92909101918201527574686475626169636f6e662e6f72672f746f6b656e2f60501b603b82015286516154e8816051840160208b01614389565b7f222c202261747472696275746573223a205b7b2274726169745f74797065223a6051929091019182015275101137b83a34b7b739911610113b30b63ab2911d101160511b60718201526155af6155a161537861556861530661554e608787018c6153c5565b6d113eae96101137bbb732b9111d1160911b8152600e0190565b7f222c2022696d616765223a2022646174613a696d6167652f7376672b786d6c3b81526618985cd94d8d0b60ca1b602082015260270190565b61227d60f01b815260020190565b9998505050505050505050565b7f646174613a6170706c69636174696f6e2f6a736f6e3b6261736536342c0000008152600082516155f481601d850160208701614389565b91909101601d0192915050565b60408152600082516101408060408501526156206101808501836143b5565b91506020850151603f198086850301606087015261563e84836143b5565b9350604087015191508086850301608087015261565b84836143b5565b935060608701519150808685030160a087015261567884836143b5565b935060808701519150808685030160c087015261569584836143b5565b935060a08701519150808685030160e08701526156b284836143b5565b935060c087015191506101008187860301818801526156d185846143b5565b945060e088015192506101208288870301818901526156f086856143b5565b955081890151935082888703018589015261570b86856143b5565b955080890151945050508086850301610160870152505061572c82826143b5565b9150508281036020840152611357816012815271757064617465417474656e646565496e666f60701b602082015260400190565b60008151615772818560208601614389565b601f01601f19169290920192915050565b600081518051615797818660208501614389565b601f01601f1916939093019392505050565b815180518051600092916020908101918591855b828110156157ef57845180516157d68187868501614389565b95830195601f01601f19169490940193506001016157bd565b5080850151835261584b615841615834615827615811858801868e0151615783565b60408d01516001600160a01b0316815260200190565b60608c0151815260200190565b60808b0151815260200190565b60a08a0151615760565b98975050505050505050565b60208082526032908201527f4552433732313a207472616e7366657220746f206e6f6e20455243373231526560408201527131b2b4bb32b91034b6b83632b6b2b73a32b960711b606082015260800190565b6000826158b8576158b8614dba565b500690565b600061438282846153c5565b7f3c7376672077696474683d2236303622206865696768743d223333342220786d81527f6c6e733d22687474703a2f2f7777772e77332e6f72672f323030302f7376672260208201527f3e3c72656374207374796c653d2266696c6c3a236666663b7374726f6b653a6260408201527f6c61636b3b7374726f6b652d77696474683a333b222077696474683d2236303260608201527f22206865696768743d223333312220783d22312e352220793d22312e3522207260808201527f793d22313022202f3e3c67207472616e73666f726d3d226d617472697828302e60a08201527f37323036343234382c302c302c302e37323036343234382c31372e393036343960c08201527f312c31342e30303934333429223e3c706f6c79676f6e2066696c6c3d2223000060e082015260008651615a0b8160fe850160208b01614389565b61584b615caf615ca9615c61615306615c1961529d615b65615b5f60fe8a8d01017f2220706f696e74733d22302e303030392c3231322e33323038203132372e393681527f30392c3238372e39353738203132372e393630392c3135342e3135383820222060208201527f2f3e3c2f673e3c74657874207374796c653d22666f6e742d73697a653a34307060408201527f783b6c696e652d6865696768743a312e32353b66696c6c3a233030303030303b60608201527f2220783d223234312220793d223134332e303131373822203e436f6e6665726560808201527f6e63653c2f746578743e203c74657874207374796c653d22666f6e742d73697a60a08201527f653a343070783b6c696e652d6865696768743a312e32353b66696c6c3a23303060c08201527f303030303b2220783d223234312220793d223138322e3534323937223e00000060e082015260fd0190565b8f614fce565b600080516020615dfc8339815191528152600080516020615e1c83398151915260208201527f303b2220783d223234312220793d22323232223e3c2f746578743e203c74657860408201527f74207374796c653d22666f6e742d73697a653a343070783b6c696e652d68656960608201527f6768743a312e32353b66696c6c3a233030303030303b2220783d22323431222060808201526d3c9e91191b1b17191c199a1a911f60911b60a082015260ae0190565b600080516020615dfc8339815191528152600080516020615e1c833981519152602082015273303b2220783d223234312220793d223837223e2360601b604082015260540190565b600080516020615dfc8339815191528152600080516020615e1c833981519152602082015273c0ec8881e0f488c8d0c48881e4f488ccc4d488f9605e1b604082015260550190565b866153c5565b600080516020615dfc8339815191528152600080516020615e1c83398151915260208201527f303b2220783d223234312220793d223339223e4554484475626169205469636b60408201526e32ba1e17ba32bc3a1f1e17b9bb339f60891b6060820152606f0190565b600081615d2757615d27614dd0565b506000190190565b84815260006bffffffffffffffffffffffff19808660601b166020840152808560601b166034840152508251615d6c816048850160208701614389565b9190910160480195945050505050565b6001600160a01b0385811682528416602082015260408101839052608060608201819052600090615daf908301846143b5565b9695505050505050565b600060208284031215615dcb57600080fd5b81516143828161434f565b600060ff821660ff84168060ff03821115615df357615df3614dd0565b01939250505056fe3c2f746578743e203c74657874207374796c653d22666f6e742d73697a653a343070783b6c696e652d6865696768743a312e32353b66696c6c3a2330303030304142434445464748494a4b4c4d4e4f505152535455565758595a6162636465666768696a6b6c6d6e6f707172737475767778797a303132333435363738392b2fa26469706673582212208267168ed459771569bb2e550a045efb7208f4006bffb37d558ac400d8938a6b64736f6c634300080a0033",
  "linkReferences": {},
  "deployedLinkReferences": {}
}