{
  "_format": "hh-sol-artifact-1",
  "contractName": "ETHDubaiTicket",
  "sourceName": "contracts/ETHDubaiTicket.sol",
  "abi": [
    {
      "inputs": [],
      "stateMutability": "nonpayable",
      "type": "constructor"
    },
    {
      "anonymous": false,
      "inputs": [
        {
          "indexed": true,
          "internalType": "address",
          "name": "owner",
          "type": "address"
        },
        {
          "indexed": true,
          "internalType": "address",
          "name": "approved",
          "type": "address"
        },
        {
          "indexed": true,
          "internalType": "uint256",
          "name": "tokenId",
          "type": "uint256"
        }
      ],
      "name": "Approval",
      "type": "event"
    },
    {
      "anonymous": false,
      "inputs": [
        {
          "indexed": true,
          "internalType": "address",
          "name": "owner",
          "type": "address"
        },
        {
          "indexed": true,
          "internalType": "address",
          "name": "operator",
          "type": "address"
        },
        {
          "indexed": false,
          "internalType": "bool",
          "name": "approved",
          "type": "bool"
        }
      ],
      "name": "ApprovalForAll",
      "type": "event"
    },
    {
      "anonymous": false,
      "inputs": [
        {
          "indexed": true,
          "internalType": "uint256",
          "name": "id",
          "type": "uint256"
        },
        {
          "components": [
            {
              "internalType": "string",
              "name": "email",
              "type": "string"
            },
            {
              "internalType": "string",
              "name": "fname",
              "type": "string"
            },
            {
              "internalType": "string",
              "name": "lname",
              "type": "string"
            },
            {
              "internalType": "string",
              "name": "twitter",
              "type": "string"
            },
            {
              "internalType": "string",
              "name": "bio",
              "type": "string"
            },
            {
              "internalType": "string",
              "name": "job",
              "type": "string"
            },
            {
              "internalType": "string",
              "name": "company",
              "type": "string"
            },
            {
              "internalType": "string",
              "name": "workshop",
              "type": "string"
            },
            {
              "internalType": "string",
              "name": "tshirt",
              "type": "string"
            },
            {
              "internalType": "string",
              "name": "telegram",
              "type": "string"
            }
          ],
          "indexed": false,
          "internalType": "struct ETHDubaiTicket.AttendeeInfo",
          "name": "attendeeInfo",
          "type": "tuple"
        },
        {
          "indexed": false,
          "internalType": "string",
          "name": "message",
          "type": "string"
        }
      ],
      "name": "LAttendeeInfo",
      "type": "event"
    },
    {
      "anonymous": false,
      "inputs": [
        {
          "indexed": true,
          "internalType": "address",
          "name": "sender",
          "type": "address"
        },
        {
          "components": [
            {
              "internalType": "string[]",
              "name": "ticketOptions",
              "type": "string[]"
            },
            {
              "internalType": "uint256",
              "name": "amount",
              "type": "uint256"
            }
          ],
          "indexed": false,
          "internalType": "struct ETHDubaiTicket.Discount",
          "name": "discount",
          "type": "tuple"
        },
        {
          "indexed": false,
          "internalType": "string",
          "name": "message",
          "type": "string"
        }
      ],
      "name": "LDiscount",
      "type": "event"
    },
    {
      "anonymous": false,
      "inputs": [
        {
          "components": [
            {
              "components": [
                {
                  "internalType": "string[]",
                  "name": "ticketOptions",
                  "type": "string[]"
                },
                {
                  "internalType": "uint256",
                  "name": "amount",
                  "type": "uint256"
                }
              ],
              "internalType": "struct ETHDubaiTicket.Discount",
              "name": "discount",
              "type": "tuple"
            },
            {
              "components": [
                {
                  "internalType": "string",
                  "name": "name",
                  "type": "string"
                }
              ],
              "internalType": "struct ETHDubaiTicket.TicketSettings",
              "name": "ticketSettings",
              "type": "tuple"
            },
            {
              "internalType": "address",
              "name": "buyer",
              "type": "address"
            },
            {
              "internalType": "uint256",
              "name": "amount",
              "type": "uint256"
            },
            {
              "internalType": "uint256",
              "name": "tokenId",
              "type": "uint256"
            },
            {
              "internalType": "string",
              "name": "ticketOption",
              "type": "string"
            }
          ],
          "indexed": true,
          "internalType": "struct ETHDubaiTicket.MintLog",
          "name": "mintLog",
          "type": "tuple"
        },
        {
          "indexed": false,
          "internalType": "string",
          "name": "message",
          "type": "string"
        }
      ],
      "name": "LMint",
      "type": "event"
    },
    {
      "anonymous": false,
      "inputs": [
        {
          "indexed": true,
          "internalType": "address",
          "name": "sender",
          "type": "address"
        },
        {
          "indexed": false,
          "internalType": "uint256",
          "name": "id",
          "type": "uint256"
        },
        {
          "indexed": false,
          "internalType": "string",
          "name": "message",
          "type": "string"
        }
      ],
      "name": "LMintId",
      "type": "event"
    },
    {
      "anonymous": false,
      "inputs": [
        {
          "components": [
            {
              "internalType": "address",
              "name": "from",
              "type": "address"
            },
            {
              "internalType": "address",
              "name": "to",
              "type": "address"
            },
            {
              "internalType": "uint256",
              "name": "tokenId",
              "type": "uint256"
            },
            {
              "internalType": "uint256",
              "name": "amount",
              "type": "uint256"
            }
          ],
          "indexed": true,
          "internalType": "struct ETHDubaiTicket.ResellLog",
          "name": "resellLog",
          "type": "tuple"
        },
        {
          "indexed": false,
          "internalType": "string",
          "name": "message",
          "type": "string"
        }
      ],
      "name": "LResell",
      "type": "event"
    },
    {
      "anonymous": false,
      "inputs": [
        {
          "indexed": true,
          "internalType": "uint256",
          "name": "id",
          "type": "uint256"
        },
        {
          "components": [
            {
              "internalType": "bool",
              "name": "isResellable",
              "type": "bool"
            },
            {
              "internalType": "uint256",
              "name": "price",
              "type": "uint256"
            }
          ],
          "indexed": false,
          "internalType": "struct ETHDubaiTicket.Resellable",
          "name": "resellable",
          "type": "tuple"
        },
        {
          "indexed": false,
          "internalType": "string",
          "name": "message",
          "type": "string"
        }
      ],
      "name": "LResellable",
      "type": "event"
    },
    {
      "anonymous": false,
      "inputs": [
        {
          "indexed": true,
          "internalType": "uint256",
          "name": "id",
          "type": "uint256"
        },
        {
          "indexed": false,
          "internalType": "bool",
          "name": "value",
          "type": "bool"
        },
        {
          "indexed": false,
          "internalType": "string",
          "name": "message",
          "type": "string"
        }
      ],
      "name": "LTicketAction",
      "type": "event"
    },
    {
      "anonymous": false,
      "inputs": [
        {
          "components": [
            {
              "internalType": "string",
              "name": "name",
              "type": "string"
            }
          ],
          "indexed": true,
          "internalType": "struct ETHDubaiTicket.TicketSettings",
          "name": "ticketSettings",
          "type": "tuple"
        },
        {
          "indexed": false,
          "internalType": "string",
          "name": "message",
          "type": "string"
        }
      ],
      "name": "LTicketSettings",
      "type": "event"
    },
    {
      "anonymous": false,
      "inputs": [
        {
          "indexed": true,
          "internalType": "uint256",
          "name": "tokenId",
          "type": "uint256"
        },
        {
          "indexed": false,
          "internalType": "string",
          "name": "message",
          "type": "string"
        }
      ],
      "name": "Lint",
      "type": "event"
    },
    {
      "anonymous": false,
      "inputs": [
        {
          "indexed": true,
          "internalType": "address",
          "name": "sender",
          "type": "address"
        },
        {
          "indexed": false,
          "internalType": "string",
          "name": "message",
          "type": "string"
        }
      ],
      "name": "Log",
      "type": "event"
    },
    {
      "anonymous": false,
      "inputs": [
        {
          "indexed": true,
          "internalType": "address",
          "name": "from",
          "type": "address"
        },
        {
          "indexed": true,
          "internalType": "address",
          "name": "to",
          "type": "address"
        },
        {
          "indexed": true,
          "internalType": "uint256",
          "name": "tokenId",
          "type": "uint256"
        }
      ],
      "name": "Transfer",
      "type": "event"
    },
    {
      "inputs": [
        {
          "internalType": "uint256",
          "name": "",
          "type": "uint256"
        }
      ],
      "name": "_idToAttendeeInfo",
      "outputs": [
        {
          "internalType": "string",
          "name": "email",
          "type": "string"
        },
        {
          "internalType": "string",
          "name": "fname",
          "type": "string"
        },
        {
          "internalType": "string",
          "name": "lname",
          "type": "string"
        },
        {
          "internalType": "string",
          "name": "twitter",
          "type": "string"
        },
        {
          "internalType": "string",
          "name": "bio",
          "type": "string"
        },
        {
          "internalType": "string",
          "name": "job",
          "type": "string"
        },
        {
          "internalType": "string",
          "name": "company",
          "type": "string"
        },
        {
          "internalType": "string",
          "name": "workshop",
          "type": "string"
        },
        {
          "internalType": "string",
          "name": "tshirt",
          "type": "string"
        },
        {
          "internalType": "string",
          "name": "telegram",
          "type": "string"
        }
      ],
      "stateMutability": "view",
      "type": "function"
    },
    {
      "inputs": [
        {
          "internalType": "uint256",
          "name": "",
          "type": "uint256"
        }
      ],
      "name": "_idToCanceled",
      "outputs": [
        {
          "internalType": "bool",
          "name": "",
          "type": "bool"
        }
      ],
      "stateMutability": "view",
      "type": "function"
    },
    {
      "inputs": [
        {
          "internalType": "uint256",
          "name": "",
          "type": "uint256"
        }
      ],
      "name": "_idToColors",
      "outputs": [
        {
          "internalType": "bytes3",
          "name": "color1",
          "type": "bytes3"
        },
        {
          "internalType": "bytes3",
          "name": "color2",
          "type": "bytes3"
        },
        {
          "internalType": "bytes3",
          "name": "color3",
          "type": "bytes3"
        },
        {
          "internalType": "bytes3",
          "name": "color4",
          "type": "bytes3"
        },
        {
          "internalType": "bytes3",
          "name": "color5",
          "type": "bytes3"
        }
      ],
      "stateMutability": "view",
      "type": "function"
    },
    {
      "inputs": [
        {
          "internalType": "uint256",
          "name": "",
          "type": "uint256"
        }
      ],
      "name": "_idToScanned",
      "outputs": [
        {
          "internalType": "bool",
          "name": "",
          "type": "bool"
        }
      ],
      "stateMutability": "view",
      "type": "function"
    },
    {
      "inputs": [
        {
          "internalType": "uint256",
          "name": "",
          "type": "uint256"
        }
      ],
      "name": "_idToSpecialStatus",
      "outputs": [
        {
          "internalType": "string",
          "name": "",
          "type": "string"
        }
      ],
      "stateMutability": "view",
      "type": "function"
    },
    {
      "inputs": [
        {
          "internalType": "uint256",
          "name": "",
          "type": "uint256"
        }
      ],
      "name": "_idToTicketCode",
      "outputs": [
        {
          "internalType": "string",
          "name": "",
          "type": "string"
        }
      ],
      "stateMutability": "view",
      "type": "function"
    },
    {
      "inputs": [
        {
          "internalType": "uint256",
          "name": "",
          "type": "uint256"
        }
      ],
      "name": "_idToTicketOption",
      "outputs": [
        {
          "internalType": "string",
          "name": "",
          "type": "string"
        }
      ],
      "stateMutability": "view",
      "type": "function"
    },
    {
      "inputs": [
        {
          "internalType": "uint256",
          "name": "",
          "type": "uint256"
        }
      ],
      "name": "_idToTicketResellable",
      "outputs": [
        {
          "internalType": "bool",
          "name": "isResellable",
          "type": "bool"
        },
        {
          "internalType": "uint256",
          "name": "price",
          "type": "uint256"
        }
      ],
      "stateMutability": "view",
      "type": "function"
    },
    {
      "inputs": [
        {
          "internalType": "address",
          "name": "to",
          "type": "address"
        },
        {
          "internalType": "uint256",
          "name": "tokenId",
          "type": "uint256"
        }
      ],
      "name": "approve",
      "outputs": [],
      "stateMutability": "nonpayable",
      "type": "function"
    },
    {
      "inputs": [
        {
          "internalType": "address",
          "name": "owner",
          "type": "address"
        }
      ],
      "name": "balanceOf",
      "outputs": [
        {
          "internalType": "uint256",
          "name": "",
          "type": "uint256"
        }
      ],
      "stateMutability": "view",
      "type": "function"
    },
    {
      "inputs": [],
      "name": "dao1",
      "outputs": [
        {
          "internalType": "address",
          "name": "",
          "type": "address"
        }
      ],
      "stateMutability": "view",
      "type": "function"
    },
    {
      "inputs": [],
      "name": "dao2",
      "outputs": [
        {
          "internalType": "address",
          "name": "",
          "type": "address"
        }
      ],
      "stateMutability": "view",
      "type": "function"
    },
    {
      "inputs": [],
      "name": "dao3",
      "outputs": [
        {
          "internalType": "address",
          "name": "",
          "type": "address"
        }
      ],
      "stateMutability": "view",
      "type": "function"
    },
    {
      "inputs": [],
      "name": "daoa",
      "outputs": [
        {
          "internalType": "uint256",
          "name": "",
          "type": "uint256"
        }
      ],
      "stateMutability": "view",
      "type": "function"
    },
    {
      "inputs": [],
      "name": "erc20",
      "outputs": [
        {
          "internalType": "contract ERC20",
          "name": "",
          "type": "address"
        }
      ],
      "stateMutability": "view",
      "type": "function"
    },
    {
      "inputs": [
        {
          "internalType": "uint256",
          "name": "tokenId",
          "type": "uint256"
        }
      ],
      "name": "getApproved",
      "outputs": [
        {
          "internalType": "address",
          "name": "",
          "type": "address"
        }
      ],
      "stateMutability": "view",
      "type": "function"
    },
    {
      "inputs": [
        {
          "internalType": "address",
          "name": "sender",
          "type": "address"
        },
        {
          "internalType": "string",
          "name": "ticketOption",
          "type": "string"
        }
      ],
      "name": "getPrice",
      "outputs": [
        {
          "internalType": "uint256",
          "name": "",
          "type": "uint256"
        }
      ],
      "stateMutability": "view",
      "type": "function"
    },
    {
      "inputs": [
        {
          "internalType": "address",
          "name": "owner",
          "type": "address"
        },
        {
          "internalType": "address",
          "name": "operator",
          "type": "address"
        }
      ],
      "name": "isApprovedForAll",
      "outputs": [
        {
          "internalType": "bool",
          "name": "",
          "type": "bool"
        }
      ],
      "stateMutability": "view",
      "type": "function"
    },
    {
      "inputs": [
        {
          "internalType": "uint256",
          "name": "id",
          "type": "uint256"
        },
        {
          "internalType": "bool",
          "name": "scan",
          "type": "bool"
        },
        {
          "internalType": "bool",
          "name": "canceled",
          "type": "bool"
        }
      ],
      "name": "markAsScannedCanceld",
      "outputs": [
        {
          "internalType": "bool",
          "name": "",
          "type": "bool"
        }
      ],
      "stateMutability": "nonpayable",
      "type": "function"
    },
    {
      "inputs": [
        {
          "components": [
            {
              "components": [
                {
                  "internalType": "string",
                  "name": "email",
                  "type": "string"
                },
                {
                  "internalType": "string",
                  "name": "fname",
                  "type": "string"
                },
                {
                  "internalType": "string",
                  "name": "lname",
                  "type": "string"
                },
                {
                  "internalType": "string",
                  "name": "twitter",
                  "type": "string"
                },
                {
                  "internalType": "string",
                  "name": "bio",
                  "type": "string"
                },
                {
                  "internalType": "string",
                  "name": "job",
                  "type": "string"
                },
                {
                  "internalType": "string",
                  "name": "company",
                  "type": "string"
                },
                {
                  "internalType": "string",
                  "name": "workshop",
                  "type": "string"
                },
                {
                  "internalType": "string",
                  "name": "tshirt",
                  "type": "string"
                },
                {
                  "internalType": "string",
                  "name": "telegram",
                  "type": "string"
                }
              ],
              "internalType": "struct ETHDubaiTicket.AttendeeInfo",
              "name": "attendeeInfo",
              "type": "tuple"
            },
            {
              "internalType": "string",
              "name": "ticketCode",
              "type": "string"
            },
            {
              "internalType": "string",
              "name": "ticketOption",
              "type": "string"
            },
            {
              "internalType": "string",
              "name": "specialStatus",
              "type": "string"
            },
            {
              "components": [
                {
                  "internalType": "bool",
                  "name": "isResellable",
                  "type": "bool"
                },
                {
                  "internalType": "uint256",
                  "name": "price",
                  "type": "uint256"
                }
              ],
              "internalType": "struct ETHDubaiTicket.Resellable",
              "name": "resellable",
              "type": "tuple"
            }
          ],
          "internalType": "struct ETHDubaiTicket.MintInfo[]",
          "name": "mintInfos",
          "type": "tuple[]"
        }
      ],
      "name": "mintItem",
      "outputs": [
        {
          "internalType": "string",
          "name": "",
          "type": "string"
        }
      ],
      "stateMutability": "payable",
      "type": "function"
    },
    {
      "inputs": [],
      "name": "name",
      "outputs": [
        {
          "internalType": "string",
          "name": "",
          "type": "string"
        }
      ],
      "stateMutability": "view",
      "type": "function"
    },
    {
      "inputs": [],
      "name": "owner",
      "outputs": [
        {
          "internalType": "address payable",
          "name": "",
          "type": "address"
        }
      ],
      "stateMutability": "view",
      "type": "function"
    },
    {
      "inputs": [
        {
          "internalType": "uint256",
          "name": "tokenId",
          "type": "uint256"
        }
      ],
      "name": "ownerOf",
      "outputs": [
        {
          "internalType": "address",
          "name": "",
          "type": "address"
        }
      ],
      "stateMutability": "view",
      "type": "function"
    },
    {
      "inputs": [
        {
          "internalType": "uint256",
          "name": "id",
          "type": "uint256"
        }
      ],
      "name": "renderTokenById",
      "outputs": [
        {
          "internalType": "string",
          "name": "",
          "type": "string"
        }
      ],
      "stateMutability": "view",
      "type": "function"
    },
    {
      "inputs": [
        {
          "internalType": "uint256",
          "name": "tokenId",
          "type": "uint256"
        }
      ],
      "name": "resell",
      "outputs": [],
      "stateMutability": "payable",
      "type": "function"
    },
    {
      "inputs": [
        {
          "internalType": "address",
          "name": "from",
          "type": "address"
        },
        {
          "internalType": "address",
          "name": "to",
          "type": "address"
        },
        {
          "internalType": "uint256",
          "name": "tokenId",
          "type": "uint256"
        }
      ],
      "name": "safeTransferFrom",
      "outputs": [],
      "stateMutability": "nonpayable",
      "type": "function"
    },
    {
      "inputs": [
        {
          "internalType": "address",
          "name": "from",
          "type": "address"
        },
        {
          "internalType": "address",
          "name": "to",
          "type": "address"
        },
        {
          "internalType": "uint256",
          "name": "tokenId",
          "type": "uint256"
        },
        {
          "internalType": "bytes",
          "name": "_data",
          "type": "bytes"
        }
      ],
      "name": "safeTransferFrom",
      "outputs": [],
      "stateMutability": "nonpayable",
      "type": "function"
    },
    {
      "inputs": [
        {
          "internalType": "address",
          "name": "operator",
          "type": "address"
        },
        {
          "internalType": "bool",
          "name": "approved",
          "type": "bool"
        }
      ],
      "name": "setApprovalForAll",
      "outputs": [],
      "stateMutability": "nonpayable",
      "type": "function"
    },
    {
      "inputs": [
        {
          "internalType": "address",
          "name": "d1",
          "type": "address"
        },
        {
          "internalType": "address",
          "name": "d2",
          "type": "address"
        },
        {
          "internalType": "address",
          "name": "d3",
          "type": "address"
        },
        {
          "internalType": "uint256",
          "name": "a",
          "type": "uint256"
        }
      ],
      "name": "setDaos",
      "outputs": [
        {
          "internalType": "bool",
          "name": "",
          "type": "bool"
        }
      ],
      "stateMutability": "nonpayable",
      "type": "function"
    },
    {
      "inputs": [
        {
          "internalType": "address",
          "name": "buyer",
          "type": "address"
        },
        {
          "internalType": "string[]",
          "name": "discounts",
          "type": "string[]"
        },
        {
          "internalType": "uint256",
          "name": "amount",
          "type": "uint256"
        }
      ],
      "name": "setDiscount",
      "outputs": [
        {
          "internalType": "bool",
          "name": "",
          "type": "bool"
        }
      ],
      "stateMutability": "nonpayable",
      "type": "function"
    },
    {
      "inputs": [
        {
          "internalType": "uint256",
          "name": "max",
          "type": "uint256"
        }
      ],
      "name": "setMaxMint",
      "outputs": [
        {
          "internalType": "uint256",
          "name": "",
          "type": "uint256"
        }
      ],
      "stateMutability": "nonpayable",
      "type": "function"
    },
    {
      "inputs": [
        {
          "internalType": "uint256",
          "name": "id",
          "type": "uint256"
        },
        {
          "internalType": "bool",
          "name": "isResellable",
          "type": "bool"
        },
        {
          "internalType": "uint256",
          "name": "price",
          "type": "uint256"
        }
      ],
      "name": "setResellable",
      "outputs": [
        {
          "internalType": "bool",
          "name": "",
          "type": "bool"
        }
      ],
      "stateMutability": "nonpayable",
      "type": "function"
    },
    {
      "inputs": [
        {
          "internalType": "string",
          "name": "name",
          "type": "string"
        },
        {
          "internalType": "uint256",
          "name": "amount",
          "type": "uint256"
        }
      ],
      "name": "setTicketOption",
      "outputs": [
        {
          "internalType": "bool",
          "name": "",
          "type": "bool"
        }
      ],
      "stateMutability": "nonpayable",
      "type": "function"
    },
    {
      "inputs": [
        {
          "internalType": "string",
          "name": "name",
          "type": "string"
        },
        {
          "internalType": "address",
          "name": "e2",
          "type": "address"
        }
      ],
      "name": "setTicketSettings",
      "outputs": [
        {
          "internalType": "bool",
          "name": "",
          "type": "bool"
        }
      ],
      "stateMutability": "nonpayable",
      "type": "function"
    },
    {
      "inputs": [],
      "name": "settings",
      "outputs": [
        {
          "components": [
            {
              "internalType": "string",
              "name": "name",
              "type": "string"
            }
          ],
          "internalType": "struct ETHDubaiTicket.TicketSettings",
          "name": "ticketSettings",
          "type": "tuple"
        },
        {
          "internalType": "uint256",
          "name": "maxMint",
          "type": "uint256"
        }
      ],
      "stateMutability": "view",
      "type": "function"
    },
    {
      "inputs": [
        {
          "internalType": "bytes4",
          "name": "interfaceId",
          "type": "bytes4"
        }
      ],
      "name": "supportsInterface",
      "outputs": [
        {
          "internalType": "bool",
          "name": "",
          "type": "bool"
        }
      ],
      "stateMutability": "view",
      "type": "function"
    },
    {
      "inputs": [],
      "name": "symbol",
      "outputs": [
        {
          "internalType": "string",
          "name": "",
          "type": "string"
        }
      ],
      "stateMutability": "view",
      "type": "function"
    },
    {
      "inputs": [
        {
          "internalType": "uint256",
          "name": "id",
          "type": "uint256"
        }
      ],
      "name": "tokenURI",
      "outputs": [
        {
          "internalType": "string",
          "name": "",
          "type": "string"
        }
      ],
      "stateMutability": "view",
      "type": "function"
    },
    {
      "inputs": [
        {
          "components": [
            {
              "components": [
                {
                  "internalType": "string",
                  "name": "email",
                  "type": "string"
                },
                {
                  "internalType": "string",
                  "name": "fname",
                  "type": "string"
                },
                {
                  "internalType": "string",
                  "name": "lname",
                  "type": "string"
                },
                {
                  "internalType": "string",
                  "name": "twitter",
                  "type": "string"
                },
                {
                  "internalType": "string",
                  "name": "bio",
                  "type": "string"
                },
                {
                  "internalType": "string",
                  "name": "job",
                  "type": "string"
                },
                {
                  "internalType": "string",
                  "name": "company",
                  "type": "string"
                },
                {
                  "internalType": "string",
                  "name": "workshop",
                  "type": "string"
                },
                {
                  "internalType": "string",
                  "name": "tshirt",
                  "type": "string"
                },
                {
                  "internalType": "string",
                  "name": "telegram",
                  "type": "string"
                }
              ],
              "internalType": "struct ETHDubaiTicket.AttendeeInfo",
              "name": "attendeeInfo",
              "type": "tuple"
            },
            {
              "internalType": "string",
              "name": "ticketCode",
              "type": "string"
            },
            {
              "internalType": "string",
              "name": "ticketOption",
              "type": "string"
            },
            {
              "internalType": "string",
              "name": "specialStatus",
              "type": "string"
            },
            {
              "components": [
                {
                  "internalType": "bool",
                  "name": "isResellable",
                  "type": "bool"
                },
                {
                  "internalType": "uint256",
                  "name": "price",
                  "type": "uint256"
                }
              ],
              "internalType": "struct ETHDubaiTicket.Resellable",
              "name": "resellable",
              "type": "tuple"
            }
          ],
          "internalType": "struct ETHDubaiTicket.MintInfo[]",
          "name": "mIs",
          "type": "tuple[]"
        }
      ],
      "name": "totalPrice",
      "outputs": [
        {
          "internalType": "uint256",
          "name": "",
          "type": "uint256"
        }
      ],
      "stateMutability": "view",
      "type": "function"
    },
    {
      "inputs": [
        {
          "internalType": "address",
          "name": "from",
          "type": "address"
        },
        {
          "internalType": "address",
          "name": "to",
          "type": "address"
        },
        {
          "internalType": "uint256",
          "name": "tokenId",
          "type": "uint256"
        }
      ],
      "name": "transferFrom",
      "outputs": [],
      "stateMutability": "nonpayable",
      "type": "function"
    },
    {
      "inputs": [
        {
          "internalType": "uint256",
          "name": "id",
          "type": "uint256"
        },
        {
          "components": [
            {
              "internalType": "string",
              "name": "email",
              "type": "string"
            },
            {
              "internalType": "string",
              "name": "fname",
              "type": "string"
            },
            {
              "internalType": "string",
              "name": "lname",
              "type": "string"
            },
            {
              "internalType": "string",
              "name": "twitter",
              "type": "string"
            },
            {
              "internalType": "string",
              "name": "bio",
              "type": "string"
            },
            {
              "internalType": "string",
              "name": "job",
              "type": "string"
            },
            {
              "internalType": "string",
              "name": "company",
              "type": "string"
            },
            {
              "internalType": "string",
              "name": "workshop",
              "type": "string"
            },
            {
              "internalType": "string",
              "name": "tshirt",
              "type": "string"
            },
            {
              "internalType": "string",
              "name": "telegram",
              "type": "string"
            }
          ],
          "internalType": "struct ETHDubaiTicket.AttendeeInfo",
          "name": "attendeeInfo",
          "type": "tuple"
        }
      ],
      "name": "updateAttendeeInfo",
      "outputs": [
        {
          "internalType": "bool",
          "name": "",
          "type": "bool"
        }
      ],
      "stateMutability": "nonpayable",
      "type": "function"
    },
    {
      "inputs": [],
      "name": "withdraw",
      "outputs": [],
      "stateMutability": "nonpayable",
      "type": "function"
    }
  ],
  "bytecode": "0x60806040523480156200001157600080fd5b50604080518082018252600e81526d115512111d58985a551a58dad95d60921b602080830191825283518085019094526008845267455448445542414960c01b908401528151919291620000689160009162000553565b5080516200007e90600190602084019062000553565b505050336001600160a01b03167f0738f4da267a110d810e6e89fc59e46be6de0c37b1d5cd559b267dc3688e74e0604051620000d59060208082526007908201526618dc99585d195960ca1b604082015260600190565b60405180910390a2600880546001600160a01b031990811633179091556032600f55600d805490911673fe4f5145f6e09952a5ba9e956ed0c25e3fa4c7f117905560408051606081018252600560208201818152646561726c7960d81b93830193845282529091600e916200014c91839162000553565b50506040805169636f6e666572656e636560b01b81526012600a8201819052915190819003602a01812067016345785d8a00009055670776f726b73686f760c41b8152671bc16d674ec800009250600801908152604051908190036020018120919091556702c68af0bb14000090601290620001eb907f776f726b73686f7031416e645072655061727479000000000000000000000000815260140190565b908152604051908190036020018120919091556702c68af0bb1400009060129062000239907f776f726b73686f7032416e645072655061727479000000000000000000000000815260140190565b908152604051908190036020018120919091556702c68af0bb1400009060129062000287907f776f726b73686f7033416e645072655061727479000000000000000000000000815260140190565b908152604051908190036020018120919091556702c68af0bb14000090601290620002c7906e686f74656c436f6e666572656e636560881b8152600f0190565b9081526040519081900360200181209190915567058d15e1762800009060129062000315907f686f74656c576f726b73686f707331416e6450726550617274790000000000008152601a0190565b9081526040519081900360200181209190915567058d15e1762800009060129062000363907f686f74656c576f726b73686f707332416e6450726550617274790000000000008152601a0190565b9081526040519081900360200181209190915567058d15e17628000090601290620003b1907f686f74656c576f726b73686f707333416e6450726550617274790000000000008152601a0190565b90815260405190819003602001812091909155600190601190620003f8907f776f726b73686f7031416e645072655061727479000000000000000000000000815260140190565b90815260408051918290036020018220805493151560ff199485161790557f776f726b73686f7032416e645072655061727479000000000000000000000000825260116014808401829052825193849003603490810185208054871660019081179091557f776f726b73686f7033416e645072655061727479000000000000000000000000865291850183905283519485900301842080548616821790557f686f74656c576f726b73686f707331416e6450726550617274790000000000008452601a808501839052835194859003603a908101862080548816841790557f686f74656c576f726b73686f707332416e64507265506172747900000000000086528582018490528451958690038101862080548816841790557f686f74656c576f726b73686f707333416e64507265506172747900000000000086529085019290925291519283900301909120805490921617905562000636565b8280546200056190620005f9565b90600052602060002090601f016020900481019282620005855760008555620005d0565b82601f10620005a057805160ff1916838001178555620005d0565b82800160010185558215620005d0579182015b82811115620005d0578251825591602001919060010190620005b3565b50620005de929150620005e2565b5090565b5b80821115620005de5760008155600101620005e3565b600181811c908216806200060e57607f821691505b602082108114156200063057634e487b7160e01b600052602260045260246000fd5b50919050565b615ccc80620006466000396000f3fe6080604052600436106102505760003560e01c8063785e9e8611610139578063a2d6c6da116100b6578063d18d48ae1161007a578063d18d48ae14610770578063e06174e4146107a6578063e136d28c146107c9578063e985e9c5146107e9578063f5600d0814610832578063fc4717891461085257600080fd5b8063a2d6c6da146106dd578063ab756c88146106fd578063b88d4fde14610710578063b9a34d9214610730578063c87b56dd1461075057600080fd5b806391effe76116100fd57806391effe76146105d257806393348137146105f257806395d89b4114610612578063a011bc1514610627578063a22cb465146106bd57600080fd5b8063785e9e861461053c5780637f7819a71461055c57806383b466d61461057c57806387f4f4e4146105925780638da5cb5b146105b257600080fd5b806342842e0e116101d25780635bb67fb0116101965780635bb67fb01461046c5780635e6b120f1461049c5780636352211e146104bc57806368064d1e146104dc57806370a08231146104fc57806376977a3a1461051c57600080fd5b806342842e0e146103cc57806349b79f91146103ec57806353716f911461040c578063547520fe1461042c57806357aed4011461044c57600080fd5b80630defcdff116102195780630defcdff14610319578063207a73051461033957806323b872dd1461036757806335090d3a146103875780633ccfd60b146103b757600080fd5b8062746ce31461025557806301ffc9a71461026a57806306fdde031461029f578063081812fc146102c1578063095ea7b3146102f9575b600080fd5b6102686102633660046141d1565b6108a3565b005b34801561027657600080fd5b5061028a610285366004614200565b610b6e565b60405190151581526020015b60405180910390f35b3480156102ab57600080fd5b506102b4610bc0565b604051610296919061427c565b3480156102cd57600080fd5b506102e16102dc3660046141d1565b610c52565b6040516001600160a01b039091168152602001610296565b34801561030557600080fd5b506102686103143660046142a4565b610ce7565b34801561032557600080fd5b506102b46103343660046141d1565b610dfd565b34801561034557600080fd5b506103596103543660046145fc565b610e97565b604051908152602001610296565b34801561037357600080fd5b5061026861038236600461476e565b610ef1565b34801561039357600080fd5b5061028a6103a23660046141d1565b60176020526000908152604090205460ff1681565b3480156103c357600080fd5b50610268610f22565b3480156103d857600080fd5b506102686103e736600461476e565b61112a565b3480156103f857600080fd5b50600b546102e1906001600160a01b031681565b34801561041857600080fd5b5061028a6104273660046147af565b611145565b34801561043857600080fd5b506103596104473660046141d1565b611257565b34801561045857600080fd5b5061028a6104673660046147f1565b6112e4565b34801561047857600080fd5b5061028a6104873660046141d1565b60166020526000908152604090205460ff1681565b3480156104a857600080fd5b5061028a6104b7366004614842565b61135f565b3480156104c857600080fd5b506102e16104d73660046141d1565b611436565b3480156104e857600080fd5b5061028a6104f7366004614893565b6114ad565b34801561050857600080fd5b506103596105173660046148ba565b6115eb565b34801561052857600080fd5b506103596105373660046148d7565b611672565b34801561054857600080fd5b50600d546102e1906001600160a01b031681565b34801561056857600080fd5b5061028a610577366004614926565b611ac2565b34801561058857600080fd5b50610359600c5481565b34801561059e57600080fd5b50600a546102e1906001600160a01b031681565b3480156105be57600080fd5b506008546102e1906001600160a01b031681565b3480156105de57600080fd5b506009546102e1906001600160a01b031681565b3480156105fe57600080fd5b506102b461060d3660046141d1565b611b8a565b34801561061e57600080fd5b506102b4611ba3565b34801561063357600080fd5b506106826106423660046141d1565b60186020526000908152604090205460e881811b9163010000008104821b91600160301b8204811b91600160481b8104821b91600160601b909104901b85565b604080516001600160e81b0319968716815294861660208601529285169284019290925283166060830152909116608082015260a001610296565b3480156106c957600080fd5b506102686106d83660046149f3565b611bb2565b3480156106e957600080fd5b506102b46106f83660046141d1565b611c77565b6102b461070b3660046145fc565b611da8565b34801561071c57600080fd5b5061026861072b366004614a21565b612010565b34801561073c57600080fd5b5061028a61074b366004614aa0565b612048565b34801561075c57600080fd5b506102b461076b3660046141d1565b6120a2565b34801561077c57600080fd5b5061079061078b3660046141d1565b612214565b6040516102969a99989796959493929190614ae4565b3480156107b257600080fd5b506107bb6127b0565b604051610296929190614bbf565b3480156107d557600080fd5b5061028a6107e4366004614beb565b61285d565b3480156107f557600080fd5b5061028a610804366004614c27565b6001600160a01b03918216600090815260056020908152604080832093909416825291909152205460ff1690565b34801561083e57600080fd5b506102b461084d3660046141d1565b612a89565b34801561085e57600080fd5b5061088c61086d3660046141d1565b6015602052600090815260409020805460019091015460ff9091169082565b604080519215158352602083019190915201610296565b6000818152601560209081526040918290208251808401909352805460ff161515808452600190910154918301919091526109145760405162461bcd60e51b815260206004820152600c60248201526b6e6f7420666f722073616c6560a01b60448201526064015b60405180910390fd5b60208101516000610926601483614c81565b905060006109348284614c95565b9050600061094186611436565b600d546040516323b872dd60e01b81523360048201526001600160a01b038084166024830152604482018690529293509116906323b872dd906064016020604051808303816000875af115801561099c573d6000803e3d6000fd5b505050506040513d601f19601f820116820180604052508101906109c09190614cac565b6109c957600080fd5b600d546040516323b872dd60e01b8152336004820152306024820152604481018590526001600160a01b03909116906323b872dd906064016020604051808303816000875af1158015610a20573d6000803e3d6000fd5b505050506040513d601f19601f82011682018060405250810190610a449190614cac565b610a4d57600080fd5b610a60610a5987611436565b3388612aa2565b60008086528681526015602090815260408083208851815460ff19169015151781559188015160019092019190915580516080810190915280610aa289611436565b6001600160a01b03168152602001336001600160a01b0316815260200188815260200186815250905080604051610b0d919081516001600160a01b03908116825260208084015190911690820152604080830151908201526060918201519181019190915260800190565b60405180910390207f60495e8f84637280bfda279215ab8a212d6be2f484c771235260c1def06ac9dc604051610b5d906020808252600690820152651c995cd95b1b60d21b604082015260600190565b60405180910390a250505050505050565b60006001600160e01b031982166380ac58cd60e01b1480610b9f57506001600160e01b03198216635b5e139f60e01b145b80610bba57506301ffc9a760e01b6001600160e01b03198316145b92915050565b606060008054610bcf90614cc9565b80601f0160208091040260200160405190810160405280929190818152602001828054610bfb90614cc9565b8015610c485780601f10610c1d57610100808354040283529160200191610c48565b820191906000526020600020905b815481529060010190602001808311610c2b57829003601f168201915b5050505050905090565b6000818152600260205260408120546001600160a01b0316610ccb5760405162461bcd60e51b815260206004820152602c60248201527f4552433732313a20617070726f76656420717565727920666f72206e6f6e657860448201526b34b9ba32b73a103a37b5b2b760a11b606482015260840161090b565b506000908152600460205260409020546001600160a01b031690565b6000610cf282611436565b9050806001600160a01b0316836001600160a01b03161415610d605760405162461bcd60e51b815260206004820152602160248201527f4552433732313a20617070726f76616c20746f2063757272656e74206f776e656044820152603960f91b606482015260840161090b565b336001600160a01b0382161480610d7c5750610d7c8133610804565b610dee5760405162461bcd60e51b815260206004820152603860248201527f4552433732313a20617070726f76652063616c6c6572206973206e6f74206f7760448201527f6e6572206e6f7220617070726f76656420666f7220616c6c0000000000000000606482015260840161090b565b610df88383612c42565b505050565b60146020526000908152604090208054610e1690614cc9565b80601f0160208091040260200160405190810160405280929190818152602001828054610e4290614cc9565b8015610e8f5780601f10610e6457610100808354040283529160200191610e8f565b820191906000526020600020905b815481529060010190602001808311610e7257829003601f168201915b505050505081565b600080805b8351811015610eea57610ecc33858381518110610ebb57610ebb614d04565b602002602001015160400151611672565b610ed69083614d1a565b915080610ee281614d32565b915050610e9c565b5092915050565b610efb3382612cb0565b610f175760405162461bcd60e51b815260040161090b90614d4d565b610df8838383612aa2565b60085460405147916000916001600160a01b039091169083908381818185875af1925050503d8060008114610f73576040519150601f19603f3d011682016040523d82523d6000602084013e610f78565b606091505b5050600d546040516370a0823160e01b81523060048201529192506000916001600160a01b03909116906370a0823190602401602060405180830381865afa158015610fc8573d6000803e3d6000fd5b505050506040513d601f19601f82011682018060405250810190610fec9190614d9e565b600d5460085460405163a9059cbb60e01b81526001600160a01b03918216600482015260248101849052929350169063a9059cbb906044016020604051808303816000875af1158015611043573d6000803e3d6000fd5b505050506040513d601f19601f820116820180604052508101906110679190614cac565b61109c5760405162461bcd60e51b815260206004820152600660248201526511985a5b195960d21b604482015260640161090b565b816110d25760405162461bcd60e51b815260206004820152600660248201526511985a5b195960d21b604482015260640161090b565b827f8357d8ab35f23e88ce565d8adf95e902661648acccc23d68dafcbdd1eca6764c60405161111d90602080825260089082015267776974686472617760c01b604082015260600190565b60405180910390a2505050565b610df883838360405180602001604052806000815250612010565b6008546000906001600160a01b031633146111725760405162461bcd60e51b815260040161090b90614db7565b6000848152601660209081526040808320805460ff19908116881515908117909255601784529382902080549094168615151790935580519283529082018190526004908201526339b1b0b760e11b606082015284907f40468798b83ac9e30fa77473fd728c43883657f2365f0cb2bd9dbf4657ad4d619060800160405180910390a2837f40468798b83ac9e30fa77473fd728c43883657f2365f0cb2bd9dbf4657ad4d618360405161124791151581526040602082018190526006908201526518d85b98d95b60d21b606082015260800190565b60405180910390a2509092915050565b6008546000906001600160a01b031633146112845760405162461bcd60e51b815260040161090b90614db7565b600f82905560405182907f8357d8ab35f23e88ce565d8adf95e902661648acccc23d68dafcbdd1eca6764c906112d8906020808252600a90820152691cd95d13585e135a5b9d60b21b604082015260600190565b60405180910390a25090565b6008546000906001600160a01b031633146113115760405162461bcd60e51b815260040161090b90614db7565b50600980546001600160a01b038087166001600160a01b031992831617909255600a8054868416908316179055600b805492851692909116919091179055600c81905560015b949350505050565b6008546000906001600160a01b0316331461138c5760405162461bcd60e51b815260040161090b90614db7565b825161139f90600e906020860190614085565b50600d80546001600160a01b0319166001600160a01b0384161790556040516113ca90600e90614ddb565b60405180910390207f91adaaa32f8e275893e2f8dc786e170fdb9de662a8caaaf89974339ba9a777d5604051611425906020808252601190820152707365745469636b657453657474696e677360781b604082015260600190565b60405180910390a250600192915050565b6000818152600260205260408120546001600160a01b031680610bba5760405162461bcd60e51b815260206004820152602960248201527f4552433732313a206f776e657220717565727920666f72206e6f6e657869737460448201526832b73a103a37b5b2b760b91b606482015260840161090b565b6040516331a9108f60e11b8152600481018490526000903090636352211e90602401602060405180830381865afa1580156114ec573d6000803e3d6000fd5b505050506040513d601f19601f820116820180604052508101906115109190614e4c565b6001600160a01b0316336001600160a01b0316146115405760405162461bcd60e51b815260040161090b90614db7565b604080518082018252841515815260208082018581526000888152601583528490208351815490151560ff1990911681178255825160019092019190915584519081529051918101919091526060818401819052600d908201526c736574526573656c6c61626c6560981b60808201529151909186917fc719d0dddd8df14e3e631a3138b5a3c9cde19770ceec3c72c9375f60e179e8e19181900360a00190a2506001949350505050565b60006001600160a01b0382166116565760405162461bcd60e51b815260206004820152602a60248201527f4552433732313a2062616c616e636520717565727920666f7220746865207a65604482015269726f206164647265737360b01b606482015260840161090b565b506001600160a01b031660009081526003602052604090205490565b6001600160a01b0382166000908152601060209081526040808320815181546060948102820185018452928101838152859491938492849190879085015b8282101561175c5783829060005260206000200180546116cf90614cc9565b80601f01602080910402602001604051908101604052809291908181526020018280546116fb90614cc9565b80156117485780601f1061171d57610100808354040283529160200191611748565b820191906000526020600020905b81548152906001019060200180831161172b57829003601f168201915b5050505050815260200190600101906116b0565b505050908252506001918201546020918201526001600160a01b038716600090815260109091526040808220909201549151929350909181906012906117a3908890614e85565b908152602001604051809103902054826117bd9190614d1a565b915082156118775760005b845151811015611867576000856000015182815181106117ea576117ea614d04565b6020026020010151905060008890508060405160200161180a9190614e85565b60405160208183030381529060405280519060200120826040516020016118319190614e85565b60405160208183030381529060405280519060200120141561185257600193505b5050808061185f90614d32565b9150506117c8565b508061187257600092505b611a4c565b60095460009081906001600160a01b03161561190b576009546040516370a0823160e01b81523360048201526001600160a01b039091169081906370a0823190602401602060405180830381865afa1580156118d7573d6000803e3d6000fd5b505050506040513d601f19601f820116820180604052508101906118fb9190614d9e565b9150811561190957600c5495505b505b841580156119275750600a546001600160a01b03838116911614155b156119aa57600a546040516370a0823160e01b81523360048201526001600160a01b039091169081906370a0823190602401602060405180830381865afa158015611976573d6000803e3d6000fd5b505050506040513d601f19601f8201168201806040525081019061199a9190614d9e565b915081156119a857600c5495505b505b841580156119c65750600b546001600160a01b03838116911614155b15611a4957600b546040516370a0823160e01b81523360048201526001600160a01b039091169081906370a0823190602401602060405180830381865afa158015611a15573d6000803e3d6000fd5b505050506040513d601f19601f82011682018060405250810190611a399190614d9e565b91508115611a4757600c5495505b505b50505b60008211611a8f5760405162461bcd60e51b815260206004820152601060248201526f0546f74616c2063616e277420626520360841b604482015260640161090b565b8215611ab8576064611aa18484614ea1565b611aab9190614c81565b611ab59083614c95565b91505b5095945050505050565b6008546000906001600160a01b03163314611aef5760405162461bcd60e51b815260040161090b90614db7565b6040805180820182528481526020810184905290516001600160a01b038616907f178a9f003387b45d102f3acfac1899591ad2260290718874e3492928b77e78e790611b3c908490614ec0565b60405180910390a26001600160a01b0385166000908152601060209081526040909120825180518493611b73928492910190614109565b506020919091015160019182015595945050505050565b60196020526000908152604090208054610e1690614cc9565b606060018054610bcf90614cc9565b6001600160a01b038216331415611c0b5760405162461bcd60e51b815260206004820152601960248201527f4552433732313a20617070726f766520746f2063616c6c657200000000000000604482015260640161090b565b3360008181526005602090815260408083206001600160a01b03871680855290835292819020805460ff191686151590811790915590519081529192917f17307eab39ab6107e8899845ad3d59bd9653f200f220920489ca2b5937696c31910160405180910390a35050565b60008181526018602052604081205460609190611ca09060e81b6001600160e81b031916612da3565b600084815260186020526040902054611ccc906301000000900460e81b6001600160e81b031916612da3565b600085815260186020526040902054611cf890600160301b900460e81b6001600160e81b031916612da3565b600086815260186020526040902054611d24906301000000900460e81b6001600160e81b031916612da3565b600087815260186020526040902054611d5090600160481b900460e81b6001600160e81b031916612da3565b600088815260186020526040902054611d7c90600160601b900460e81b6001600160e81b031916612da3565b604051602001611d9196959493929190614f5d565b60408051601f198184030181529190529392505050565b6060600e600101548251611dbb60075490565b611dc59190614d1a565b1115611dfe5760405162461bcd60e51b81526020600482015260086024820152671cdbdb19081bdd5d60c21b604482015260640161090b565b6000611e0983610e97565b600d546040516323b872dd60e01b8152336004820152306024820152604481018390529192506001600160a01b0316906323b872dd906064016020604051808303816000875af1158015611e61573d6000803e3d6000fd5b505050506040513d601f19601f82011682018060405250810190611e859190614cac565b611ec55760405162461bcd60e51b81526020600482015260116024820152701d1c985b9cd9995c919c9bdb4819985a5b607a1b604482015260640161090b565b604080516020810190915260008082525b845181101561200857604080516000815260208101918290525190208551869083908110611f0657611f06614d04565b602002602001015160600151604051602001611f229190614e85565b604051602081830303815290604052805190602001201480611f4e57506008546001600160a01b031633145b611f6a5760405162461bcd60e51b815260040161090b90614db7565b6000611f8f868381518110611f8157611f81614d04565b602002602001015133612eea565b9050336001600160a01b03167f632d98bca08ade3a45aae4221e31316ffd5993820d60db7bd3d986788cf0932a82604051611fed91815260406020820181905260099082015268135a5b9d195908125960ba1b606082015260800190565b60405180910390a2508061200081614d32565b915050611ed6565b509392505050565b61201a3383612cb0565b6120365760405162461bcd60e51b815260040161090b90614d4d565b61204284848484613509565b50505050565b6008546000906001600160a01b031633146120755760405162461bcd60e51b815260040161090b90614db7565b81600e600401846040516120899190614e85565b9081526040519081900360200190205550600192915050565b6000818152600260205260409020546060906001600160a01b03166120f55760405162461bcd60e51b81526020600482015260096024820152681b9bdd08195e1a5cdd60ba1b604482015260640161090b565b60006121008361353c565b6040516020016121109190615227565b60405160208183030381529060405290506000604051602001612162907f5469636b657420746f20455448447562616920636f6e666572656e636520323081526219189760e91b602082015260230190565b6040516020818303038152906040529050600061218661218186613639565b6139a6565b90506121eb83836121968861353c565b60008981526019602052604090206121c160146121b28c611436565b6001600160a01b031690613b0b565b866040516020016121d7969594939291906152cf565b6040516020818303038152906040526139a6565b6040516020016121fb9190615457565b6040516020818303038152906040529350505050919050565b60136020526000908152604090208054819061222f90614cc9565b80601f016020809104026020016040519081016040528092919081815260200182805461225b90614cc9565b80156122a85780601f1061227d576101008083540402835291602001916122a8565b820191906000526020600020905b81548152906001019060200180831161228b57829003601f168201915b5050505050908060010180546122bd90614cc9565b80601f01602080910402602001604051908101604052809291908181526020018280546122e990614cc9565b80156123365780601f1061230b57610100808354040283529160200191612336565b820191906000526020600020905b81548152906001019060200180831161231957829003601f168201915b50505050509080600201805461234b90614cc9565b80601f016020809104026020016040519081016040528092919081815260200182805461237790614cc9565b80156123c45780601f10612399576101008083540402835291602001916123c4565b820191906000526020600020905b8154815290600101906020018083116123a757829003601f168201915b5050505050908060030180546123d990614cc9565b80601f016020809104026020016040519081016040528092919081815260200182805461240590614cc9565b80156124525780601f1061242757610100808354040283529160200191612452565b820191906000526020600020905b81548152906001019060200180831161243557829003601f168201915b50505050509080600401805461246790614cc9565b80601f016020809104026020016040519081016040528092919081815260200182805461249390614cc9565b80156124e05780601f106124b5576101008083540402835291602001916124e0565b820191906000526020600020905b8154815290600101906020018083116124c357829003601f168201915b5050505050908060050180546124f590614cc9565b80601f016020809104026020016040519081016040528092919081815260200182805461252190614cc9565b801561256e5780601f106125435761010080835404028352916020019161256e565b820191906000526020600020905b81548152906001019060200180831161255157829003601f168201915b50505050509080600601805461258390614cc9565b80601f01602080910402602001604051908101604052809291908181526020018280546125af90614cc9565b80156125fc5780601f106125d1576101008083540402835291602001916125fc565b820191906000526020600020905b8154815290600101906020018083116125df57829003601f168201915b50505050509080600701805461261190614cc9565b80601f016020809104026020016040519081016040528092919081815260200182805461263d90614cc9565b801561268a5780601f1061265f5761010080835404028352916020019161268a565b820191906000526020600020905b81548152906001019060200180831161266d57829003601f168201915b50505050509080600801805461269f90614cc9565b80601f01602080910402602001604051908101604052809291908181526020018280546126cb90614cc9565b80156127185780601f106126ed57610100808354040283529160200191612718565b820191906000526020600020905b8154815290600101906020018083116126fb57829003601f168201915b50505050509080600901805461272d90614cc9565b80601f016020809104026020016040519081016040528092919081815260200182805461275990614cc9565b80156127a65780601f1061277b576101008083540402835291602001916127a6565b820191906000526020600020905b81548152906001019060200180831161278957829003601f168201915b505050505090508a565b600e806000016040518060200160405290816000820180546127d190614cc9565b80601f01602080910402602001604051908101604052809291908181526020018280546127fd90614cc9565b801561284a5780601f1061281f5761010080835404028352916020019161284a565b820191906000526020600020905b81548152906001019060200180831161282d57829003601f168201915b5050509190925250505060019091015482565b6008546000906001600160a01b03163314806128e957506040516331a9108f60e11b8152600481018490523090636352211e90602401602060405180830381865afa1580156128b0573d6000803e3d6000fd5b505050506040513d601f19601f820116820180604052508101906128d49190614e4c565b6001600160a01b0316336001600160a01b0316145b6129355760405162461bcd60e51b815260206004820152601d60248201527f6f6e6c7920636f6e7472616374206f72207469636b6574206f776e6572000000604482015260640161090b565b600083815260136020908152604090912083518051859361295a928492910190614085565b5060208281015180516129739260018501920190614085565b506040820151805161298f916002840191602090910190614085565b50606082015180516129ab916003840191602090910190614085565b50608082015180516129c7916004840191602090910190614085565b5060a082015180516129e3916005840191602090910190614085565b5060c082015180516129ff916006840191602090910190614085565b5060e08201518051612a1b916007840191602090910190614085565b506101008201518051612a38916008840191602090910190614085565b506101208201518051612a55916009840191602090910190614085565b50905050827f8a4ca1200428c686f2b84bcf478a36282e84ddf0c7198163243e5ef0422129c483604051611425919061549c565b601a6020526000908152604090208054610e1690614cc9565b826001600160a01b0316612ab582611436565b6001600160a01b031614612b1d5760405162461bcd60e51b815260206004820152602960248201527f4552433732313a207472616e73666572206f6620746f6b656e2074686174206960448201526839903737ba1037bbb760b91b606482015260840161090b565b6001600160a01b038216612b7f5760405162461bcd60e51b8152602060048201526024808201527f4552433732313a207472616e7366657220746f20746865207a65726f206164646044820152637265737360e01b606482015260840161090b565b612b8a600082612c42565b6001600160a01b0383166000908152600360205260408120805460019290612bb3908490614c95565b90915550506001600160a01b0382166000908152600360205260408120805460019290612be1908490614d1a565b909155505060008181526002602052604080822080546001600160a01b0319166001600160a01b0386811691821790925591518493918716917fddf252ad1be2c89b69c2b068fc378daa952ba7f163c4a11628f55a4df523b3ef91a4505050565b600081815260046020526040902080546001600160a01b0319166001600160a01b0384169081179091558190612c7782611436565b6001600160a01b03167f8c5be1e5ebec7d5bd14f71427d1e84f3dd0314c0f7b2291e5b200ac8c7c3b92560405160405180910390a45050565b6000818152600260205260408120546001600160a01b0316612d295760405162461bcd60e51b815260206004820152602c60248201527f4552433732313a206f70657261746f7220717565727920666f72206e6f6e657860448201526b34b9ba32b73a103a37b5b2b760a11b606482015260840161090b565b6000612d3483611436565b9050806001600160a01b0316846001600160a01b03161480612d6f5750836001600160a01b0316612d6484610c52565b6001600160a01b0316145b8061135757506001600160a01b0380821660009081526005602090815260408083209388168352929052205460ff16611357565b6040805160068082528183019092526060916000919060208201818036833701905050905060005b6003811015610eea576f181899199a1a9b1b9c1cb0b131b232b360811b848260038110612dfa57612dfa614d04565b1a600f1660108110612e0e57612e0e614d04565b1a60f81b82612e1e836002614ea1565b612e29906001614d1a565b81518110612e3957612e39614d04565b60200101906001600160f81b031916908160001a9053506f181899199a1a9b1b9c1cb0b131b232b360811b6004858360038110612e7857612e78614d04565b1a60f81b6001600160f81b031916901c60f81c600f1660ff1660108110612ea157612ea1614d04565b1a60f81b82612eb1836002614ea1565b81518110612ec157612ec1614d04565b60200101906001600160f81b031916908160001a90535080612ee281614d32565b915050612dcb565b6001600160a01b038116600090815260106020908152604080832081518154606094810282018501845292810183815285948594929392849291849190879085015b82821015612fd8578382906000526020600020018054612f4b90614cc9565b80601f0160208091040260200160405190810160405280929190818152602001828054612f7790614cc9565b8015612fc45780601f10612f9957610100808354040283529160200191612fc4565b820191906000526020600020905b815481529060010190602001808311612fa757829003601f168201915b505050505081526020019060010190612f2c565b5050505081526020016001820154815250509050612ffa600780546001019055565b600061300560075490565b90506130118582613c57565b600061302e8630613023436001614d1a565b8a5151904090613d99565b905061303981613dd2565b6000838152601860205260408120805462ffffff191660e89390931c9290921790915561307c873061306c436002614d1a565b408b600001516101200151613d99565b905061308781613dd2565b6000848152601860205260408120805460e89390931c63010000000265ffffff00000019909316929092179091556130d488306130c5436003614d1a565b408c6000015160200151613d99565b90506130df81613dd2565b6000858152601860205260408120805460e89390931c600160301b0268ffffff000000000000199093169290921790915561312f8930613120436004614d1a565b408d6000015160400151613d99565b905061313a81613dd2565b6000868152601860205260408120805460e89390931c600160481b026bffffff00000000000000000019909316929092179091556131a18a3061317e436032614d1a565b4060405180604001604052806004815260200163666f6f3560e01b815250613d99565b90506131ac81613dd2565b6000878152601860209081526040808320805460e89590951c600160601b0262ffffff60601b19909516949094179093558d5160138252929091208251805191926131fc92849290910190614085565b5060208281015180516132159260018501920190614085565b5060408201518051613231916002840191602090910190614085565b506060820151805161324d916003840191602090910190614085565b5060808201518051613269916004840191602090910190614085565b5060a08201518051613285916005840191602090910190614085565b5060c082015180516132a1916006840191602090910190614085565b5060e082015180516132bd916007840191602090910190614085565b5061010082015180516132da916008840191602090910190614085565b5061012082015180516132f7916009840191602090910190614085565b5050506020808c015160008881526014835260409020815161331e93919290910190614085565b5060808b015160008781526015602090815260408083208451815490151560ff199182161782559483015160019091015560168252808320805485169055601782528083208054909416909355828e0151601982529290912082516133899391929190910190614085565b5060608b01516000878152601a6020908152604090912082516133b193919290910190614085565b5060006040518060c00160405280898152602001600e6000016040518060200160405290816000820180546133e590614cc9565b80601f016020809104026020016040519081016040528092919081815260200182805461341190614cc9565b801561345e5780601f106134335761010080835404028352916020019161345e565b820191906000526020600020905b81548152906001019060200180831161344157829003601f168201915b50505050508152505081526020018c6001600160a01b031681526020018a81526020018881526020018d6040015181525090508060405161349f9190615644565b60405180910390207fd51300a08f780182a771828f81667b7b6de8e3d3eb5eff9e8b8ea0c49a980db46040516134f1906020808252600890820152676d696e744974656d60c01b604082015260600190565b60405180910390a250949a9950505050505050505050565b613514848484612aa2565b61352084848484613e09565b6120425760405162461bcd60e51b815260040161090b906156f2565b6060816135605750506040805180820190915260018152600360fc1b602082015290565b8160005b811561358a578061357481614d32565b91506135839050600a83614c81565b9150613564565b6000816001600160401b038111156135a4576135a46142d0565b6040519080825280601f01601f1916602001820160405280156135ce576020820181803683370190505b5090505b8415611357576135e3600183614c95565b91506135f0600a86615744565b6135fb906030614d1a565b60f81b81838151811061361057613610614d04565b60200101906001600160f81b031916908160001a905350613632600a86614c81565b94506135d2565b60608061370860196000858152602001908152602001600020805461365d90614cc9565b80601f016020809104026020016040519081016040528092919081815260200182805461368990614cc9565b80156136d65780601f106136ab576101008083540402835291602001916136d6565b820191906000526020600020905b8154815290600101906020018083116136b957829003601f168201915b50505050506040518060400160405280600f81526020016e686f74656c436f6e666572656e636560881b815250613f04565b1561372b57506040805180820190915260058152641a1bdd195b60da1b60208201525b60008381526019602052604090819020905160119161374991615758565b9081526040519081900360200190205460ff16156137fb576000838152601960205260409020805461377a90614cc9565b80601f01602080910402602001604051908101604052809291908181526020018280546137a690614cc9565b80156137f35780601f106137c8576101008083540402835291602001916137f3565b820191906000526020600020905b8154815290600101906020018083116137d657829003601f168201915b505050505090505b6000838152601a6020526040902080546138ac919061381990614cc9565b80601f016020809104026020016040519081016040528092919081815260200182805461384590614cc9565b80156138925780601f1061386757610100808354040283529160200191613892565b820191906000526020600020905b81548152906001019060200180831161387557829003601f168201915b505050505060405180602001604052806000815250613f04565b61394a576000838152601a6020526040902080546138c990614cc9565b80601f01602080910402602001604051908101604052809291908181526020018280546138f590614cc9565b80156139425780601f1061391757610100808354040283529160200191613942565b820191906000526020600020905b81548152906001019060200180831161392557829003601f168201915b505050505090505b600061395584613f5d565b9050600061396285611c77565b83836013600089815260200190815260200160002060090160405160200161398d9493929190615764565b60408051601f1981840301815291905295945050505050565b60608151600014156139c657505060408051602081019091526000815290565b6000604051806060016040528060408152602001615c5760409139905060006003845160026139f59190614d1a565b6139ff9190614c81565b613a0a906004614ea1565b90506000613a19826020614d1a565b6001600160401b03811115613a3057613a306142d0565b6040519080825280601f01601f191660200182016040528015613a5a576020820181803683370190505b509050818152600183018586518101602084015b81831015613ac6576003830192508251603f8160121c168501518253600182019150603f81600c1c168501518253600182019150603f8160061c168501518253600182019150603f8116850151825350600101613a6e565b600389510660018114613ae05760028114613af157613afd565b613d3d60f01b600119830152613afd565b603d60f81b6000198301525b509398975050505050505050565b60606000613b1a836002614ea1565b613b25906002614d1a565b6001600160401b03811115613b3c57613b3c6142d0565b6040519080825280601f01601f191660200182016040528015613b66576020820181803683370190505b509050600360fc1b81600081518110613b8157613b81614d04565b60200101906001600160f81b031916908160001a905350600f60fb1b81600181518110613bb057613bb0614d04565b60200101906001600160f81b031916908160001a9053506000613bd4846002614ea1565b613bdf906001614d1a565b90505b6001811115612008576f181899199a1a9b1b9c1cb0b131b232b360811b85600f1660108110613c1357613c13614d04565b1a60f81b828281518110613c2957613c29614d04565b60200101906001600160f81b031916908160001a90535060049490941c93613c5081615b73565b9050613be2565b6001600160a01b038216613cad5760405162461bcd60e51b815260206004820181905260248201527f4552433732313a206d696e7420746f20746865207a65726f2061646472657373604482015260640161090b565b6000818152600260205260409020546001600160a01b031615613d125760405162461bcd60e51b815260206004820152601c60248201527f4552433732313a20746f6b656e20616c7265616479206d696e74656400000000604482015260640161090b565b6001600160a01b0382166000908152600360205260408120805460019290613d3b908490614d1a565b909155505060008181526002602052604080822080546001600160a01b0319166001600160a01b03861690811790915590518392907fddf252ad1be2c89b69c2b068fc378daa952ba7f163c4a11628f55a4df523b3ef908290a45050565b600082858584604051602001613db29493929190615b8a565b604051602081830303815290604052805190602001209050949350505050565b600081901a60f81b6001600160f81b03191660ff60f01b600183901a60f01b161760ff60e81b60029290921a60e81b919091161790565b60006001600160a01b0384163b15613efc57604051630a85bd0160e11b81526001600160a01b0385169063150b7a0290613e4d903390899088908890600401615bd7565b6020604051808303816000875af1925050508015613e88575060408051601f3d908101601f19168201909252613e8591810190615c14565b60015b613ee2573d808015613eb6576040519150601f19603f3d011682016040523d82523d6000602084013e613ebb565b606091505b508051613eda5760405162461bcd60e51b815260040161090b906156f2565b805181602001fd5b6001600160e01b031916630a85bd0160e11b149050611357565b506001611357565b600081604051602001613f179190614e85565b6040516020818303038152906040528051906020012083604051602001613f3e9190614e85565b6040516020818303038152906040528051906020012014905092915050565b606081613f815750506040805180820190915260018152600360fc1b602082015290565b8160005b8115613fab5780613f9581614d32565b9150613fa49050600a83614c81565b9150613f85565b6000816001600160401b03811115613fc557613fc56142d0565b6040519080825280601f01601f191660200182016040528015613fef576020820181803683370190505b509050815b851561407c57614005600182614c95565b90506000614014600a88614c81565b61401f90600a614ea1565b6140299088614c95565b614034906030615c31565b905060008160f81b90508084848151811061405157614051614d04565b60200101906001600160f81b031916908160001a905350614073600a89614c81565b97505050613ff4565b50949350505050565b82805461409190614cc9565b90600052602060002090601f0160209004810192826140b357600085556140f9565b82601f106140cc57805160ff19168380011785556140f9565b828001600101855582156140f9579182015b828111156140f95782518255916020019190600101906140de565b50614105929150614162565b5090565b828054828255906000526020600020908101928215614156579160200282015b828111156141565782518051614146918491602090910190614085565b5091602001919060010190614129565b50614105929150614177565b5b808211156141055760008155600101614163565b8082111561410557600061418b8282614194565b50600101614177565b5080546141a090614cc9565b6000825580601f106141b0575050565b601f0160209004906000526020600020908101906141ce9190614162565b50565b6000602082840312156141e357600080fd5b5035919050565b6001600160e01b0319811681146141ce57600080fd5b60006020828403121561421257600080fd5b813561421d816141ea565b9392505050565b60005b8381101561423f578181015183820152602001614227565b838111156120425750506000910152565b60008151808452614268816020860160208601614224565b601f01601f19169290920160200192915050565b60208152600061421d6020830184614250565b6001600160a01b03811681146141ce57600080fd5b600080604083850312156142b757600080fd5b82356142c28161428f565b946020939093013593505050565b634e487b7160e01b600052604160045260246000fd5b60405161014081016001600160401b0381118282101715614309576143096142d0565b60405290565b60405160a081016001600160401b0381118282101715614309576143096142d0565b604051601f8201601f191681016001600160401b0381118282101715614359576143596142d0565b604052919050565b60006001600160401b0382111561437a5761437a6142d0565b5060051b60200190565b60006001600160401b0383111561439d5761439d6142d0565b6143b0601f8401601f1916602001614331565b90508281528383830111156143c457600080fd5b828260208301376000602084830101529392505050565b600082601f8301126143ec57600080fd5b61421d83833560208501614384565b6000610140828403121561440e57600080fd5b6144166142e6565b905081356001600160401b038082111561442f57600080fd5b61443b858386016143db565b8352602084013591508082111561445157600080fd5b61445d858386016143db565b6020840152604084013591508082111561447657600080fd5b614482858386016143db565b6040840152606084013591508082111561449b57600080fd5b6144a7858386016143db565b606084015260808401359150808211156144c057600080fd5b6144cc858386016143db565b608084015260a08401359150808211156144e557600080fd5b6144f1858386016143db565b60a084015260c084013591508082111561450a57600080fd5b614516858386016143db565b60c084015260e084013591508082111561452f57600080fd5b61453b858386016143db565b60e08401526101009150818401358181111561455657600080fd5b614562868287016143db565b83850152506101209150818401358181111561457d57600080fd5b614589868287016143db565b8385015250505092915050565b80151581146141ce57600080fd5b6000604082840312156145b657600080fd5b604051604081018181106001600160401b03821117156145d8576145d86142d0565b60405290508082356145e981614596565b8152602092830135920191909152919050565b6000602080838503121561460f57600080fd5b82356001600160401b038082111561462657600080fd5b818501915085601f83011261463a57600080fd5b813561464d61464882614361565b614331565b81815260059190911b8301840190848101908883111561466c57600080fd5b8585015b83811015614761578035858111156146885760008081fd5b860160c0818c03601f1901121561469f5760008081fd5b6146a761430f565b88820135878111156146b95760008081fd5b6146c78d8b838601016143fb565b825250604080830135888111156146de5760008081fd5b6146ec8e8c838701016143db565b8b84015250606080840135898111156147055760008081fd5b6147138f8d838801016143db565b838501525060809150818401358981111561472e5760008081fd5b61473c8f8d838801016143db565b82850152505061474f8d60a085016145a4565b90820152845250918601918601614670565b5098975050505050505050565b60008060006060848603121561478357600080fd5b833561478e8161428f565b9250602084013561479e8161428f565b929592945050506040919091013590565b6000806000606084860312156147c457600080fd5b8335925060208401356147d681614596565b915060408401356147e681614596565b809150509250925092565b6000806000806080858703121561480757600080fd5b84356148128161428f565b935060208501356148228161428f565b925060408501356148328161428f565b9396929550929360600135925050565b6000806040838503121561485557600080fd5b82356001600160401b0381111561486b57600080fd5b614877858286016143db565b92505060208301356148888161428f565b809150509250929050565b6000806000606084860312156148a857600080fd5b83359250602084013561479e81614596565b6000602082840312156148cc57600080fd5b813561421d8161428f565b600080604083850312156148ea57600080fd5b82356148f58161428f565b915060208301356001600160401b0381111561491057600080fd5b61491c858286016143db565b9150509250929050565b60008060006060848603121561493b57600080fd5b83356149468161428f565b92506020848101356001600160401b038082111561496357600080fd5b818701915087601f83011261497757600080fd5b813561498561464882614361565b81815260059190911b8301840190848101908a8311156149a457600080fd5b8585015b838110156149dc578035858111156149c05760008081fd5b6149ce8d89838a01016143db565b8452509186019186016149a8565b50979a979950505050604095909501359450505050565b60008060408385031215614a0657600080fd5b8235614a118161428f565b9150602083013561488881614596565b60008060008060808587031215614a3757600080fd5b8435614a428161428f565b93506020850135614a528161428f565b92506040850135915060608501356001600160401b03811115614a7457600080fd5b8501601f81018713614a8557600080fd5b614a9487823560208401614384565b91505092959194509250565b60008060408385031215614ab357600080fd5b82356001600160401b03811115614ac957600080fd5b614ad5858286016143db565b95602094909401359450505050565b6000610140808352614af88184018e614250565b90508281036020840152614b0c818d614250565b90508281036040840152614b20818c614250565b90508281036060840152614b34818b614250565b90508281036080840152614b48818a614250565b905082810360a0840152614b5c8189614250565b905082810360c0840152614b708188614250565b905082810360e0840152614b848187614250565b9050828103610100840152614b998186614250565b9050828103610120840152614bae8185614250565b9d9c50505050505050505050505050565b604081526000835160206040840152614bdb6060840182614250565b9150508260208301529392505050565b60008060408385031215614bfe57600080fd5b8235915060208301356001600160401b03811115614c1b57600080fd5b61491c858286016143fb565b60008060408385031215614c3a57600080fd5b8235614c458161428f565b915060208301356148888161428f565b634e487b7160e01b600052601260045260246000fd5b634e487b7160e01b600052601160045260246000fd5b600082614c9057614c90614c55565b500490565b600082821015614ca757614ca7614c6b565b500390565b600060208284031215614cbe57600080fd5b815161421d81614596565b600181811c90821680614cdd57607f821691505b60208210811415614cfe57634e487b7160e01b600052602260045260246000fd5b50919050565b634e487b7160e01b600052603260045260246000fd5b60008219821115614d2d57614d2d614c6b565b500190565b6000600019821415614d4657614d46614c6b565b5060010190565b60208082526031908201527f4552433732313a207472616e736665722063616c6c6572206973206e6f74206f6040820152701ddb995c881b9bdc88185c1c1c9bdd9959607a1b606082015260800190565b600060208284031215614db057600080fd5b5051919050565b6020808252600a908201526937b7363c9037bbb732b960b11b604082015260600190565b6000808354614de981614cc9565b60018281168015614e015760018114614e1357614e40565b60ff1984168752602087019450614e40565b8760005260208060002060005b85811015614e395781548a820152908401908201614e20565b8901965050505b50929695505050505050565b600060208284031215614e5e57600080fd5b815161421d8161428f565b60008151614e7b818560208601614224565b9290920192915050565b60008251614e97818460208701614224565b9190910192915050565b6000816000190483118215151615614ebb57614ebb614c6b565b500290565b60408152600060808201835160408085015281815180845260a08601915060a08160051b87010193506020808401935060005b82811015614f2157609f19888703018452614f0f868651614250565b95509381019392810192600101614ef3565b5087810151606088015286850390870152505060128252507139b2ba103234b9b1b7bab73a10313abcb2b960711b602082015260408101611357565b60008751614f6f818460208c01614224565b80830190507f2220706f696e74733d223235352e393233312c3231322e3332203132372e393681527f31312c30203132352e313636312c392e35203132352e313636312c3238352e3160208201527f3638203132372e393631312c3238372e3935382022202f3e3c706f6c79676f6e6040820152672066696c6c3d222360c01b60608201528751615007816068840160208c01614224565b7f2220706f696e74733d22302c3231322e3332203132372e3936322c3238372e39606892909101918201527f3539203132372e3936322c3135342e313538203132372e3936322c302022202f6088820152703e3c706f6c79676f6e2066696c6c3d222360781b60a882015286516150858160b9840160208b01614224565b6152196152136151a76151a161513e61513860b9878901017f2220706f696e74733d223235352e393939312c3233362e35383636203132372e81527f393631312c3331322e31383636203132362e333836312c3331342e313036362060208201527f3132362e333836312c3431322e33303536203132372e393631312c3431362e3960408201527f3036362022202f3e203c706f6c79676f6e2066696c6c3d222300000000000000606082015260790190565b8c614e69565b7f2220706f696e74733d223132372e3936322c3431362e39303532203132372e3981527f36322c3331322e3138353220302c3233362e353835322022202f3e3c706f6c7960208201526a676f6e2066696c6c3d222360a81b6040820152604b0190565b89614e69565b7f2220706f696e74733d223132372e393631312c3238372e39353737203235352e81527f393231312c3231322e33323037203132372e393631312c3135342e313538372060208201527322202f3e3c706f6c79676f6e2066696c6c3d222360601b604082015260540190565b86614e69565b9a9950505050505050505050565b704554484475626169205469636b6574202360781b815260008251615253816011850160208701614224565b9190910160110192915050565b6000815461526d81614cc9565b600182811680156152855760018114615296576152c5565b60ff198416875282870194506152c5565b8560005260208060002060005b858110156152bc5781548a8201529084019082016152a3565b50505082870194505b5050505092915050565b683d913730b6b2911d1160b91b815286516000906152f4816009850160208c01614224565b71111610113232b9b1b934b83a34b7b7111d1160711b600991840191820152875161532681601b840160208c01614224565b7f222c202265787465726e616c5f75726c223a2268747470733a2f2f7777772e65601b92909101918201527574686475626169636f6e662e6f72672f746f6b656e2f60501b603b8201528651615383816051840160208b01614224565b7f222c202261747472696275746573223a205b7b2274726169745f74797065223a6051929091019182015275101137b83a34b7b739911610113b30b63ab2911d101160511b607182015261544a61543c6152136154036151a16153e9608787018c615260565b6d113eae96101137bbb732b9111d1160911b8152600e0190565b7f222c2022696d616765223a2022646174613a696d6167652f7376672b786d6c3b81526618985cd94d8d0b60ca1b602082015260270190565b61227d60f01b815260020190565b9998505050505050505050565b7f646174613a6170706c69636174696f6e2f6a736f6e3b6261736536342c00000081526000825161548f81601d850160208701614224565b91909101601d0192915050565b60408152600082516101408060408501526154bb610180850183614250565b91506020850151603f19808685030160608701526154d98483614250565b935060408701519150808685030160808701526154f68483614250565b935060608701519150808685030160a08701526155138483614250565b935060808701519150808685030160c08701526155308483614250565b935060a08701519150808685030160e087015261554d8483614250565b935060c0870151915061010081878603018188015261556c8584614250565b945060e0880151925061012082888703018189015261558b8685614250565b95508189015193508288870301858901526155a68685614250565b95508089015194505050808685030161016087015250506155c78282614250565b9150508281036020840152611357816012815271757064617465417474656e646565496e666f60701b602082015260400190565b6000815161560d818560208601614224565b601f01601f19169290920192915050565b600081518051615632818660208501614224565b601f01601f1916939093019392505050565b815180518051600092916020908101918591855b8281101561568a57845180516156718187868501614224565b95830195601f01601f1916949094019350600101615658565b508085015183526156e66156dc6156cf6156c26156ac858801868e015161561e565b60408d01516001600160a01b0316815260200190565b60608c0151815260200190565b60808b0151815260200190565b60a08a01516155fb565b98975050505050505050565b60208082526032908201527f4552433732313a207472616e7366657220746f206e6f6e20455243373231526560408201527131b2b4bb32b91034b6b83632b6b2b73a32b960711b606082015260800190565b60008261575357615753614c55565b500690565b600061421d8284615260565b7f3c7376672077696474683d2236303622206865696768743d223333342220786d81527f6c6e733d22687474703a2f2f7777772e77332e6f72672f323030302f7376672260208201527f3e3c72656374207374796c653d2266696c6c3a236666663b7374726f6b653a6260408201527f6c61636b3b7374726f6b652d77696474683a333b222077696474683d2236303260608201527f22206865696768743d223333312220783d22312e352220793d22312e3522207260808201527f793d22313022202f3e3c67207472616e73666f726d3d226d617472697828302e60a08201527f37323036343234382c302c302c302e37323036343234382c31372e393036343960c08201527f312c31342e30303934333429223e3c706f6c79676f6e2066696c6c3d2223000060e0820152600085516158a68160fe850160208a01614224565b7f2220706f696e74733d22302e303030392c3231322e33323038203132372e393660fe918401918201527f30392c3238372e39353738203132372e393630392c3135342e3135383820222061011e8201527f2f3e3c2f673e3c74657874207374796c653d22666f6e742d73697a653a34307061013e8201527f783b6c696e652d6865696768743a312e32353b66696c6c3a233030303030303b61015e8201527f2220783d223234312220793d223134332e303131373822203e436f6e6665726561017e8201527f6e63653c2f746578743e203c74657874207374796c653d22666f6e742d73697a61019e8201527f653a323070783b6c696e652d6865696768743a312e32353b66696c6c3a2330306101be8201527f303030303b2220783d223234312220793d223138322e3534323937223e0000006101de820152615b68615adb615ad5615a696151a16159fe6101fb87018c614e69565b7f3c2f746578743e3c74657874207374796c653d22666f6e742d73697a653a343081527f70783b6c696e652d6865696768743a312e32353b66696c6c3a233030303030306020820152723b2220783d223234312220793d223837223e2360681b604082015260530190565b7f3c2f746578743e203c74657874207374796c653d22666f6e742d73697a653a3481527f3070783b6c696e652d6865696768743a312e32353b66696c6c3a233030303030602082015273c0ec8881e0f488c8d0c48881e4f488c8e4c088f9605e1b604082015260550190565b86615260565b7f3c2f746578743e203c74657874207374796c653d22666f6e742d73697a653a3481527f3070783b6c696e652d6865696768743a312e32353b66696c6c3a23303030303060208201527f303b2220783d223234312220793d223339223e4554484475626169205469636b60408201526e32ba1e17ba32bc3a1f1e17b9bb339f60891b6060820152606f0190565b979650505050505050565b600081615b8257615b82614c6b565b506000190190565b84815260006bffffffffffffffffffffffff19808660601b166020840152808560601b166034840152508251615bc7816048850160208701614224565b9190910160480195945050505050565b6001600160a01b0385811682528416602082015260408101839052608060608201819052600090615c0a90830184614250565b9695505050505050565b600060208284031215615c2657600080fd5b815161421d816141ea565b600060ff821660ff84168060ff03821115615c4e57615c4e614c6b565b01939250505056fe4142434445464748494a4b4c4d4e4f505152535455565758595a6162636465666768696a6b6c6d6e6f707172737475767778797a303132333435363738392b2fa26469706673582212201ebab0e319fc63bcb5023d23f2d6a7eaf4c4b7b36f517a3f3eeb620b87fc6faa64736f6c634300080a0033",
  "linkReferences": {},
  "deployedLinkReferences": {}
}